{
  "contractName": "HousingRentalSystem",
  "abi": [
    {
      "inputs": [],
      "stateMutability": "nonpayable",
      "type": "constructor"
    },
    {
      "anonymous": false,
      "inputs": [
        {
          "indexed": false,
          "internalType": "uint256",
          "name": "propertyId",
          "type": "uint256"
        },
        {
          "indexed": false,
          "internalType": "address payable",
          "name": "landlord",
          "type": "address"
        },
        {
          "indexed": false,
          "internalType": "uint256",
          "name": "price",
          "type": "uint256"
        }
      ],
      "name": "PropertyAdded",
      "type": "event"
    },
    {
      "anonymous": false,
      "inputs": [
        {
          "indexed": false,
          "internalType": "uint256",
          "name": "agreementId",
          "type": "uint256"
        },
        {
          "indexed": false,
          "internalType": "uint256",
          "name": "amount",
          "type": "uint256"
        }
      ],
      "name": "PropertyPaid",
      "type": "event"
    },
    {
      "anonymous": false,
      "inputs": [
        {
          "indexed": false,
          "internalType": "uint256",
          "name": "agreementId",
          "type": "uint256"
        },
        {
          "indexed": false,
          "internalType": "address payable",
          "name": "tenant",
          "type": "address"
        },
        {
          "indexed": false,
          "internalType": "uint256",
          "name": "houseId",
          "type": "uint256"
        },
        {
          "indexed": false,
          "internalType": "uint256",
          "name": "duration",
          "type": "uint256"
        }
      ],
      "name": "PropertyProposalRent",
      "type": "event"
    },
    {
      "anonymous": false,
      "inputs": [
        {
          "indexed": false,
          "internalType": "uint256",
          "name": "agreementId",
          "type": "uint256"
        }
      ],
      "name": "PropertyReturned",
      "type": "event"
    },
    {
      "inputs": [],
      "name": "leaseAgreementCount",
      "outputs": [
        {
          "internalType": "uint256",
          "name": "",
          "type": "uint256"
        }
      ],
      "stateMutability": "view",
      "type": "function",
      "constant": true
    },
    {
      "inputs": [
        {
          "internalType": "uint256",
          "name": "",
          "type": "uint256"
        }
      ],
      "name": "leaseAgreements",
      "outputs": [
        {
          "internalType": "uint256",
          "name": "id",
          "type": "uint256"
        },
        {
          "components": [
            {
              "internalType": "address payable",
              "name": "id",
              "type": "address"
            },
            {
              "internalType": "string",
              "name": "name",
              "type": "string"
            },
            {
              "internalType": "string",
              "name": "phoneNumber",
              "type": "string"
            },
            {
              "internalType": "string",
              "name": "email",
              "type": "string"
            }
          ],
          "internalType": "struct HousingRentalSystem.Tenant",
          "name": "tenant",
          "type": "tuple"
        },
        {
          "components": [
            {
              "internalType": "uint256",
              "name": "id",
              "type": "uint256"
            },
            {
              "components": [
                {
                  "internalType": "address payable",
                  "name": "id",
                  "type": "address"
                },
                {
                  "internalType": "string",
                  "name": "name",
                  "type": "string"
                },
                {
                  "internalType": "string",
                  "name": "phoneNumber",
                  "type": "string"
                },
                {
                  "internalType": "string",
                  "name": "email",
                  "type": "string"
                }
              ],
              "internalType": "struct HousingRentalSystem.Landlord",
              "name": "landlord",
              "type": "tuple"
            },
            {
              "internalType": "string",
              "name": "postalAddress",
              "type": "string"
            },
            {
              "internalType": "string",
              "name": "description",
              "type": "string"
            },
            {
              "internalType": "uint256",
              "name": "price",
              "type": "uint256"
            },
            {
              "internalType": "uint256",
              "name": "securityDeposit",
              "type": "uint256"
            },
            {
              "internalType": "bool",
              "name": "isRented",
              "type": "bool"
            }
          ],
          "internalType": "struct HousingRentalSystem.Property",
          "name": "property",
          "type": "tuple"
        },
        {
          "internalType": "uint256",
          "name": "leaseStart",
          "type": "uint256"
        },
        {
          "internalType": "uint256",
          "name": "leaseDuration",
          "type": "uint256"
        },
        {
          "internalType": "uint256",
          "name": "totalRentPaid",
          "type": "uint256"
        },
        {
          "internalType": "enum HousingRentalSystem.State",
          "name": "state",
          "type": "uint8"
        }
      ],
      "stateMutability": "view",
      "type": "function",
      "constant": true
    },
    {
      "inputs": [
        {
          "internalType": "uint256",
          "name": "",
          "type": "uint256"
        }
      ],
      "name": "properties",
      "outputs": [
        {
          "internalType": "uint256",
          "name": "id",
          "type": "uint256"
        },
        {
          "components": [
            {
              "internalType": "address payable",
              "name": "id",
              "type": "address"
            },
            {
              "internalType": "string",
              "name": "name",
              "type": "string"
            },
            {
              "internalType": "string",
              "name": "phoneNumber",
              "type": "string"
            },
            {
              "internalType": "string",
              "name": "email",
              "type": "string"
            }
          ],
          "internalType": "struct HousingRentalSystem.Landlord",
          "name": "landlord",
          "type": "tuple"
        },
        {
          "internalType": "string",
          "name": "postalAddress",
          "type": "string"
        },
        {
          "internalType": "string",
          "name": "description",
          "type": "string"
        },
        {
          "internalType": "uint256",
          "name": "price",
          "type": "uint256"
        },
        {
          "internalType": "uint256",
          "name": "securityDeposit",
          "type": "uint256"
        },
        {
          "internalType": "bool",
          "name": "isRented",
          "type": "bool"
        }
      ],
      "stateMutability": "view",
      "type": "function",
      "constant": true
    },
    {
      "inputs": [],
      "name": "propertiesCount",
      "outputs": [
        {
          "internalType": "uint256",
          "name": "",
          "type": "uint256"
        }
      ],
      "stateMutability": "view",
      "type": "function",
      "constant": true
    },
    {
      "inputs": [
        {
          "internalType": "uint256",
          "name": "",
          "type": "uint256"
        }
      ],
      "name": "propertiesKeys",
      "outputs": [
        {
          "internalType": "uint256",
          "name": "",
          "type": "uint256"
        }
      ],
      "stateMutability": "view",
      "type": "function",
      "constant": true
    },
    {
      "inputs": [
        {
          "internalType": "string",
          "name": "postalAddress",
          "type": "string"
        },
        {
          "internalType": "string",
          "name": "description",
          "type": "string"
        },
        {
          "internalType": "uint256",
          "name": "price",
          "type": "uint256"
        },
        {
          "internalType": "uint256",
          "name": "securityDeposit",
          "type": "uint256"
        },
        {
          "internalType": "string",
          "name": "landlordName",
          "type": "string"
        },
        {
          "internalType": "string",
          "name": "landlordPhone",
          "type": "string"
        },
        {
          "internalType": "string",
          "name": "landlordEmail",
          "type": "string"
        }
      ],
      "name": "registerProperty",
      "outputs": [],
      "stateMutability": "nonpayable",
      "type": "function"
    },
    {
      "inputs": [
        {
          "components": [
            {
              "internalType": "address payable",
              "name": "id",
              "type": "address"
            },
            {
              "internalType": "string",
              "name": "name",
              "type": "string"
            },
            {
              "internalType": "string",
              "name": "phoneNumber",
              "type": "string"
            },
            {
              "internalType": "string",
              "name": "email",
              "type": "string"
            }
          ],
          "internalType": "struct HousingRentalSystem.Tenant",
          "name": "tenant",
          "type": "tuple"
        },
        {
          "internalType": "uint256",
          "name": "propertyId",
          "type": "uint256"
        },
        {
          "internalType": "uint256",
          "name": "duration",
          "type": "uint256"
        },
        {
          "internalType": "uint256",
          "name": "deposit",
          "type": "uint256"
        }
      ],
      "name": "rentProperty",
      "outputs": [],
      "stateMutability": "payable",
      "type": "function",
      "payable": true
    },
    {
      "inputs": [],
      "name": "getRegisteredProperties",
      "outputs": [
        {
          "components": [
            {
              "internalType": "uint256",
              "name": "id",
              "type": "uint256"
            },
            {
              "components": [
                {
                  "internalType": "address payable",
                  "name": "id",
                  "type": "address"
                },
                {
                  "internalType": "string",
                  "name": "name",
                  "type": "string"
                },
                {
                  "internalType": "string",
                  "name": "phoneNumber",
                  "type": "string"
                },
                {
                  "internalType": "string",
                  "name": "email",
                  "type": "string"
                }
              ],
              "internalType": "struct HousingRentalSystem.Landlord",
              "name": "landlord",
              "type": "tuple"
            },
            {
              "internalType": "string",
              "name": "postalAddress",
              "type": "string"
            },
            {
              "internalType": "string",
              "name": "description",
              "type": "string"
            },
            {
              "internalType": "uint256",
              "name": "price",
              "type": "uint256"
            },
            {
              "internalType": "uint256",
              "name": "securityDeposit",
              "type": "uint256"
            },
            {
              "internalType": "bool",
              "name": "isRented",
              "type": "bool"
            }
          ],
          "internalType": "struct HousingRentalSystem.Property[]",
          "name": "",
          "type": "tuple[]"
        }
      ],
      "stateMutability": "view",
      "type": "function",
      "constant": true
    },
    {
      "inputs": [
        {
          "internalType": "uint256",
          "name": "agreementId",
          "type": "uint256"
        }
      ],
      "name": "acceptLeaseAgreement",
      "outputs": [],
      "stateMutability": "nonpayable",
      "type": "function"
    },
    {
      "inputs": [],
      "name": "getBalance",
      "outputs": [
        {
          "internalType": "uint256",
          "name": "",
          "type": "uint256"
        }
      ],
      "stateMutability": "view",
      "type": "function",
      "constant": true
    },
    {
      "inputs": [
        {
          "internalType": "uint256",
          "name": "agreementId",
          "type": "uint256"
        }
      ],
      "name": "payRent",
      "outputs": [],
      "stateMutability": "payable",
      "type": "function",
      "payable": true
    },
    {
      "inputs": [
        {
          "internalType": "uint256",
          "name": "agreementId",
          "type": "uint256"
        }
      ],
      "name": "returnProperty",
      "outputs": [],
      "stateMutability": "payable",
      "type": "function",
      "payable": true
    }
  ],
  "bytecode": "0x608060405234801561001057600080fd5b506000600181905550600060048190555061329e806100306000396000f3fe6080604052600436106100a75760003560e01c8063831b455d11610064578063831b455d1461019b578063909409ba146101de578063d9e8843f1461021b578063e4bc6a8714610237578063e810b5e114610253578063f7b108081461027e576100a7565b806311447e87146100ac57806312065fe0146100d75780631f29b2ae146101025780634d1f0a4e1461012b578063749f0427146101545780637db9f7a514610170575b600080fd5b3480156100b857600080fd5b506100c16102c1565b6040516100ce91906121b2565b60405180910390f35b3480156100e357600080fd5b506100ec6102c7565b6040516100f991906121b2565b60405180910390f35b34801561010e57600080fd5b5061012960048036038101906101249190612353565b6102cf565b005b34801561013757600080fd5b50610152600480360381019061014d9190612481565b610541565b005b61016e60048036038101906101699190612481565b6106bc565b005b34801561017c57600080fd5b50610185610957565b60405161019291906121b2565b60405180910390f35b3480156101a757600080fd5b506101c260048036038101906101bd9190612481565b61095d565b6040516101d597969594939291906127a4565b60405180910390f35b3480156101ea57600080fd5b5061020560048036038101906102009190612481565b610f49565b60405161021291906121b2565b60405180910390f35b61023560048036038101906102309190612481565b610f6d565b005b610251600480360381019061024c9190612923565b611104565b005b34801561025f57600080fd5b5061026861189e565b6040516102759190612b12565b60405180910390f35b34801561028a57600080fd5b506102a560048036038101906102a09190612481565b611cfe565b6040516102b89796959493929190612bfe565b60405180910390f35b60015481565b600047905090565b60008511610312576040517f08c379a000000000000000000000000000000000000000000000000000000000815260040161030990612cce565b60405180910390fd5b6001600081548092919061032590612d1d565b91905055506040518060e00160405280600154815260200160405180608001604052803373ffffffffffffffffffffffffffffffffffffffff1681526020018681526020018581526020018481525081526020018881526020018781526020018681526020018581526020016000151581525060008060015481526020019081526020016000206000820151816000015560208201518160010160008201518160000160006101000a81548173ffffffffffffffffffffffffffffffffffffffff021916908373ffffffffffffffffffffffffffffffffffffffff1602179055506020820151816001019080519060200190610422929190612073565b50604082015181600201908051906020019061043f929190612073565b50606082015181600301908051906020019061045c929190612073565b505050604082015181600501908051906020019061047b929190612073565b506060820151816006019080519060200190610498929190612073565b506080820151816007015560a0820151816008015560c08201518160090160006101000a81548160ff021916908315150217905550905050600260015490806001815401808255809150506001900390600052602060002001600090919091909150557fb6d8be5059e64702e2c7be877d9f278d0a00e059451566f3d548556ce6e2ec5e600154338760405161053093929190612d75565b60405180910390a150505050505050565b806003600082815260200190815260200160002060010160000160009054906101000a900473ffffffffffffffffffffffffffffffffffffffff1673ffffffffffffffffffffffffffffffffffffffff163373ffffffffffffffffffffffffffffffffffffffff16146105e9576040517f08c379a00000000000000000000000000000000000000000000000000000000081526004016105e090612e1e565b60405180910390fd5b600060028111156105fd576105fc61272d565b5b6003600084815260200190815260200160002060120160009054906101000a900460ff1660028111156106335761063261272d565b5b14610673576040517f08c379a000000000000000000000000000000000000000000000000000000000815260040161066a90612eb0565b60405180910390fd5b600060036000848152602001908152602001600020905060018160120160006101000a81548160ff021916908360028111156106b2576106b161272d565b5b0217905550505050565b806003600082815260200190815260200160002060010160000160009054906101000a900473ffffffffffffffffffffffffffffffffffffffff1673ffffffffffffffffffffffffffffffffffffffff163373ffffffffffffffffffffffffffffffffffffffff1614610764576040517f08c379a000000000000000000000000000000000000000000000000000000000815260040161075b90612e1e565b60405180910390fd5b60045482111580156107765750600082115b6107b5576040517f08c379a00000000000000000000000000000000000000000000000000000000081526004016107ac90612f1c565b60405180910390fd5b6000600360008481526020019081526020016000209050600160028111156107e0576107df61272d565b5b8160120160009054906101000a900460ff1660028111156108045761080361272d565b5b14610844576040517f08c379a000000000000000000000000000000000000000000000000000000000815260040161083b90612eb0565b60405180910390fd5b60028160120160006101000a81548160ff0219169083600281111561086c5761086b61272d565b5b021790555060008060008360050160000154815260200190815260200160002060090160006101000a81548160ff0219169083151502179055506000816010015460008084600001548152602001908152602001600020600701546108d19190612f3c565b90503373ffffffffffffffffffffffffffffffffffffffff166108fc829081150290604051600060405180830381858888f19350505050158015610919573d6000803e3d6000fd5b507f9335f8fc7f600a68311f5461d958a3d6ef7d362b5e7874423ab90cc39ca0c9f28460405161094991906121b2565b60405180910390a150505050565b60045481565b6003602052806000526040600020600091509050806000015490806001016040518060800160405290816000820160009054906101000a900473ffffffffffffffffffffffffffffffffffffffff1673ffffffffffffffffffffffffffffffffffffffff1673ffffffffffffffffffffffffffffffffffffffff1681526020016001820180546109ec90612fc5565b80601f0160208091040260200160405190810160405280929190818152602001828054610a1890612fc5565b8015610a655780601f10610a3a57610100808354040283529160200191610a65565b820191906000526020600020905b815481529060010190602001808311610a4857829003601f168201915b50505050508152602001600282018054610a7e90612fc5565b80601f0160208091040260200160405190810160405280929190818152602001828054610aaa90612fc5565b8015610af75780601f10610acc57610100808354040283529160200191610af7565b820191906000526020600020905b815481529060010190602001808311610ada57829003601f168201915b50505050508152602001600382018054610b1090612fc5565b80601f0160208091040260200160405190810160405280929190818152602001828054610b3c90612fc5565b8015610b895780601f10610b5e57610100808354040283529160200191610b89565b820191906000526020600020905b815481529060010190602001808311610b6c57829003601f168201915b50505050508152505090806005016040518060e001604052908160008201548152602001600182016040518060800160405290816000820160009054906101000a900473ffffffffffffffffffffffffffffffffffffffff1673ffffffffffffffffffffffffffffffffffffffff1673ffffffffffffffffffffffffffffffffffffffff168152602001600182018054610c2290612fc5565b80601f0160208091040260200160405190810160405280929190818152602001828054610c4e90612fc5565b8015610c9b5780601f10610c7057610100808354040283529160200191610c9b565b820191906000526020600020905b815481529060010190602001808311610c7e57829003601f168201915b50505050508152602001600282018054610cb490612fc5565b80601f0160208091040260200160405190810160405280929190818152602001828054610ce090612fc5565b8015610d2d5780601f10610d0257610100808354040283529160200191610d2d565b820191906000526020600020905b815481529060010190602001808311610d1057829003601f168201915b50505050508152602001600382018054610d4690612fc5565b80601f0160208091040260200160405190810160405280929190818152602001828054610d7290612fc5565b8015610dbf5780601f10610d9457610100808354040283529160200191610dbf565b820191906000526020600020905b815481529060010190602001808311610da257829003601f168201915b5050505050815250508152602001600582018054610ddc90612fc5565b80601f0160208091040260200160405190810160405280929190818152602001828054610e0890612fc5565b8015610e555780601f10610e2a57610100808354040283529160200191610e55565b820191906000526020600020905b815481529060010190602001808311610e3857829003601f168201915b50505050508152602001600682018054610e6e90612fc5565b80601f0160208091040260200160405190810160405280929190818152602001828054610e9a90612fc5565b8015610ee75780601f10610ebc57610100808354040283529160200191610ee7565b820191906000526020600020905b815481529060010190602001808311610eca57829003601f168201915b5050505050815260200160078201548152602001600882015481526020016009820160009054906101000a900460ff1615151515815250509080600f0154908060100154908060110154908060120160009054906101000a900460ff16905087565b60028181548110610f5957600080fd5b906000526020600020016000915090505481565b806003600082815260200190815260200160002060010160000160009054906101000a900473ffffffffffffffffffffffffffffffffffffffff1673ffffffffffffffffffffffffffffffffffffffff163373ffffffffffffffffffffffffffffffffffffffff1614611015576040517f08c379a000000000000000000000000000000000000000000000000000000000815260040161100c90612e1e565b60405180910390fd5b6000600360008481526020019081526020016000209050600160028111156110405761103f61272d565b5b8160120160009054906101000a900460ff1660028111156110645761106361272d565b5b146110a4576040517f08c379a000000000000000000000000000000000000000000000000000000000815260040161109b90612eb0565b60405180910390fd5b600080826000015481526020019081526020016000206007015434146110ff576040517f08c379a00000000000000000000000000000000000000000000000000000000081526004016110f690613043565b60405180910390fd5b505050565b60008060008581526020019081526020016000206040518060e001604052908160008201548152602001600182016040518060800160405290816000820160009054906101000a900473ffffffffffffffffffffffffffffffffffffffff1673ffffffffffffffffffffffffffffffffffffffff1673ffffffffffffffffffffffffffffffffffffffff1681526020016001820180546111a390612fc5565b80601f01602080910402602001604051908101604052809291908181526020018280546111cf90612fc5565b801561121c5780601f106111f15761010080835404028352916020019161121c565b820191906000526020600020905b8154815290600101906020018083116111ff57829003601f168201915b5050505050815260200160028201805461123590612fc5565b80601f016020809104026020016040519081016040528092919081815260200182805461126190612fc5565b80156112ae5780601f10611283576101008083540402835291602001916112ae565b820191906000526020600020905b81548152906001019060200180831161129157829003601f168201915b505050505081526020016003820180546112c790612fc5565b80601f01602080910402602001604051908101604052809291908181526020018280546112f390612fc5565b80156113405780601f1061131557610100808354040283529160200191611340565b820191906000526020600020905b81548152906001019060200180831161132357829003601f168201915b505050505081525050815260200160058201805461135d90612fc5565b80601f016020809104026020016040519081016040528092919081815260200182805461138990612fc5565b80156113d65780601f106113ab576101008083540402835291602001916113d6565b820191906000526020600020905b8154815290600101906020018083116113b957829003601f168201915b505050505081526020016006820180546113ef90612fc5565b80601f016020809104026020016040519081016040528092919081815260200182805461141b90612fc5565b80156114685780601f1061143d57610100808354040283529160200191611468565b820191906000526020600020905b81548152906001019060200180831161144b57829003601f168201915b5050505050815260200160078201548152602001600882015481526020016009820160009054906101000a900460ff161515151581525050905060015484111580156114b45750600084115b6114f3576040517f08c379a00000000000000000000000000000000000000000000000000000000081526004016114ea906130af565b60405180910390fd5b8060c0015115611538576040517f08c379a000000000000000000000000000000000000000000000000000000000815260040161152f9061311b565b60405180910390fd5b82600080868152602001908152602001600020600701546115599190612f3c565b341461159a576040517f08c379a000000000000000000000000000000000000000000000000000000000815260040161159190613187565b60405180910390fd5b8060a0015182146115e0576040517f08c379a00000000000000000000000000000000000000000000000000000000081526004016115d790613219565b60405180910390fd5b60018160c00190151590811515815250506004600081548092919061160490612d1d565b91905055506040518060e001604052806004548152602001868152602001828152602001428152602001848152602001600081526020016000600281111561164f5761164e61272d565b5b8152506003600060045481526020019081526020016000206000820151816000015560208201518160010160008201518160000160006101000a81548173ffffffffffffffffffffffffffffffffffffffff021916908373ffffffffffffffffffffffffffffffffffffffff16021790555060208201518160010190805190602001906116dd929190612073565b5060408201518160020190805190602001906116fa929190612073565b506060820151816003019080519060200190611717929190612073565b5050506040820151816005016000820151816000015560208201518160010160008201518160000160006101000a81548173ffffffffffffffffffffffffffffffffffffffff021916908373ffffffffffffffffffffffffffffffffffffffff1602179055506020820151816001019080519060200190611799929190612073565b5060408201518160020190805190602001906117b6929190612073565b5060608201518160030190805190602001906117d3929190612073565b50505060408201518160050190805190602001906117f2929190612073565b50606082015181600601908051906020019061180f929190612073565b506080820151816007015560a0820151816008015560c08201518160090160006101000a81548160ff0219169083151502179055505050606082015181600f01556080820151816010015560a0820151816011015560c08201518160120160006101000a81548160ff0219169083600281111561188f5761188e61272d565b5b02179055509050505050505050565b6060600060028054905067ffffffffffffffff8111156118c1576118c06121fc565b5b6040519080825280602002602001820160405280156118fa57816020015b6118e76120f9565b8152602001906001900390816118df5790505b50905060005b600280549050811015611cf6576000806002838154811061192457611923613239565b5b906000526020600020015481526020019081526020016000206040518060e001604052908160008201548152602001600182016040518060800160405290816000820160009054906101000a900473ffffffffffffffffffffffffffffffffffffffff1673ffffffffffffffffffffffffffffffffffffffff1673ffffffffffffffffffffffffffffffffffffffff1681526020016001820180546119c890612fc5565b80601f01602080910402602001604051908101604052809291908181526020018280546119f490612fc5565b8015611a415780601f10611a1657610100808354040283529160200191611a41565b820191906000526020600020905b815481529060010190602001808311611a2457829003601f168201915b50505050508152602001600282018054611a5a90612fc5565b80601f0160208091040260200160405190810160405280929190818152602001828054611a8690612fc5565b8015611ad35780601f10611aa857610100808354040283529160200191611ad3565b820191906000526020600020905b815481529060010190602001808311611ab657829003601f168201915b50505050508152602001600382018054611aec90612fc5565b80601f0160208091040260200160405190810160405280929190818152602001828054611b1890612fc5565b8015611b655780601f10611b3a57610100808354040283529160200191611b65565b820191906000526020600020905b815481529060010190602001808311611b4857829003601f168201915b5050505050815250508152602001600582018054611b8290612fc5565b80601f0160208091040260200160405190810160405280929190818152602001828054611bae90612fc5565b8015611bfb5780601f10611bd057610100808354040283529160200191611bfb565b820191906000526020600020905b815481529060010190602001808311611bde57829003601f168201915b50505050508152602001600682018054611c1490612fc5565b80601f0160208091040260200160405190810160405280929190818152602001828054611c4090612fc5565b8015611c8d5780601f10611c6257610100808354040283529160200191611c8d565b820191906000526020600020905b815481529060010190602001808311611c7057829003601f168201915b5050505050815260200160078201548152602001600882015481526020016009820160009054906101000a900460ff161515151581525050828281518110611cd857611cd7613239565b5b60200260200101819052508080611cee90612d1d565b915050611900565b508091505090565b6000602052806000526040600020600091509050806000015490806001016040518060800160405290816000820160009054906101000a900473ffffffffffffffffffffffffffffffffffffffff1673ffffffffffffffffffffffffffffffffffffffff1673ffffffffffffffffffffffffffffffffffffffff168152602001600182018054611d8d90612fc5565b80601f0160208091040260200160405190810160405280929190818152602001828054611db990612fc5565b8015611e065780601f10611ddb57610100808354040283529160200191611e06565b820191906000526020600020905b815481529060010190602001808311611de957829003601f168201915b50505050508152602001600282018054611e1f90612fc5565b80601f0160208091040260200160405190810160405280929190818152602001828054611e4b90612fc5565b8015611e985780601f10611e6d57610100808354040283529160200191611e98565b820191906000526020600020905b815481529060010190602001808311611e7b57829003601f168201915b50505050508152602001600382018054611eb190612fc5565b80601f0160208091040260200160405190810160405280929190818152602001828054611edd90612fc5565b8015611f2a5780601f10611eff57610100808354040283529160200191611f2a565b820191906000526020600020905b815481529060010190602001808311611f0d57829003601f168201915b50505050508152505090806005018054611f4390612fc5565b80601f0160208091040260200160405190810160405280929190818152602001828054611f6f90612fc5565b8015611fbc5780601f10611f9157610100808354040283529160200191611fbc565b820191906000526020600020905b815481529060010190602001808311611f9f57829003601f168201915b505050505090806006018054611fd190612fc5565b80601f0160208091040260200160405190810160405280929190818152602001828054611ffd90612fc5565b801561204a5780601f1061201f5761010080835404028352916020019161204a565b820191906000526020600020905b81548152906001019060200180831161202d57829003601f168201915b5050505050908060070154908060080154908060090160009054906101000a900460ff16905087565b82805461207f90612fc5565b90600052602060002090601f0160209004810192826120a157600085556120e8565b82601f106120ba57805160ff19168380011785556120e8565b828001600101855582156120e8579182015b828111156120e75782518255916020019190600101906120cc565b5b5090506120f5919061213e565b5090565b6040518060e001604052806000815260200161211361215b565b8152602001606081526020016060815260200160008152602001600081526020016000151581525090565b5b8082111561215757600081600090555060010161213f565b5090565b6040518060800160405280600073ffffffffffffffffffffffffffffffffffffffff1681526020016060815260200160608152602001606081525090565b6000819050919050565b6121ac81612199565b82525050565b60006020820190506121c760008301846121a3565b92915050565b6000604051905090565b600080fd5b600080fd5b600080fd5b600080fd5b6000601f19601f8301169050919050565b7f4e487b7100000000000000000000000000000000000000000000000000000000600052604160045260246000fd5b612234826121eb565b810181811067ffffffffffffffff82111715612253576122526121fc565b5b80604052505050565b60006122666121cd565b9050612272828261222b565b919050565b600067ffffffffffffffff821115612292576122916121fc565b5b61229b826121eb565b9050602081019050919050565b82818337600083830152505050565b60006122ca6122c584612277565b61225c565b9050828152602081018484840111156122e6576122e56121e6565b5b6122f18482856122a8565b509392505050565b600082601f83011261230e5761230d6121e1565b5b813561231e8482602086016122b7565b91505092915050565b61233081612199565b811461233b57600080fd5b50565b60008135905061234d81612327565b92915050565b600080600080600080600060e0888a031215612372576123716121d7565b5b600088013567ffffffffffffffff8111156123905761238f6121dc565b5b61239c8a828b016122f9565b975050602088013567ffffffffffffffff8111156123bd576123bc6121dc565b5b6123c98a828b016122f9565b96505060406123da8a828b0161233e565b95505060606123eb8a828b0161233e565b945050608088013567ffffffffffffffff81111561240c5761240b6121dc565b5b6124188a828b016122f9565b93505060a088013567ffffffffffffffff811115612439576124386121dc565b5b6124458a828b016122f9565b92505060c088013567ffffffffffffffff811115612466576124656121dc565b5b6124728a828b016122f9565b91505092959891949750929550565b600060208284031215612497576124966121d7565b5b60006124a58482850161233e565b91505092915050565b600073ffffffffffffffffffffffffffffffffffffffff82169050919050565b60006124d9826124ae565b9050919050565b6124e9816124ce565b82525050565b600081519050919050565b600082825260208201905092915050565b60005b8381101561252957808201518184015260208101905061250e565b83811115612538576000848401525b50505050565b6000612549826124ef565b61255381856124fa565b935061256381856020860161250b565b61256c816121eb565b840191505092915050565b600060808301600083015161258f60008601826124e0565b50602083015184820360208601526125a7828261253e565b915050604083015184820360408601526125c1828261253e565b915050606083015184820360608601526125db828261253e565b9150508091505092915050565b6125f181612199565b82525050565b600060808301600083015161260f60008601826124e0565b5060208301518482036020860152612627828261253e565b91505060408301518482036040860152612641828261253e565b9150506060830151848203606086015261265b828261253e565b9150508091505092915050565b60008115159050919050565b61267d81612668565b82525050565b600060e08301600083015161269b60008601826125e8565b50602083015184820360208601526126b382826125f7565b915050604083015184820360408601526126cd828261253e565b915050606083015184820360608601526126e7828261253e565b91505060808301516126fc60808601826125e8565b5060a083015161270f60a08601826125e8565b5060c083015161272260c0860182612674565b508091505092915050565b7f4e487b7100000000000000000000000000000000000000000000000000000000600052602160045260246000fd5b6003811061276d5761276c61272d565b5b50565b600081905061277e8261275c565b919050565b600061278e82612770565b9050919050565b61279e81612783565b82525050565b600060e0820190506127b9600083018a6121a3565b81810360208301526127cb8189612577565b905081810360408301526127df8188612683565b90506127ee60608301876121a3565b6127fb60808301866121a3565b61280860a08301856121a3565b61281560c0830184612795565b98975050505050505050565b600080fd5b600080fd5b612834816124ce565b811461283f57600080fd5b50565b6000813590506128518161282b565b92915050565b60006080828403121561286d5761286c612821565b5b612877608061225c565b9050600061288784828501612842565b600083015250602082013567ffffffffffffffff8111156128ab576128aa612826565b5b6128b7848285016122f9565b602083015250604082013567ffffffffffffffff8111156128db576128da612826565b5b6128e7848285016122f9565b604083015250606082013567ffffffffffffffff81111561290b5761290a612826565b5b612917848285016122f9565b60608301525092915050565b6000806000806080858703121561293d5761293c6121d7565b5b600085013567ffffffffffffffff81111561295b5761295a6121dc565b5b61296787828801612857565b94505060206129788782880161233e565b93505060406129898782880161233e565b925050606061299a8782880161233e565b91505092959194509250565b600081519050919050565b600082825260208201905092915050565b6000819050602082019050919050565b600060e0830160008301516129ea60008601826125e8565b5060208301518482036020860152612a0282826125f7565b91505060408301518482036040860152612a1c828261253e565b91505060608301518482036060860152612a36828261253e565b9150506080830151612a4b60808601826125e8565b5060a0830151612a5e60a08601826125e8565b5060c0830151612a7160c0860182612674565b508091505092915050565b6000612a8883836129d2565b905092915050565b6000602082019050919050565b6000612aa8826129a6565b612ab281856129b1565b935083602082028501612ac4856129c2565b8060005b85811015612b005784840389528151612ae18582612a7c565b9450612aec83612a90565b925060208a01995050600181019050612ac8565b50829750879550505050505092915050565b60006020820190508181036000830152612b2c8184612a9d565b905092915050565b6000608083016000830151612b4c60008601826124e0565b5060208301518482036020860152612b64828261253e565b91505060408301518482036040860152612b7e828261253e565b91505060608301518482036060860152612b98828261253e565b9150508091505092915050565b600082825260208201905092915050565b6000612bc1826124ef565b612bcb8185612ba5565b9350612bdb81856020860161250b565b612be4816121eb565b840191505092915050565b612bf881612668565b82525050565b600060e082019050612c13600083018a6121a3565b8181036020830152612c258189612b34565b90508181036040830152612c398188612bb6565b90508181036060830152612c4d8187612bb6565b9050612c5c60808301866121a3565b612c6960a08301856121a3565b612c7660c0830184612bef565b98975050505050505050565b7f5072696365206d7573742062652067726561746572207468616e203000000000600082015250565b6000612cb8601c83612ba5565b9150612cc382612c82565b602082019050919050565b60006020820190508181036000830152612ce781612cab565b9050919050565b7f4e487b7100000000000000000000000000000000000000000000000000000000600052601160045260246000fd5b6000612d2882612199565b91507fffffffffffffffffffffffffffffffffffffffffffffffffffffffffffffffff821415612d5b57612d5a612cee565b5b600182019050919050565b612d6f816124ce565b82525050565b6000606082019050612d8a60008301866121a3565b612d976020830185612d66565b612da460408301846121a3565b949350505050565b7f4f6e6c79207468652074656e616e742063616e20706572666f726d207468697360008201527f20616374696f6e00000000000000000000000000000000000000000000000000602082015250565b6000612e08602783612ba5565b9150612e1382612dac565b604082019050919050565b60006020820190508181036000830152612e3781612dfb565b9050919050565b7f4c6561736541677265656d656e7420697320696e20616e20696e76616c69642060008201527f7374617465000000000000000000000000000000000000000000000000000000602082015250565b6000612e9a602583612ba5565b9150612ea582612e3e565b604082019050919050565b60006020820190508181036000830152612ec981612e8d565b9050919050565b7f496e76616c69642061677265656d656e74204944000000000000000000000000600082015250565b6000612f06601483612ba5565b9150612f1182612ed0565b602082019050919050565b60006020820190508181036000830152612f3581612ef9565b9050919050565b6000612f4782612199565b9150612f5283612199565b9250817fffffffffffffffffffffffffffffffffffffffffffffffffffffffffffffffff0483118215151615612f8b57612f8a612cee565b5b828202905092915050565b7f4e487b7100000000000000000000000000000000000000000000000000000000600052602260045260246000fd5b60006002820490506001821680612fdd57607f821691505b60208210811415612ff157612ff0612f96565b5b50919050565b7f496e636f72726563742052656e7420616d6f756e740000000000000000000000600082015250565b600061302d601583612ba5565b915061303882612ff7565b602082019050919050565b6000602082019050818103600083015261305c81613020565b9050919050565b7f496e76616c69642070726f706572747920494400000000000000000000000000600082015250565b6000613099601383612ba5565b91506130a482613063565b602082019050919050565b600060208201905081810360008301526130c88161308c565b9050919050565b7f50726f706572747920697320616c72656164792072656e746564000000000000600082015250565b6000613105601a83612ba5565b9150613110826130cf565b602082019050919050565b60006020820190508181036000830152613134816130f8565b9050919050565b7f496e73756666696369656e74207061796d656e74000000000000000000000000600082015250565b6000613171601483612ba5565b915061317c8261313b565b602082019050919050565b600060208201905081810360008301526131a081613164565b9050919050565b7f4465706f73697420646f6573206e6f74206d6174636820746f2074686520707260008201527f6f7065727479206465706f736974000000000000000000000000000000000000602082015250565b6000613203602e83612ba5565b915061320e826131a7565b604082019050919050565b60006020820190508181036000830152613232816131f6565b9050919050565b7f4e487b7100000000000000000000000000000000000000000000000000000000600052603260045260246000fdfea2646970667358221220ea00d1601711f32cdc9295681a89ff631a9a312d525ea9701954d7a4ba0145f064736f6c634300080a0033",
  "immutableReferences": {},
  "source": "// SPDX-License-Identifier: GPL-3.0\r\npragma solidity ^0.8.10;\r\n\r\ncontract HousingRentalSystem {\r\n  enum State {\r\n    Created,\r\n    Started,\r\n    Terminated\r\n  }\r\n\r\n  struct Landlord {\r\n    address payable id;\r\n    string name;\r\n    string phoneNumber;\r\n    string email;\r\n  }\r\n\r\n  struct Tenant {\r\n    address payable id;\r\n    string name;\r\n    string phoneNumber;\r\n    string email;\r\n  }\r\n\r\n  struct Property {\r\n    uint256 id;\r\n    Landlord landlord;\r\n    string postalAddress;\r\n    string description;\r\n    uint price;\r\n    uint securityDeposit;\r\n    bool isRented;\r\n  }\r\n\r\n  struct LeaseAgreement {\r\n    uint256 id;\r\n    Tenant tenant;\r\n    Property property;\r\n    uint leaseStart;\r\n    uint leaseDuration;\r\n    uint totalRentPaid;\r\n    State state;\r\n  }\r\n\r\n  mapping(uint256 => Property) public properties;\r\n  uint256 public propertiesCount;\r\n  uint256[] public propertiesKeys;\r\n  mapping(uint256 => LeaseAgreement) public leaseAgreements;\r\n  uint256 public leaseAgreementCount;\r\n\r\n  event PropertyAdded(uint256 propertyId, address payable landlord, uint256 price);\r\n  event PropertyReturned(uint256 agreementId);\r\n  event PropertyProposalRent(uint256 agreementId, address payable tenant, uint256 houseId, uint256 duration);\r\n  event PropertyPaid(uint256 agreementId, uint256 amount);\r\n\r\n  constructor() {\r\n    propertiesCount = 0;\r\n    leaseAgreementCount = 0;\r\n  }\r\n\r\n  function registerProperty(\r\n    string memory postalAddress,\r\n    string memory description,\r\n    uint price,\r\n    uint securityDeposit,\r\n    string memory landlordName,\r\n    string memory landlordPhone,\r\n    string memory landlordEmail\r\n  ) external {\r\n    require(price > 0, 'Price must be greater than 0');\r\n    propertiesCount++;\r\n    properties[propertiesCount] = Property({\r\n      id: propertiesCount,\r\n      landlord: Landlord({ id: payable(msg.sender), name: landlordName, phoneNumber: landlordPhone, email: landlordEmail }),\r\n      description: description,\r\n      postalAddress: postalAddress,\r\n      price: price,\r\n      securityDeposit: securityDeposit,\r\n      isRented: false\r\n    });\r\n    propertiesKeys.push(propertiesCount);\r\n    emit PropertyAdded(propertiesCount, payable(msg.sender), price);\r\n  }\r\n\r\n  function rentProperty(Tenant memory tenant, uint256 propertyId, uint256 duration, uint256 deposit) external payable {\r\n    Property memory property = properties[propertyId];\r\n    require(propertyId <= propertiesCount && propertyId > 0, 'Invalid property ID');\r\n    require(!property.isRented, 'Property is already rented');\r\n    require(msg.value == properties[propertyId].price * duration, 'Insufficient payment');\r\n    require(deposit == property.securityDeposit, 'Deposit does not match to the property deposit');\r\n    property.isRented = true;\r\n    leaseAgreementCount++;\r\n\r\n    leaseAgreements[leaseAgreementCount] = LeaseAgreement({\r\n      id: leaseAgreementCount,\r\n      tenant: tenant,\r\n      property: property,\r\n      leaseStart: block.timestamp,\r\n      leaseDuration: duration,\r\n      totalRentPaid: 0,\r\n      state: State.Created\r\n    });\r\n  }\r\n\r\n  function getRegisteredProperties() external view returns (Property[] memory) {\r\n    Property[] memory result = new Property[](propertiesKeys.length);\r\n    for (uint256 i = 0; i < propertiesKeys.length; i++) {\r\n      result[i] = properties[propertiesKeys[i]];\r\n    }\r\n    return result;\r\n  }\r\n\r\n  modifier onlyTenant(uint256 agreementId) {\r\n    require(msg.sender == leaseAgreements[agreementId].tenant.id, 'Only the tenant can perform this action');\r\n    _;\r\n  }\r\n\r\n  function acceptLeaseAgreement(uint256 agreementId) external onlyTenant(agreementId) {\r\n    require(leaseAgreements[agreementId].state == State.Created, 'LeaseAgreement is in an invalid state');\r\n    LeaseAgreement storage agreement = leaseAgreements[agreementId];\r\n    agreement.state = State.Started;\r\n  }\r\n\r\n  function getBalance() external view returns (uint256) {\r\n    return address(this).balance;\r\n  }\r\n\r\n  function payRent(uint256 agreementId) external payable onlyTenant(agreementId) {\r\n    LeaseAgreement storage agreement = leaseAgreements[agreementId];\r\n    require(agreement.state == State.Started, 'LeaseAgreement is in an invalid state');\r\n    require(msg.value == properties[agreement.id].price, 'Incorrect Rent amount');\r\n  }\r\n\r\n  function returnProperty(uint256 agreementId) external payable onlyTenant(agreementId) {\r\n    require(agreementId <= leaseAgreementCount && agreementId > 0, 'Invalid agreement ID');\r\n    LeaseAgreement storage agreement = leaseAgreements[agreementId];\r\n    require(agreement.state == State.Started, 'LeaseAgreement is in an invalid state');\r\n    agreement.state = State.Terminated;\r\n    properties[agreement.property.id].isRented = false;\r\n    uint256 rentAmount = properties[agreement.id].price * agreement.leaseDuration;\r\n    payable(msg.sender).transfer(rentAmount);\r\n    emit PropertyReturned(agreementId);\r\n  }\r\n}\r\n",
  "sourcePath": "C:\\Users\\UO251408\\Desktop\\block_chain\\housing-rental-backend\\contracts\\HousingRentalSystem.sol",
  "compiler": {
    "name": "solc",
    "version": "0.8.10+commit.fc410830.Emscripten.clang"
  },
  "schemaVersion": "3.4.12",
  "updatedAt": "2023-07-19T22:27:30.832Z",
  "networkType": "ethereum",
  "devdoc": {
    "kind": "dev",
    "methods": {},
    "version": 1
  },
  "userdoc": {
    "kind": "user",
    "methods": {},
    "version": 1
  }
}