{
  "contractName": "HousingRentalSystem",
  "abi": [
    {
      "inputs": [],
      "stateMutability": "nonpayable",
      "type": "constructor"
    },
    {
      "anonymous": false,
      "inputs": [
        {
          "indexed": false,
          "internalType": "uint256",
          "name": "leaseAgreementCount",
          "type": "uint256"
        },
        {
          "indexed": false,
          "internalType": "address payable",
          "name": "tenant",
          "type": "address"
        },
        {
          "indexed": false,
          "internalType": "uint256",
          "name": "propertyId",
          "type": "uint256"
        }
      ],
      "name": "LeaseAgreementProposal",
      "type": "event"
    },
    {
      "anonymous": false,
      "inputs": [
        {
          "indexed": false,
          "internalType": "uint256",
          "name": "propertyId",
          "type": "uint256"
        },
        {
          "indexed": false,
          "internalType": "address payable",
          "name": "landlord",
          "type": "address"
        },
        {
          "indexed": false,
          "internalType": "uint256",
          "name": "price",
          "type": "uint256"
        }
      ],
      "name": "PropertyAdded",
      "type": "event"
    },
    {
      "anonymous": false,
      "inputs": [
        {
          "indexed": false,
          "internalType": "uint256",
          "name": "agreementId",
          "type": "uint256"
        },
        {
          "indexed": false,
          "internalType": "uint256",
          "name": "amount",
          "type": "uint256"
        }
      ],
      "name": "PropertyPaid",
      "type": "event"
    },
    {
      "anonymous": false,
      "inputs": [
        {
          "indexed": false,
          "internalType": "uint256",
          "name": "agreementId",
          "type": "uint256"
        },
        {
          "indexed": false,
          "internalType": "address payable",
          "name": "tenant",
          "type": "address"
        },
        {
          "indexed": false,
          "internalType": "uint256",
          "name": "houseId",
          "type": "uint256"
        },
        {
          "indexed": false,
          "internalType": "uint256",
          "name": "duration",
          "type": "uint256"
        }
      ],
      "name": "PropertyProposalRent",
      "type": "event"
    },
    {
      "anonymous": false,
      "inputs": [
        {
          "indexed": false,
          "internalType": "uint256",
          "name": "agreementId",
          "type": "uint256"
        }
      ],
      "name": "PropertyReturned",
      "type": "event"
    },
    {
      "inputs": [],
      "name": "leaseAgreementCount",
      "outputs": [
        {
          "internalType": "uint256",
          "name": "",
          "type": "uint256"
        }
      ],
      "stateMutability": "view",
      "type": "function",
      "constant": true
    },
    {
      "inputs": [
        {
          "internalType": "uint256",
          "name": "",
          "type": "uint256"
        }
      ],
      "name": "leaseAgreementKeys",
      "outputs": [
        {
          "internalType": "uint256",
          "name": "",
          "type": "uint256"
        }
      ],
      "stateMutability": "view",
      "type": "function",
      "constant": true
    },
    {
      "inputs": [
        {
          "internalType": "uint256",
          "name": "",
          "type": "uint256"
        }
      ],
      "name": "leaseAgreements",
      "outputs": [
        {
          "internalType": "uint256",
          "name": "id",
          "type": "uint256"
        },
        {
          "components": [
            {
              "internalType": "address payable",
              "name": "id",
              "type": "address"
            },
            {
              "internalType": "string",
              "name": "name",
              "type": "string"
            },
            {
              "internalType": "string",
              "name": "phoneNumber",
              "type": "string"
            },
            {
              "internalType": "string",
              "name": "email",
              "type": "string"
            }
          ],
          "internalType": "struct HousingRentalSystem.Tenant",
          "name": "tenant",
          "type": "tuple"
        },
        {
          "components": [
            {
              "internalType": "uint256",
              "name": "id",
              "type": "uint256"
            },
            {
              "components": [
                {
                  "internalType": "address payable",
                  "name": "id",
                  "type": "address"
                },
                {
                  "internalType": "string",
                  "name": "name",
                  "type": "string"
                },
                {
                  "internalType": "string",
                  "name": "phoneNumber",
                  "type": "string"
                },
                {
                  "internalType": "string",
                  "name": "email",
                  "type": "string"
                }
              ],
              "internalType": "struct HousingRentalSystem.Landlord",
              "name": "landlord",
              "type": "tuple"
            },
            {
              "internalType": "string",
              "name": "postalAddress",
              "type": "string"
            },
            {
              "internalType": "string",
              "name": "description",
              "type": "string"
            },
            {
              "internalType": "uint256",
              "name": "price",
              "type": "uint256"
            },
            {
              "internalType": "uint256",
              "name": "securityDeposit",
              "type": "uint256"
            },
            {
              "internalType": "bool",
              "name": "isRented",
              "type": "bool"
            }
          ],
          "internalType": "struct HousingRentalSystem.Property",
          "name": "property",
          "type": "tuple"
        },
        {
          "internalType": "uint256",
          "name": "leaseStart",
          "type": "uint256"
        },
        {
          "internalType": "uint256",
          "name": "leaseDuration",
          "type": "uint256"
        },
        {
          "internalType": "uint256",
          "name": "totalRentPaid",
          "type": "uint256"
        },
        {
          "internalType": "enum HousingRentalSystem.State",
          "name": "state",
          "type": "uint8"
        }
      ],
      "stateMutability": "view",
      "type": "function",
      "constant": true
    },
    {
      "inputs": [
        {
          "internalType": "uint256",
          "name": "",
          "type": "uint256"
        }
      ],
      "name": "properties",
      "outputs": [
        {
          "internalType": "uint256",
          "name": "id",
          "type": "uint256"
        },
        {
          "components": [
            {
              "internalType": "address payable",
              "name": "id",
              "type": "address"
            },
            {
              "internalType": "string",
              "name": "name",
              "type": "string"
            },
            {
              "internalType": "string",
              "name": "phoneNumber",
              "type": "string"
            },
            {
              "internalType": "string",
              "name": "email",
              "type": "string"
            }
          ],
          "internalType": "struct HousingRentalSystem.Landlord",
          "name": "landlord",
          "type": "tuple"
        },
        {
          "internalType": "string",
          "name": "postalAddress",
          "type": "string"
        },
        {
          "internalType": "string",
          "name": "description",
          "type": "string"
        },
        {
          "internalType": "uint256",
          "name": "price",
          "type": "uint256"
        },
        {
          "internalType": "uint256",
          "name": "securityDeposit",
          "type": "uint256"
        },
        {
          "internalType": "bool",
          "name": "isRented",
          "type": "bool"
        }
      ],
      "stateMutability": "view",
      "type": "function",
      "constant": true
    },
    {
      "inputs": [],
      "name": "propertiesCount",
      "outputs": [
        {
          "internalType": "uint256",
          "name": "",
          "type": "uint256"
        }
      ],
      "stateMutability": "view",
      "type": "function",
      "constant": true
    },
    {
      "inputs": [
        {
          "internalType": "uint256",
          "name": "",
          "type": "uint256"
        }
      ],
      "name": "propertiesKeys",
      "outputs": [
        {
          "internalType": "uint256",
          "name": "",
          "type": "uint256"
        }
      ],
      "stateMutability": "view",
      "type": "function",
      "constant": true
    },
    {
      "inputs": [
        {
          "internalType": "string",
          "name": "fileName",
          "type": "string"
        },
        {
          "internalType": "string",
          "name": "ipfsHash",
          "type": "string"
        },
        {
          "internalType": "address",
          "name": "tenant",
          "type": "address"
        }
      ],
      "name": "uploadFile",
      "outputs": [],
      "stateMutability": "nonpayable",
      "type": "function"
    },
    {
      "inputs": [
        {
          "internalType": "string",
          "name": "fileName",
          "type": "string"
        }
      ],
      "name": "getIPFSHash",
      "outputs": [
        {
          "internalType": "string",
          "name": "",
          "type": "string"
        }
      ],
      "stateMutability": "view",
      "type": "function",
      "constant": true
    },
    {
      "inputs": [
        {
          "internalType": "string",
          "name": "postalAddress",
          "type": "string"
        },
        {
          "internalType": "string",
          "name": "description",
          "type": "string"
        },
        {
          "internalType": "uint256",
          "name": "price",
          "type": "uint256"
        },
        {
          "internalType": "uint256",
          "name": "securityDeposit",
          "type": "uint256"
        },
        {
          "internalType": "string",
          "name": "landlordName",
          "type": "string"
        },
        {
          "internalType": "string",
          "name": "landlordPhone",
          "type": "string"
        },
        {
          "internalType": "string",
          "name": "landlordEmail",
          "type": "string"
        }
      ],
      "name": "registerProperty",
      "outputs": [],
      "stateMutability": "nonpayable",
      "type": "function"
    },
    {
      "inputs": [
        {
          "components": [
            {
              "internalType": "address payable",
              "name": "id",
              "type": "address"
            },
            {
              "internalType": "string",
              "name": "name",
              "type": "string"
            },
            {
              "internalType": "string",
              "name": "phoneNumber",
              "type": "string"
            },
            {
              "internalType": "string",
              "name": "email",
              "type": "string"
            }
          ],
          "internalType": "struct HousingRentalSystem.Tenant",
          "name": "tenant",
          "type": "tuple"
        },
        {
          "internalType": "uint256",
          "name": "propertyId",
          "type": "uint256"
        },
        {
          "internalType": "uint256",
          "name": "duration",
          "type": "uint256"
        },
        {
          "internalType": "uint256",
          "name": "deposit",
          "type": "uint256"
        }
      ],
      "name": "rentProperty",
      "outputs": [],
      "stateMutability": "payable",
      "type": "function",
      "payable": true
    },
    {
      "inputs": [
        {
          "internalType": "uint256",
          "name": "propertyId",
          "type": "uint256"
        },
        {
          "internalType": "bool",
          "name": "rented",
          "type": "bool"
        }
      ],
      "name": "setPropertyRented",
      "outputs": [],
      "stateMutability": "nonpayable",
      "type": "function"
    },
    {
      "inputs": [],
      "name": "getRegisteredProperties",
      "outputs": [
        {
          "components": [
            {
              "internalType": "uint256",
              "name": "id",
              "type": "uint256"
            },
            {
              "components": [
                {
                  "internalType": "address payable",
                  "name": "id",
                  "type": "address"
                },
                {
                  "internalType": "string",
                  "name": "name",
                  "type": "string"
                },
                {
                  "internalType": "string",
                  "name": "phoneNumber",
                  "type": "string"
                },
                {
                  "internalType": "string",
                  "name": "email",
                  "type": "string"
                }
              ],
              "internalType": "struct HousingRentalSystem.Landlord",
              "name": "landlord",
              "type": "tuple"
            },
            {
              "internalType": "string",
              "name": "postalAddress",
              "type": "string"
            },
            {
              "internalType": "string",
              "name": "description",
              "type": "string"
            },
            {
              "internalType": "uint256",
              "name": "price",
              "type": "uint256"
            },
            {
              "internalType": "uint256",
              "name": "securityDeposit",
              "type": "uint256"
            },
            {
              "internalType": "bool",
              "name": "isRented",
              "type": "bool"
            }
          ],
          "internalType": "struct HousingRentalSystem.Property[]",
          "name": "",
          "type": "tuple[]"
        }
      ],
      "stateMutability": "view",
      "type": "function",
      "constant": true
    },
    {
      "inputs": [],
      "name": "getRegisteredLeaseAgreement",
      "outputs": [
        {
          "components": [
            {
              "internalType": "uint256",
              "name": "id",
              "type": "uint256"
            },
            {
              "components": [
                {
                  "internalType": "address payable",
                  "name": "id",
                  "type": "address"
                },
                {
                  "internalType": "string",
                  "name": "name",
                  "type": "string"
                },
                {
                  "internalType": "string",
                  "name": "phoneNumber",
                  "type": "string"
                },
                {
                  "internalType": "string",
                  "name": "email",
                  "type": "string"
                }
              ],
              "internalType": "struct HousingRentalSystem.Tenant",
              "name": "tenant",
              "type": "tuple"
            },
            {
              "components": [
                {
                  "internalType": "uint256",
                  "name": "id",
                  "type": "uint256"
                },
                {
                  "components": [
                    {
                      "internalType": "address payable",
                      "name": "id",
                      "type": "address"
                    },
                    {
                      "internalType": "string",
                      "name": "name",
                      "type": "string"
                    },
                    {
                      "internalType": "string",
                      "name": "phoneNumber",
                      "type": "string"
                    },
                    {
                      "internalType": "string",
                      "name": "email",
                      "type": "string"
                    }
                  ],
                  "internalType": "struct HousingRentalSystem.Landlord",
                  "name": "landlord",
                  "type": "tuple"
                },
                {
                  "internalType": "string",
                  "name": "postalAddress",
                  "type": "string"
                },
                {
                  "internalType": "string",
                  "name": "description",
                  "type": "string"
                },
                {
                  "internalType": "uint256",
                  "name": "price",
                  "type": "uint256"
                },
                {
                  "internalType": "uint256",
                  "name": "securityDeposit",
                  "type": "uint256"
                },
                {
                  "internalType": "bool",
                  "name": "isRented",
                  "type": "bool"
                }
              ],
              "internalType": "struct HousingRentalSystem.Property",
              "name": "property",
              "type": "tuple"
            },
            {
              "internalType": "uint256",
              "name": "leaseStart",
              "type": "uint256"
            },
            {
              "internalType": "uint256",
              "name": "leaseDuration",
              "type": "uint256"
            },
            {
              "internalType": "uint256",
              "name": "totalRentPaid",
              "type": "uint256"
            },
            {
              "internalType": "enum HousingRentalSystem.State",
              "name": "state",
              "type": "uint8"
            }
          ],
          "internalType": "struct HousingRentalSystem.LeaseAgreement[]",
          "name": "",
          "type": "tuple[]"
        }
      ],
      "stateMutability": "view",
      "type": "function",
      "constant": true
    },
    {
      "inputs": [
        {
          "internalType": "uint256",
          "name": "agreementId",
          "type": "uint256"
        }
      ],
      "name": "acceptLeaseAgreement",
      "outputs": [],
      "stateMutability": "nonpayable",
      "type": "function"
    },
    {
      "inputs": [],
      "name": "getBalance",
      "outputs": [
        {
          "internalType": "uint256",
          "name": "",
          "type": "uint256"
        }
      ],
      "stateMutability": "view",
      "type": "function",
      "constant": true
    },
    {
      "inputs": [
        {
          "internalType": "uint256",
          "name": "agreementId",
          "type": "uint256"
        }
      ],
      "name": "payRent",
      "outputs": [],
      "stateMutability": "payable",
      "type": "function",
      "payable": true
    },
    {
      "inputs": [
        {
          "internalType": "uint256",
          "name": "agreementId",
          "type": "uint256"
        }
      ],
      "name": "returnProperty",
      "outputs": [],
      "stateMutability": "payable",
      "type": "function",
      "payable": true
    }
  ],
  "bytecode": "0x608060405234801561001057600080fd5b50600060018190555060006004819055506147eb806100306000396000f3fe6080604052600436106100fe5760003560e01c8063831b455d11610095578063cdba8e0e11610064578063cdba8e0e14610340578063d9e8843f14610369578063e4bc6a8714610385578063e810b5e1146103a1578063f7b10808146103cc576100fe565b8063831b455d14610258578063909409ba1461029b578063932353a2146102d85780639f81311d14610303576100fe565b80634a5f66c1116100d15780634a5f66c1146101ab5780634d1f0a4e146101e8578063749f0427146102115780637db9f7a51461022d576100fe565b806311447e87146101035780631187b9361461012e57806312065fe0146101575780631f29b2ae14610182575b600080fd5b34801561010f57600080fd5b5061011861040f565b60405161012591906130b3565b60405180910390f35b34801561013a57600080fd5b5061015560048036038101906101509190613146565b610415565b005b34801561016357600080fd5b5061016c610489565b60405161017991906130b3565b60405180910390f35b34801561018e57600080fd5b506101a960048036038101906101a491906132cc565b610491565b005b3480156101b757600080fd5b506101d260048036038101906101cd91906133fa565b610703565b6040516101df91906134cb565b60405180910390f35b3480156101f457600080fd5b5061020f600480360381019061020a91906134ed565b61094c565b005b61022b600480360381019061022691906134ed565b610b18565b005b34801561023957600080fd5b50610242610e15565b60405161024f91906130b3565b60405180910390f35b34801561026457600080fd5b5061027f600480360381019061027a91906134ed565b610e1b565b60405161029297969594939291906137c6565b60405180910390f35b3480156102a757600080fd5b506102c260048036038101906102bd91906134ed565b611407565b6040516102cf91906130b3565b60405180910390f35b3480156102e457600080fd5b506102ed61142b565b6040516102fa9190613ad2565b60405180910390f35b34801561030f57600080fd5b5061032a600480360381019061032591906134ed565b611b23565b60405161033791906130b3565b60405180910390f35b34801561034c57600080fd5b5061036760048036038101906103629190613b32565b611b47565b005b610383600480360381019061037e91906134ed565b611d02565b005b61039f600480360381019061039a9190613cbf565b611f15565b005b3480156103ad57600080fd5b506103b6612706565b6040516103c39190613e04565b60405180910390f35b3480156103d857600080fd5b506103f360048036038101906103ee91906134ed565b612b66565b6040516104069796959493929190613ea6565b60405180910390f35b60015481565b60008211610458576040517f08c379a000000000000000000000000000000000000000000000000000000000815260040161044f90613f76565b60405180910390fd5b8060008084815260200190815260200160002060090160006101000a81548160ff0219169083151502179055505050565b600047905090565b600085116104d4576040517f08c379a00000000000000000000000000000000000000000000000000000000081526004016104cb90613fe2565b60405180910390fd5b600160008154809291906104e790614031565b91905055506040518060e00160405280600154815260200160405180608001604052803373ffffffffffffffffffffffffffffffffffffffff1681526020018681526020018581526020018481525081526020018881526020018781526020018681526020018581526020016000151581525060008060015481526020019081526020016000206000820151816000015560208201518160010160008201518160000160006101000a81548173ffffffffffffffffffffffffffffffffffffffff021916908373ffffffffffffffffffffffffffffffffffffffff16021790555060208201518160010190805190602001906105e4929190612edb565b506040820151816002019080519060200190610601929190612edb565b50606082015181600301908051906020019061061e929190612edb565b505050604082015181600501908051906020019061063d929190612edb565b50606082015181600601908051906020019061065a929190612edb565b506080820151816007015560a0820151816008015560c08201518160090160006101000a81548160ff021916908315150217905550905050600260015490806001815401808255809150506001900390600052602060002001600090919091909150557fb6d8be5059e64702e2c7be877d9f278d0a00e059451566f3d548556ce6e2ec5e60015433876040516106f293929190614089565b60405180910390a150505050505050565b6060600060068360405161071791906140fc565b9081526020016040518091039020600101805461073390614142565b905011610775576040517f08c379a000000000000000000000000000000000000000000000000000000000815260040161076c906141c0565b60405180910390fd5b3373ffffffffffffffffffffffffffffffffffffffff1660068360405161079c91906140fc565b908152602001604051809103902060020160009054906101000a900473ffffffffffffffffffffffffffffffffffffffff1673ffffffffffffffffffffffffffffffffffffffff16148061085c57503373ffffffffffffffffffffffffffffffffffffffff1660068360405161081291906140fc565b908152602001604051809103902060030160009054906101000a900473ffffffffffffffffffffffffffffffffffffffff1673ffffffffffffffffffffffffffffffffffffffff16145b61089b576040517f08c379a000000000000000000000000000000000000000000000000000000000815260040161089290614252565b60405180910390fd5b6006826040516108ab91906140fc565b908152602001604051809103902060010180546108c790614142565b80601f01602080910402602001604051908101604052809291908181526020018280546108f390614142565b80156109405780601f1061091557610100808354040283529160200191610940565b820191906000526020600020905b81548152906001019060200180831161092357829003601f168201915b50505050509050919050565b806003600082815260200190815260200160002060010160000160009054906101000a900473ffffffffffffffffffffffffffffffffffffffff1673ffffffffffffffffffffffffffffffffffffffff163373ffffffffffffffffffffffffffffffffffffffff16146109f4576040517f08c379a00000000000000000000000000000000000000000000000000000000081526004016109eb906142e4565b60405180910390fd5b6004548211158015610a065750600082115b610a45576040517f08c379a0000000000000000000000000000000000000000000000000000000008152600401610a3c90614350565b60405180910390fd5b60006002811115610a5957610a5861374f565b5b6003600084815260200190815260200160002060120160009054906101000a900460ff166002811115610a8f57610a8e61374f565b5b14610acf576040517f08c379a0000000000000000000000000000000000000000000000000000000008152600401610ac6906143e2565b60405180910390fd5b600060036000848152602001908152602001600020905060018160120160006101000a81548160ff02191690836002811115610b0e57610b0d61374f565b5b0217905550505050565b806003600082815260200190815260200160002060010160000160009054906101000a900473ffffffffffffffffffffffffffffffffffffffff1673ffffffffffffffffffffffffffffffffffffffff163373ffffffffffffffffffffffffffffffffffffffff1614610bc0576040517f08c379a0000000000000000000000000000000000000000000000000000000008152600401610bb7906142e4565b60405180910390fd5b6004548211158015610bd25750600082115b610c11576040517f08c379a0000000000000000000000000000000000000000000000000000000008152600401610c0890614350565b60405180910390fd5b600060036000848152602001908152602001600020905060016002811115610c3c57610c3b61374f565b5b8160120160009054906101000a900460ff166002811115610c6057610c5f61374f565b5b14610ca0576040517f08c379a0000000000000000000000000000000000000000000000000000000008152600401610c97906143e2565b60405180910390fd5b806011015481600501600701548260100154610cbc9190614402565b14610cfc576040517f08c379a0000000000000000000000000000000000000000000000000000000008152600401610cf3906144ce565b60405180910390fd5b60028160120160006101000a81548160ff02191690836002811115610d2457610d2361374f565b5b021790555060008060008360050160000154815260200190815260200160002060090160006101000a81548160ff0219169083151502179055506000816011015490508160050160010160000160009054906101000a900473ffffffffffffffffffffffffffffffffffffffff1673ffffffffffffffffffffffffffffffffffffffff166108fc829081150290604051600060405180830381858888f19350505050158015610dd7573d6000803e3d6000fd5b507f9335f8fc7f600a68311f5461d958a3d6ef7d362b5e7874423ab90cc39ca0c9f284604051610e0791906130b3565b60405180910390a150505050565b60045481565b6003602052806000526040600020600091509050806000015490806001016040518060800160405290816000820160009054906101000a900473ffffffffffffffffffffffffffffffffffffffff1673ffffffffffffffffffffffffffffffffffffffff1673ffffffffffffffffffffffffffffffffffffffff168152602001600182018054610eaa90614142565b80601f0160208091040260200160405190810160405280929190818152602001828054610ed690614142565b8015610f235780601f10610ef857610100808354040283529160200191610f23565b820191906000526020600020905b815481529060010190602001808311610f0657829003601f168201915b50505050508152602001600282018054610f3c90614142565b80601f0160208091040260200160405190810160405280929190818152602001828054610f6890614142565b8015610fb55780601f10610f8a57610100808354040283529160200191610fb5565b820191906000526020600020905b815481529060010190602001808311610f9857829003601f168201915b50505050508152602001600382018054610fce90614142565b80601f0160208091040260200160405190810160405280929190818152602001828054610ffa90614142565b80156110475780601f1061101c57610100808354040283529160200191611047565b820191906000526020600020905b81548152906001019060200180831161102a57829003601f168201915b50505050508152505090806005016040518060e001604052908160008201548152602001600182016040518060800160405290816000820160009054906101000a900473ffffffffffffffffffffffffffffffffffffffff1673ffffffffffffffffffffffffffffffffffffffff1673ffffffffffffffffffffffffffffffffffffffff1681526020016001820180546110e090614142565b80601f016020809104026020016040519081016040528092919081815260200182805461110c90614142565b80156111595780601f1061112e57610100808354040283529160200191611159565b820191906000526020600020905b81548152906001019060200180831161113c57829003601f168201915b5050505050815260200160028201805461117290614142565b80601f016020809104026020016040519081016040528092919081815260200182805461119e90614142565b80156111eb5780601f106111c0576101008083540402835291602001916111eb565b820191906000526020600020905b8154815290600101906020018083116111ce57829003601f168201915b5050505050815260200160038201805461120490614142565b80601f016020809104026020016040519081016040528092919081815260200182805461123090614142565b801561127d5780601f106112525761010080835404028352916020019161127d565b820191906000526020600020905b81548152906001019060200180831161126057829003601f168201915b505050505081525050815260200160058201805461129a90614142565b80601f01602080910402602001604051908101604052809291908181526020018280546112c690614142565b80156113135780601f106112e857610100808354040283529160200191611313565b820191906000526020600020905b8154815290600101906020018083116112f657829003601f168201915b5050505050815260200160068201805461132c90614142565b80601f016020809104026020016040519081016040528092919081815260200182805461135890614142565b80156113a55780601f1061137a576101008083540402835291602001916113a5565b820191906000526020600020905b81548152906001019060200180831161138857829003601f168201915b5050505050815260200160078201548152602001600882015481526020016009820160009054906101000a900460ff1615151515815250509080600f0154908060100154908060110154908060120160009054906101000a900460ff16905087565b6002818154811061141757600080fd5b906000526020600020016000915090505481565b6060600060058054905067ffffffffffffffff81111561144e5761144d6131a1565b5b60405190808252806020026020018201604052801561148757816020015b611474612f61565b81526020019060019003908161146c5790505b50905060005b600580549050811015611b1b5760036000600583815481106114b2576114b16144ee565b5b906000526020600020015481526020019081526020016000206040518060e001604052908160008201548152602001600182016040518060800160405290816000820160009054906101000a900473ffffffffffffffffffffffffffffffffffffffff1673ffffffffffffffffffffffffffffffffffffffff1673ffffffffffffffffffffffffffffffffffffffff16815260200160018201805461155690614142565b80601f016020809104026020016040519081016040528092919081815260200182805461158290614142565b80156115cf5780601f106115a4576101008083540402835291602001916115cf565b820191906000526020600020905b8154815290600101906020018083116115b257829003601f168201915b505050505081526020016002820180546115e890614142565b80601f016020809104026020016040519081016040528092919081815260200182805461161490614142565b80156116615780601f1061163657610100808354040283529160200191611661565b820191906000526020600020905b81548152906001019060200180831161164457829003601f168201915b5050505050815260200160038201805461167a90614142565b80601f01602080910402602001604051908101604052809291908181526020018280546116a690614142565b80156116f35780601f106116c8576101008083540402835291602001916116f3565b820191906000526020600020905b8154815290600101906020018083116116d657829003601f168201915b5050505050815250508152602001600582016040518060e001604052908160008201548152602001600182016040518060800160405290816000820160009054906101000a900473ffffffffffffffffffffffffffffffffffffffff1673ffffffffffffffffffffffffffffffffffffffff1673ffffffffffffffffffffffffffffffffffffffff16815260200160018201805461179090614142565b80601f01602080910402602001604051908101604052809291908181526020018280546117bc90614142565b80156118095780601f106117de57610100808354040283529160200191611809565b820191906000526020600020905b8154815290600101906020018083116117ec57829003601f168201915b5050505050815260200160028201805461182290614142565b80601f016020809104026020016040519081016040528092919081815260200182805461184e90614142565b801561189b5780601f106118705761010080835404028352916020019161189b565b820191906000526020600020905b81548152906001019060200180831161187e57829003601f168201915b505050505081526020016003820180546118b490614142565b80601f01602080910402602001604051908101604052809291908181526020018280546118e090614142565b801561192d5780601f106119025761010080835404028352916020019161192d565b820191906000526020600020905b81548152906001019060200180831161191057829003601f168201915b505050505081525050815260200160058201805461194a90614142565b80601f016020809104026020016040519081016040528092919081815260200182805461197690614142565b80156119c35780601f10611998576101008083540402835291602001916119c3565b820191906000526020600020905b8154815290600101906020018083116119a657829003601f168201915b505050505081526020016006820180546119dc90614142565b80601f0160208091040260200160405190810160405280929190818152602001828054611a0890614142565b8015611a555780601f10611a2a57610100808354040283529160200191611a55565b820191906000526020600020905b815481529060010190602001808311611a3857829003601f168201915b5050505050815260200160078201548152602001600882015481526020016009820160009054906101000a900460ff1615151515815250508152602001600f820154815260200160108201548152602001601182015481526020016012820160009054906101000a900460ff166002811115611ad457611ad361374f565b5b6002811115611ae657611ae561374f565b5b81525050828281518110611afd57611afc6144ee565b5b60200260200101819052508080611b1390614031565b91505061148d565b508091505090565b60058181548110611b3357600080fd5b906000526020600020016000915090505481565b6000600684604051611b5991906140fc565b90815260200160405180910390206001018054611b7590614142565b905014611bb7576040517f08c379a0000000000000000000000000000000000000000000000000000000008152600401611bae90614569565b60405180910390fd5b6040518060a001604052808481526020018381526020013373ffffffffffffffffffffffffffffffffffffffff1681526020018273ffffffffffffffffffffffffffffffffffffffff16815260200142815250600684604051611c1a91906140fc565b90815260200160405180910390206000820151816000019080519060200190611c44929190612edb565b506020820151816001019080519060200190611c61929190612edb565b5060408201518160020160006101000a81548173ffffffffffffffffffffffffffffffffffffffff021916908373ffffffffffffffffffffffffffffffffffffffff16021790555060608201518160030160006101000a81548173ffffffffffffffffffffffffffffffffffffffff021916908373ffffffffffffffffffffffffffffffffffffffff16021790555060808201518160040155905050505050565b806003600082815260200190815260200160002060010160000160009054906101000a900473ffffffffffffffffffffffffffffffffffffffff1673ffffffffffffffffffffffffffffffffffffffff163373ffffffffffffffffffffffffffffffffffffffff1614611daa576040517f08c379a0000000000000000000000000000000000000000000000000000000008152600401611da1906142e4565b60405180910390fd5b6004548211158015611dbc5750600082115b611dfb576040517f08c379a0000000000000000000000000000000000000000000000000000000008152600401611df290614350565b60405180910390fd5b600060036000848152602001908152602001600020905060016002811115611e2657611e2561374f565b5b8160120160009054906101000a900460ff166002811115611e4a57611e4961374f565b5b14611e8a576040517f08c379a0000000000000000000000000000000000000000000000000000000008152600401611e81906143e2565b60405180910390fd5b80601001546000808360000154815260200190815260200160002060070154611eb39190614402565b341115611ef5576040517f08c379a0000000000000000000000000000000000000000000000000000000008152600401611eec906145d5565b60405180910390fd5b34816011016000828254611f0991906145f5565b92505081905550505050565b60008060008581526020019081526020016000206040518060e001604052908160008201548152602001600182016040518060800160405290816000820160009054906101000a900473ffffffffffffffffffffffffffffffffffffffff1673ffffffffffffffffffffffffffffffffffffffff1673ffffffffffffffffffffffffffffffffffffffff168152602001600182018054611fb490614142565b80601f0160208091040260200160405190810160405280929190818152602001828054611fe090614142565b801561202d5780601f106120025761010080835404028352916020019161202d565b820191906000526020600020905b81548152906001019060200180831161201057829003601f168201915b5050505050815260200160028201805461204690614142565b80601f016020809104026020016040519081016040528092919081815260200182805461207290614142565b80156120bf5780601f10612094576101008083540402835291602001916120bf565b820191906000526020600020905b8154815290600101906020018083116120a257829003601f168201915b505050505081526020016003820180546120d890614142565b80601f016020809104026020016040519081016040528092919081815260200182805461210490614142565b80156121515780601f1061212657610100808354040283529160200191612151565b820191906000526020600020905b81548152906001019060200180831161213457829003601f168201915b505050505081525050815260200160058201805461216e90614142565b80601f016020809104026020016040519081016040528092919081815260200182805461219a90614142565b80156121e75780601f106121bc576101008083540402835291602001916121e7565b820191906000526020600020905b8154815290600101906020018083116121ca57829003601f168201915b5050505050815260200160068201805461220090614142565b80601f016020809104026020016040519081016040528092919081815260200182805461222c90614142565b80156122795780601f1061224e57610100808354040283529160200191612279565b820191906000526020600020905b81548152906001019060200180831161225c57829003601f168201915b5050505050815260200160078201548152602001600882015481526020016009820160009054906101000a900460ff161515151581525050905060015484111580156122c55750600084115b612304576040517f08c379a00000000000000000000000000000000000000000000000000000000081526004016122fb90613f76565b60405180910390fd5b8060c0015115612349576040517f08c379a000000000000000000000000000000000000000000000000000000000815260040161234090614697565b60405180910390fd5b6000808581526020019081526020016000206007015434146123a0576040517f08c379a000000000000000000000000000000000000000000000000000000000815260040161239790614703565b60405180910390fd5b8060a0015182146123e6576040517f08c379a00000000000000000000000000000000000000000000000000000000081526004016123dd90614795565b60405180910390fd5b600460008154809291906123f990614031565b91905055506040518060e00160405280600454815260200186815260200182815260200142815260200184815260200160008152602001600060028111156124445761244361374f565b5b8152506003600060045481526020019081526020016000206000820151816000015560208201518160010160008201518160000160006101000a81548173ffffffffffffffffffffffffffffffffffffffff021916908373ffffffffffffffffffffffffffffffffffffffff16021790555060208201518160010190805190602001906124d2929190612edb565b5060408201518160020190805190602001906124ef929190612edb565b50606082015181600301908051906020019061250c929190612edb565b5050506040820151816005016000820151816000015560208201518160010160008201518160000160006101000a81548173ffffffffffffffffffffffffffffffffffffffff021916908373ffffffffffffffffffffffffffffffffffffffff160217905550602082015181600101908051906020019061258e929190612edb565b5060408201518160020190805190602001906125ab929190612edb565b5060608201518160030190805190602001906125c8929190612edb565b50505060408201518160050190805190602001906125e7929190612edb565b506060820151816006019080519060200190612604929190612edb565b506080820151816007015560a0820151816008015560c08201518160090160006101000a81548160ff0219169083151502179055505050606082015181600f01556080820151816010015560a0820151816011015560c08201518160120160006101000a81548160ff021916908360028111156126845761268361374f565b5b0217905550905050612697846001610415565b600560045490806001815401808255809150506001900390600052602060002001600090919091909150557f1df07aa90d613a91b586481dbd79ac854db474e14e65acf2141897f9577086b660045433866040516126f793929190614089565b60405180910390a15050505050565b6060600060028054905067ffffffffffffffff811115612729576127286131a1565b5b60405190808252806020026020018201604052801561276257816020015b61274f612fbc565b8152602001906001900390816127475790505b50905060005b600280549050811015612b5e576000806002838154811061278c5761278b6144ee565b5b906000526020600020015481526020019081526020016000206040518060e001604052908160008201548152602001600182016040518060800160405290816000820160009054906101000a900473ffffffffffffffffffffffffffffffffffffffff1673ffffffffffffffffffffffffffffffffffffffff1673ffffffffffffffffffffffffffffffffffffffff16815260200160018201805461283090614142565b80601f016020809104026020016040519081016040528092919081815260200182805461285c90614142565b80156128a95780601f1061287e576101008083540402835291602001916128a9565b820191906000526020600020905b81548152906001019060200180831161288c57829003601f168201915b505050505081526020016002820180546128c290614142565b80601f01602080910402602001604051908101604052809291908181526020018280546128ee90614142565b801561293b5780601f106129105761010080835404028352916020019161293b565b820191906000526020600020905b81548152906001019060200180831161291e57829003601f168201915b5050505050815260200160038201805461295490614142565b80601f016020809104026020016040519081016040528092919081815260200182805461298090614142565b80156129cd5780601f106129a2576101008083540402835291602001916129cd565b820191906000526020600020905b8154815290600101906020018083116129b057829003601f168201915b50505050508152505081526020016005820180546129ea90614142565b80601f0160208091040260200160405190810160405280929190818152602001828054612a1690614142565b8015612a635780601f10612a3857610100808354040283529160200191612a63565b820191906000526020600020905b815481529060010190602001808311612a4657829003601f168201915b50505050508152602001600682018054612a7c90614142565b80601f0160208091040260200160405190810160405280929190818152602001828054612aa890614142565b8015612af55780601f10612aca57610100808354040283529160200191612af5565b820191906000526020600020905b815481529060010190602001808311612ad857829003601f168201915b5050505050815260200160078201548152602001600882015481526020016009820160009054906101000a900460ff161515151581525050828281518110612b4057612b3f6144ee565b5b60200260200101819052508080612b5690614031565b915050612768565b508091505090565b6000602052806000526040600020600091509050806000015490806001016040518060800160405290816000820160009054906101000a900473ffffffffffffffffffffffffffffffffffffffff1673ffffffffffffffffffffffffffffffffffffffff1673ffffffffffffffffffffffffffffffffffffffff168152602001600182018054612bf590614142565b80601f0160208091040260200160405190810160405280929190818152602001828054612c2190614142565b8015612c6e5780601f10612c4357610100808354040283529160200191612c6e565b820191906000526020600020905b815481529060010190602001808311612c5157829003601f168201915b50505050508152602001600282018054612c8790614142565b80601f0160208091040260200160405190810160405280929190818152602001828054612cb390614142565b8015612d005780601f10612cd557610100808354040283529160200191612d00565b820191906000526020600020905b815481529060010190602001808311612ce357829003601f168201915b50505050508152602001600382018054612d1990614142565b80601f0160208091040260200160405190810160405280929190818152602001828054612d4590614142565b8015612d925780601f10612d6757610100808354040283529160200191612d92565b820191906000526020600020905b815481529060010190602001808311612d7557829003601f168201915b50505050508152505090806005018054612dab90614142565b80601f0160208091040260200160405190810160405280929190818152602001828054612dd790614142565b8015612e245780601f10612df957610100808354040283529160200191612e24565b820191906000526020600020905b815481529060010190602001808311612e0757829003601f168201915b505050505090806006018054612e3990614142565b80601f0160208091040260200160405190810160405280929190818152602001828054612e6590614142565b8015612eb25780601f10612e8757610100808354040283529160200191612eb2565b820191906000526020600020905b815481529060010190602001808311612e9557829003601f168201915b5050505050908060070154908060080154908060090160009054906101000a900460ff16905087565b828054612ee790614142565b90600052602060002090601f016020900481019282612f095760008555612f50565b82601f10612f2257805160ff1916838001178555612f50565b82800160010185558215612f50579182015b82811115612f4f578251825591602001919060010190612f34565b5b509050612f5d9190613001565b5090565b6040518060e0016040528060008152602001612f7b61301e565b8152602001612f88612fbc565b815260200160008152602001600081526020016000815260200160006002811115612fb657612fb561374f565b5b81525090565b6040518060e0016040528060008152602001612fd661305c565b8152602001606081526020016060815260200160008152602001600081526020016000151581525090565b5b8082111561301a576000816000905550600101613002565b5090565b6040518060800160405280600073ffffffffffffffffffffffffffffffffffffffff1681526020016060815260200160608152602001606081525090565b6040518060800160405280600073ffffffffffffffffffffffffffffffffffffffff1681526020016060815260200160608152602001606081525090565b6000819050919050565b6130ad8161309a565b82525050565b60006020820190506130c860008301846130a4565b92915050565b6000604051905090565b600080fd5b600080fd5b6130eb8161309a565b81146130f657600080fd5b50565b600081359050613108816130e2565b92915050565b60008115159050919050565b6131238161310e565b811461312e57600080fd5b50565b6000813590506131408161311a565b92915050565b6000806040838503121561315d5761315c6130d8565b5b600061316b858286016130f9565b925050602061317c85828601613131565b9150509250929050565b600080fd5b600080fd5b6000601f19601f8301169050919050565b7f4e487b7100000000000000000000000000000000000000000000000000000000600052604160045260246000fd5b6131d982613190565b810181811067ffffffffffffffff821117156131f8576131f76131a1565b5b80604052505050565b600061320b6130ce565b905061321782826131d0565b919050565b600067ffffffffffffffff821115613237576132366131a1565b5b61324082613190565b9050602081019050919050565b82818337600083830152505050565b600061326f61326a8461321c565b613201565b90508281526020810184848401111561328b5761328a61318b565b5b61329684828561324d565b509392505050565b600082601f8301126132b3576132b2613186565b5b81356132c384826020860161325c565b91505092915050565b600080600080600080600060e0888a0312156132eb576132ea6130d8565b5b600088013567ffffffffffffffff811115613309576133086130dd565b5b6133158a828b0161329e565b975050602088013567ffffffffffffffff811115613336576133356130dd565b5b6133428a828b0161329e565b96505060406133538a828b016130f9565b95505060606133648a828b016130f9565b945050608088013567ffffffffffffffff811115613385576133846130dd565b5b6133918a828b0161329e565b93505060a088013567ffffffffffffffff8111156133b2576133b16130dd565b5b6133be8a828b0161329e565b92505060c088013567ffffffffffffffff8111156133df576133de6130dd565b5b6133eb8a828b0161329e565b91505092959891949750929550565b6000602082840312156134105761340f6130d8565b5b600082013567ffffffffffffffff81111561342e5761342d6130dd565b5b61343a8482850161329e565b91505092915050565b600081519050919050565b600082825260208201905092915050565b60005b8381101561347d578082015181840152602081019050613462565b8381111561348c576000848401525b50505050565b600061349d82613443565b6134a7818561344e565b93506134b781856020860161345f565b6134c081613190565b840191505092915050565b600060208201905081810360008301526134e58184613492565b905092915050565b600060208284031215613503576135026130d8565b5b6000613511848285016130f9565b91505092915050565b600073ffffffffffffffffffffffffffffffffffffffff82169050919050565b60006135458261351a565b9050919050565b6135558161353a565b82525050565b600082825260208201905092915050565b600061357782613443565b613581818561355b565b935061359181856020860161345f565b61359a81613190565b840191505092915050565b60006080830160008301516135bd600086018261354c565b50602083015184820360208601526135d5828261356c565b915050604083015184820360408601526135ef828261356c565b91505060608301518482036060860152613609828261356c565b9150508091505092915050565b61361f8161309a565b82525050565b600060808301600083015161363d600086018261354c565b5060208301518482036020860152613655828261356c565b9150506040830151848203604086015261366f828261356c565b91505060608301518482036060860152613689828261356c565b9150508091505092915050565b61369f8161310e565b82525050565b600060e0830160008301516136bd6000860182613616565b50602083015184820360208601526136d58282613625565b915050604083015184820360408601526136ef828261356c565b91505060608301518482036060860152613709828261356c565b915050608083015161371e6080860182613616565b5060a083015161373160a0860182613616565b5060c083015161374460c0860182613696565b508091505092915050565b7f4e487b7100000000000000000000000000000000000000000000000000000000600052602160045260246000fd5b6003811061378f5761378e61374f565b5b50565b60008190506137a08261377e565b919050565b60006137b082613792565b9050919050565b6137c0816137a5565b82525050565b600060e0820190506137db600083018a6130a4565b81810360208301526137ed81896135a5565b9050818103604083015261380181886136a5565b905061381060608301876130a4565b61381d60808301866130a4565b61382a60a08301856130a4565b61383760c08301846137b7565b98975050505050505050565b600081519050919050565b600082825260208201905092915050565b6000819050602082019050919050565b6000608083016000830151613887600086018261354c565b506020830151848203602086015261389f828261356c565b915050604083015184820360408601526138b9828261356c565b915050606083015184820360608601526138d3828261356c565b9150508091505092915050565b600060e0830160008301516138f86000860182613616565b50602083015184820360208601526139108282613625565b9150506040830151848203604086015261392a828261356c565b91505060608301518482036060860152613944828261356c565b91505060808301516139596080860182613616565b5060a083015161396c60a0860182613616565b5060c083015161397f60c0860182613696565b508091505092915050565b613993816137a5565b82525050565b600060e0830160008301516139b16000860182613616565b50602083015184820360208601526139c9828261386f565b915050604083015184820360408601526139e382826138e0565b91505060608301516139f86060860182613616565b506080830151613a0b6080860182613616565b5060a0830151613a1e60a0860182613616565b5060c0830151613a3160c086018261398a565b508091505092915050565b6000613a488383613999565b905092915050565b6000602082019050919050565b6000613a6882613843565b613a72818561384e565b935083602082028501613a848561385f565b8060005b85811015613ac05784840389528151613aa18582613a3c565b9450613aac83613a50565b925060208a01995050600181019050613a88565b50829750879550505050505092915050565b60006020820190508181036000830152613aec8184613a5d565b905092915050565b6000613aff8261351a565b9050919050565b613b0f81613af4565b8114613b1a57600080fd5b50565b600081359050613b2c81613b06565b92915050565b600080600060608486031215613b4b57613b4a6130d8565b5b600084013567ffffffffffffffff811115613b6957613b686130dd565b5b613b758682870161329e565b935050602084013567ffffffffffffffff811115613b9657613b956130dd565b5b613ba28682870161329e565b9250506040613bb386828701613b1d565b9150509250925092565b600080fd5b600080fd5b613bd08161353a565b8114613bdb57600080fd5b50565b600081359050613bed81613bc7565b92915050565b600060808284031215613c0957613c08613bbd565b5b613c136080613201565b90506000613c2384828501613bde565b600083015250602082013567ffffffffffffffff811115613c4757613c46613bc2565b5b613c538482850161329e565b602083015250604082013567ffffffffffffffff811115613c7757613c76613bc2565b5b613c838482850161329e565b604083015250606082013567ffffffffffffffff811115613ca757613ca6613bc2565b5b613cb38482850161329e565b60608301525092915050565b60008060008060808587031215613cd957613cd86130d8565b5b600085013567ffffffffffffffff811115613cf757613cf66130dd565b5b613d0387828801613bf3565b9450506020613d14878288016130f9565b9350506040613d25878288016130f9565b9250506060613d36878288016130f9565b91505092959194509250565b600081519050919050565b600082825260208201905092915050565b6000819050602082019050919050565b6000613d7a83836138e0565b905092915050565b6000602082019050919050565b6000613d9a82613d42565b613da48185613d4d565b935083602082028501613db685613d5e565b8060005b85811015613df25784840389528151613dd38582613d6e565b9450613dde83613d82565b925060208a01995050600181019050613dba565b50829750879550505050505092915050565b60006020820190508181036000830152613e1e8184613d8f565b905092915050565b6000608083016000830151613e3e600086018261354c565b5060208301518482036020860152613e56828261356c565b91505060408301518482036040860152613e70828261356c565b91505060608301518482036060860152613e8a828261356c565b9150508091505092915050565b613ea08161310e565b82525050565b600060e082019050613ebb600083018a6130a4565b8181036020830152613ecd8189613e26565b90508181036040830152613ee18188613492565b90508181036060830152613ef58187613492565b9050613f0460808301866130a4565b613f1160a08301856130a4565b613f1e60c0830184613e97565b98975050505050505050565b7f496e76616c69642070726f706572747920494400000000000000000000000000600082015250565b6000613f6060138361344e565b9150613f6b82613f2a565b602082019050919050565b60006020820190508181036000830152613f8f81613f53565b9050919050565b7f5072696365206d7573742062652067726561746572207468616e203000000000600082015250565b6000613fcc601c8361344e565b9150613fd782613f96565b602082019050919050565b60006020820190508181036000830152613ffb81613fbf565b9050919050565b7f4e487b7100000000000000000000000000000000000000000000000000000000600052601160045260246000fd5b600061403c8261309a565b91507fffffffffffffffffffffffffffffffffffffffffffffffffffffffffffffffff82141561406f5761406e614002565b5b600182019050919050565b6140838161353a565b82525050565b600060608201905061409e60008301866130a4565b6140ab602083018561407a565b6140b860408301846130a4565b949350505050565b600081905092915050565b60006140d682613443565b6140e081856140c0565b93506140f081856020860161345f565b80840191505092915050565b600061410882846140cb565b915081905092915050565b7f4e487b7100000000000000000000000000000000000000000000000000000000600052602260045260246000fd5b6000600282049050600182168061415a57607f821691505b6020821081141561416e5761416d614113565b5b50919050565b7f46696c65206e6f7420666f756e64000000000000000000000000000000000000600082015250565b60006141aa600e8361344e565b91506141b582614174565b602082019050919050565b600060208201905081810360008301526141d98161419d565b9050919050565b7f596f7520646f6e742068617665207065726d697373696f6e7320746f2076696560008201527f7720746869732066696c65000000000000000000000000000000000000000000602082015250565b600061423c602b8361344e565b9150614247826141e0565b604082019050919050565b6000602082019050818103600083015261426b8161422f565b9050919050565b7f4f6e6c79207468652074656e616e742063616e20706572666f726d207468697360008201527f20616374696f6e00000000000000000000000000000000000000000000000000602082015250565b60006142ce60278361344e565b91506142d982614272565b604082019050919050565b600060208201905081810360008301526142fd816142c1565b9050919050565b7f496e76616c69642061677265656d656e74204944000000000000000000000000600082015250565b600061433a60148361344e565b915061434582614304565b602082019050919050565b600060208201905081810360008301526143698161432d565b9050919050565b7f4c6561736541677265656d656e7420697320696e20616e20696e76616c69642060008201527f7374617465000000000000000000000000000000000000000000000000000000602082015250565b60006143cc60258361344e565b91506143d782614370565b604082019050919050565b600060208201905081810360008301526143fb816143bf565b9050919050565b600061440d8261309a565b91506144188361309a565b9250817fffffffffffffffffffffffffffffffffffffffffffffffffffffffffffffffff048311821515161561445157614450614002565b5b828202905092915050565b7f4e6f7420616c6c20636f6e74726163742072656e74732068617665206265656e60008201527f2070616964207965740000000000000000000000000000000000000000000000602082015250565b60006144b860298361344e565b91506144c38261445c565b604082019050919050565b600060208201905081810360008301526144e7816144ab565b9050919050565b7f4e487b7100000000000000000000000000000000000000000000000000000000600052603260045260246000fd5b7f46696c6520616c72656164792065786973747300000000000000000000000000600082015250565b600061455360138361344e565b915061455e8261451d565b602082019050919050565b6000602082019050818103600083015261458281614546565b9050919050565b7f496e636f72726563742052656e7420616d6f756e740000000000000000000000600082015250565b60006145bf60158361344e565b91506145ca82614589565b602082019050919050565b600060208201905081810360008301526145ee816145b2565b9050919050565b60006146008261309a565b915061460b8361309a565b9250827fffffffffffffffffffffffffffffffffffffffffffffffffffffffffffffffff038211156146405761463f614002565b5b828201905092915050565b7f50726f706572747920697320616c72656164792072656e746564000000000000600082015250565b6000614681601a8361344e565b915061468c8261464b565b602082019050919050565b600060208201905081810360008301526146b081614674565b9050919050565b7f496e73756666696369656e74207061796d656e74000000000000000000000000600082015250565b60006146ed60148361344e565b91506146f8826146b7565b602082019050919050565b6000602082019050818103600083015261471c816146e0565b9050919050565b7f4465706f73697420646f6573206e6f74206d6174636820746f2074686520707260008201527f6f7065727479206465706f736974000000000000000000000000000000000000602082015250565b600061477f602e8361344e565b915061478a82614723565b604082019050919050565b600060208201905081810360008301526147ae81614772565b905091905056fea2646970667358221220efc065169d72c532415c3b7d18ad06da47db78dd7387722dcba18e53f3dc173664736f6c634300080a0033",
  "immutableReferences": {},
  "source": "// SPDX-License-Identifier: GPL-3.0\r\npragma solidity ^0.8.10;\r\n\r\ncontract HousingRentalSystem {\r\n    enum State {\r\n        Created,\r\n        Started,\r\n        Terminated\r\n    }\r\n\r\n    struct Landlord {\r\n        address payable id;\r\n        string name;\r\n        string phoneNumber;\r\n        string email;\r\n    }\r\n\r\n    struct Tenant {\r\n        address payable id;\r\n        string name;\r\n        string phoneNumber;\r\n        string email;\r\n    }\r\n\r\n    struct Property {\r\n        uint256 id;\r\n        Landlord landlord;\r\n        string postalAddress;\r\n        string description;\r\n        uint price;\r\n        uint securityDeposit;\r\n        bool isRented;\r\n    }\r\n\r\n    struct LeaseAgreement {\r\n        uint256 id;\r\n        Tenant tenant;\r\n        Property property;\r\n        uint leaseStart;\r\n        uint leaseDuration;\r\n        uint totalRentPaid;\r\n        State state;\r\n    }\r\n\r\n    struct ContractFile{\r\n        string fileName;\r\n        string ipfsHash;\r\n        address landlord;\r\n        address tenant;\r\n        uint uploadDate;\r\n    }\r\n\r\n    mapping(uint256 => Property) public properties;\r\n    uint256 public propertiesCount;\r\n    uint256[] public propertiesKeys;\r\n    mapping(uint256 => LeaseAgreement) public leaseAgreements;\r\n    uint256 public leaseAgreementCount;\r\n    uint256[] public leaseAgreementKeys;\r\n    mapping(string => ContractFile) private files;\r\n\r\n    event PropertyAdded(\r\n        uint256 propertyId,\r\n        address payable landlord,\r\n        uint256 price\r\n    );\r\n    event PropertyReturned(uint256 agreementId);\r\n    event PropertyProposalRent(\r\n        uint256 agreementId,\r\n        address payable tenant,\r\n        uint256 houseId,\r\n        uint256 duration\r\n    );\r\n    event PropertyPaid(uint256 agreementId, uint256 amount);\r\n    event LeaseAgreementProposal(\r\n        uint256 leaseAgreementCount,\r\n        address payable tenant,\r\n        uint propertyId\r\n    );\r\n\r\n    constructor() {\r\n        propertiesCount = 0;\r\n        leaseAgreementCount = 0;\r\n    }\r\n\r\n    function uploadFile(string memory fileName,string memory ipfsHash,address tenant) public{\r\n        require(bytes(files[fileName].ipfsHash).length==0,\"File already exists\");\r\n        files[fileName] = ContractFile(fileName,ipfsHash,msg.sender,tenant,block.timestamp);\r\n    }\r\n\r\n    function getIPFSHash(string memory fileName) public view returns (string memory){\r\n        require(bytes(files[fileName].ipfsHash).length > 0 , \"File not found\");\r\n        require(files[fileName].landlord == msg.sender || files[fileName].tenant == msg.sender , \"You dont have permissions to view this file\");\r\n        return files[fileName].ipfsHash;\r\n    }\r\n\r\n    function registerProperty(\r\n        string memory postalAddress,\r\n        string memory description,\r\n        uint price,\r\n        uint securityDeposit,\r\n        string memory landlordName,\r\n        string memory landlordPhone,\r\n        string memory landlordEmail\r\n    ) external {\r\n        require(price > 0, \"Price must be greater than 0\");\r\n        propertiesCount++;\r\n        properties[propertiesCount] = Property({\r\n            id: propertiesCount,\r\n            landlord: Landlord({\r\n                id: payable(msg.sender),\r\n                name: landlordName,\r\n                phoneNumber: landlordPhone,\r\n                email: landlordEmail\r\n            }),\r\n            description: description,\r\n            postalAddress: postalAddress,\r\n            price: price,\r\n            securityDeposit: securityDeposit,\r\n            isRented: false\r\n        });\r\n        propertiesKeys.push(propertiesCount);\r\n        emit PropertyAdded(propertiesCount, payable(msg.sender), price);\r\n    }\r\n\r\n    function rentProperty(\r\n        Tenant memory tenant,\r\n        uint256 propertyId,\r\n        uint256 duration,\r\n        uint256 deposit\r\n    ) public payable {\r\n        Property memory property = properties[propertyId];\r\n        require(\r\n            propertyId <= propertiesCount && propertyId > 0,\r\n            \"Invalid property ID\"\r\n        );\r\n        require(!property.isRented, \"Property is already rented\");\r\n        require(\r\n            msg.value == properties[propertyId].price,\r\n            \"Insufficient payment\"\r\n        );\r\n        require(\r\n            deposit == property.securityDeposit,\r\n            \"Deposit does not match to the property deposit\"\r\n        );\r\n\r\n        leaseAgreementCount++;\r\n        leaseAgreements[leaseAgreementCount] = LeaseAgreement({\r\n            id: leaseAgreementCount,\r\n            tenant: tenant,\r\n            property: property,\r\n            leaseStart: block.timestamp,\r\n            leaseDuration: duration,\r\n            totalRentPaid: 0,\r\n            state: State.Created\r\n        });\r\n        setPropertyRented(propertyId, true);\r\n        leaseAgreementKeys.push(leaseAgreementCount);\r\n        emit LeaseAgreementProposal(\r\n            leaseAgreementCount,\r\n            payable(msg.sender),\r\n            propertyId\r\n        );\r\n    }\r\n\r\n    function setPropertyRented(uint256 propertyId, bool rented) public {\r\n        require(propertyId > 0, \"Invalid property ID\");\r\n        properties[propertyId].isRented = rented;\r\n    }\r\n\r\n    function getRegisteredProperties()\r\n        external\r\n        view\r\n        returns (Property[] memory)\r\n    {\r\n        Property[] memory result = new Property[](propertiesKeys.length);\r\n        for (uint256 i = 0; i < propertiesKeys.length; i++) {\r\n            result[i] = properties[propertiesKeys[i]];\r\n        }\r\n        return result;\r\n    }\r\n\r\n    modifier onlyTenant(uint256 agreementId) {\r\n        require(\r\n            msg.sender == leaseAgreements[agreementId].tenant.id,\r\n            \"Only the tenant can perform this action\"\r\n        );\r\n        _;\r\n    }\r\n\r\n    function getRegisteredLeaseAgreement()\r\n        external\r\n        view\r\n        returns (LeaseAgreement[] memory)\r\n    {\r\n        LeaseAgreement[] memory result = new LeaseAgreement[](\r\n            leaseAgreementKeys.length\r\n        );\r\n        for (uint256 i = 0; i < leaseAgreementKeys.length; i++) {\r\n            result[i] = leaseAgreements[leaseAgreementKeys[i]];\r\n        }\r\n        return result;\r\n    }\r\n\r\n    function acceptLeaseAgreement(\r\n        uint256 agreementId\r\n    ) external onlyTenant(agreementId) {\r\n        require(\r\n            agreementId <= leaseAgreementCount && agreementId > 0,\r\n            \"Invalid agreement ID\"\r\n        );\r\n        require(\r\n            leaseAgreements[agreementId].state == State.Created,\r\n            \"LeaseAgreement is in an invalid state\"\r\n        );\r\n        LeaseAgreement storage agreement = leaseAgreements[agreementId];\r\n        agreement.state = State.Started;\r\n    }\r\n\r\n    function getBalance() external view returns (uint256) {\r\n        return address(this).balance;\r\n    }\r\n\r\n    function payRent(\r\n        uint256 agreementId\r\n    ) external payable onlyTenant(agreementId) {\r\n        require(\r\n            agreementId <= leaseAgreementCount && agreementId > 0,\r\n            \"Invalid agreement ID\"\r\n        );\r\n        LeaseAgreement storage agreement = leaseAgreements[agreementId];\r\n        require(\r\n            agreement.state == State.Started,\r\n            \"LeaseAgreement is in an invalid state\"\r\n        );\r\n        require(\r\n            msg.value <=\r\n                properties[agreement.id].price * agreement.leaseDuration,\r\n            \"Incorrect Rent amount\"\r\n        );\r\n        agreement.totalRentPaid += msg.value;\r\n    }\r\n\r\n    function returnProperty(\r\n        uint256 agreementId\r\n    ) external payable onlyTenant(agreementId) {\r\n        require(\r\n            agreementId <= leaseAgreementCount && agreementId > 0,\r\n            \"Invalid agreement ID\"\r\n        );\r\n        LeaseAgreement storage agreement = leaseAgreements[agreementId];\r\n        require(\r\n            agreement.state == State.Started,\r\n            \"LeaseAgreement is in an invalid state\"\r\n        );\r\n        require(\r\n            agreement.leaseDuration * agreement.property.price ==\r\n                agreement.totalRentPaid,\r\n            \"Not all contract rents have been paid yet\"\r\n        );\r\n        agreement.state = State.Terminated;\r\n        properties[agreement.property.id].isRented = false;\r\n        uint256 rentAmount = agreement.totalRentPaid;\r\n        payable(agreement.property.landlord.id).transfer(rentAmount);\r\n        emit PropertyReturned(agreementId);\r\n    }\r\n}\r\n",
  "sourcePath": "C:\\Users\\UO251408\\Desktop\\TFM\\housing-rental-backend\\contracts\\HousingRentalSystem.sol",
  "compiler": {
    "name": "solc",
    "version": "0.8.10+commit.fc410830.Emscripten.clang"
  },
  "schemaVersion": "3.4.12",
  "updatedAt": "2024-03-05T22:14:23.819Z",
  "networkType": "ethereum",
  "devdoc": {
    "kind": "dev",
    "methods": {},
    "version": 1
  },
  "userdoc": {
    "kind": "user",
    "methods": {},
    "version": 1
  }
}