{
  "contractName": "HousingRentalSystem",
  "abi": [
    {
      "inputs": [],
      "stateMutability": "nonpayable",
      "type": "constructor"
    },
    {
      "anonymous": false,
      "inputs": [
        {
          "indexed": false,
          "internalType": "uint256",
          "name": "leaseAgreementCount",
          "type": "uint256"
        },
        {
          "indexed": false,
          "internalType": "address payable",
          "name": "tenant",
          "type": "address"
        },
        {
          "indexed": false,
          "internalType": "uint256",
          "name": "propertyId",
          "type": "uint256"
        }
      ],
      "name": "LeaseAgreementProposal",
      "type": "event"
    },
    {
      "anonymous": false,
      "inputs": [
        {
          "indexed": false,
          "internalType": "uint256",
          "name": "propertyId",
          "type": "uint256"
        },
        {
          "indexed": false,
          "internalType": "address payable",
          "name": "landlord",
          "type": "address"
        },
        {
          "indexed": false,
          "internalType": "uint256",
          "name": "price",
          "type": "uint256"
        }
      ],
      "name": "PropertyAdded",
      "type": "event"
    },
    {
      "anonymous": false,
      "inputs": [
        {
          "indexed": false,
          "internalType": "uint256",
          "name": "agreementId",
          "type": "uint256"
        },
        {
          "indexed": false,
          "internalType": "uint256",
          "name": "amount",
          "type": "uint256"
        }
      ],
      "name": "PropertyPaid",
      "type": "event"
    },
    {
      "anonymous": false,
      "inputs": [
        {
          "indexed": false,
          "internalType": "uint256",
          "name": "agreementId",
          "type": "uint256"
        },
        {
          "indexed": false,
          "internalType": "address payable",
          "name": "tenant",
          "type": "address"
        },
        {
          "indexed": false,
          "internalType": "uint256",
          "name": "houseId",
          "type": "uint256"
        },
        {
          "indexed": false,
          "internalType": "uint256",
          "name": "duration",
          "type": "uint256"
        }
      ],
      "name": "PropertyProposalRent",
      "type": "event"
    },
    {
      "anonymous": false,
      "inputs": [
        {
          "indexed": false,
          "internalType": "uint256",
          "name": "agreementId",
          "type": "uint256"
        }
      ],
      "name": "PropertyReturned",
      "type": "event"
    },
    {
      "inputs": [],
      "name": "leaseAgreementCount",
      "outputs": [
        {
          "internalType": "uint256",
          "name": "",
          "type": "uint256"
        }
      ],
      "stateMutability": "view",
      "type": "function",
      "constant": true
    },
    {
      "inputs": [
        {
          "internalType": "uint256",
          "name": "",
          "type": "uint256"
        }
      ],
      "name": "leaseAgreementKeys",
      "outputs": [
        {
          "internalType": "uint256",
          "name": "",
          "type": "uint256"
        }
      ],
      "stateMutability": "view",
      "type": "function",
      "constant": true
    },
    {
      "inputs": [
        {
          "internalType": "uint256",
          "name": "",
          "type": "uint256"
        }
      ],
      "name": "leaseAgreements",
      "outputs": [
        {
          "internalType": "uint256",
          "name": "id",
          "type": "uint256"
        },
        {
          "components": [
            {
              "internalType": "address payable",
              "name": "id",
              "type": "address"
            },
            {
              "internalType": "string",
              "name": "name",
              "type": "string"
            },
            {
              "internalType": "string",
              "name": "phoneNumber",
              "type": "string"
            },
            {
              "internalType": "string",
              "name": "email",
              "type": "string"
            }
          ],
          "internalType": "struct HousingRentalSystem.Tenant",
          "name": "tenant",
          "type": "tuple"
        },
        {
          "components": [
            {
              "internalType": "uint256",
              "name": "id",
              "type": "uint256"
            },
            {
              "components": [
                {
                  "internalType": "address payable",
                  "name": "id",
                  "type": "address"
                },
                {
                  "internalType": "string",
                  "name": "name",
                  "type": "string"
                },
                {
                  "internalType": "string",
                  "name": "phoneNumber",
                  "type": "string"
                },
                {
                  "internalType": "string",
                  "name": "email",
                  "type": "string"
                }
              ],
              "internalType": "struct HousingRentalSystem.Landlord",
              "name": "landlord",
              "type": "tuple"
            },
            {
              "internalType": "string",
              "name": "postalAddress",
              "type": "string"
            },
            {
              "internalType": "string",
              "name": "description",
              "type": "string"
            },
            {
              "internalType": "uint256",
              "name": "price",
              "type": "uint256"
            },
            {
              "internalType": "uint256",
              "name": "securityDeposit",
              "type": "uint256"
            },
            {
              "internalType": "bool",
              "name": "isRented",
              "type": "bool"
            }
          ],
          "internalType": "struct HousingRentalSystem.Property",
          "name": "property",
          "type": "tuple"
        },
        {
          "internalType": "uint256",
          "name": "leaseStart",
          "type": "uint256"
        },
        {
          "internalType": "uint256",
          "name": "leaseDuration",
          "type": "uint256"
        },
        {
          "internalType": "uint256",
          "name": "totalRentPaid",
          "type": "uint256"
        },
        {
          "internalType": "enum HousingRentalSystem.State",
          "name": "state",
          "type": "uint8"
        },
        {
          "components": [
            {
              "internalType": "string",
              "name": "fileName",
              "type": "string"
            },
            {
              "internalType": "string",
              "name": "ipfsHash",
              "type": "string"
            },
            {
              "internalType": "uint256",
              "name": "uploadDate",
              "type": "uint256"
            },
            {
              "internalType": "uint256",
              "name": "leaseAgreementId",
              "type": "uint256"
            }
          ],
          "internalType": "struct HousingRentalSystem.ContractFile",
          "name": "file",
          "type": "tuple"
        }
      ],
      "stateMutability": "view",
      "type": "function",
      "constant": true
    },
    {
      "inputs": [
        {
          "internalType": "uint256",
          "name": "",
          "type": "uint256"
        }
      ],
      "name": "properties",
      "outputs": [
        {
          "internalType": "uint256",
          "name": "id",
          "type": "uint256"
        },
        {
          "components": [
            {
              "internalType": "address payable",
              "name": "id",
              "type": "address"
            },
            {
              "internalType": "string",
              "name": "name",
              "type": "string"
            },
            {
              "internalType": "string",
              "name": "phoneNumber",
              "type": "string"
            },
            {
              "internalType": "string",
              "name": "email",
              "type": "string"
            }
          ],
          "internalType": "struct HousingRentalSystem.Landlord",
          "name": "landlord",
          "type": "tuple"
        },
        {
          "internalType": "string",
          "name": "postalAddress",
          "type": "string"
        },
        {
          "internalType": "string",
          "name": "description",
          "type": "string"
        },
        {
          "internalType": "uint256",
          "name": "price",
          "type": "uint256"
        },
        {
          "internalType": "uint256",
          "name": "securityDeposit",
          "type": "uint256"
        },
        {
          "internalType": "bool",
          "name": "isRented",
          "type": "bool"
        }
      ],
      "stateMutability": "view",
      "type": "function",
      "constant": true
    },
    {
      "inputs": [],
      "name": "propertiesCount",
      "outputs": [
        {
          "internalType": "uint256",
          "name": "",
          "type": "uint256"
        }
      ],
      "stateMutability": "view",
      "type": "function",
      "constant": true
    },
    {
      "inputs": [
        {
          "internalType": "uint256",
          "name": "",
          "type": "uint256"
        }
      ],
      "name": "propertiesKeys",
      "outputs": [
        {
          "internalType": "uint256",
          "name": "",
          "type": "uint256"
        }
      ],
      "stateMutability": "view",
      "type": "function",
      "constant": true
    },
    {
      "inputs": [],
      "name": "getLatestPrice",
      "outputs": [
        {
          "internalType": "int256",
          "name": "",
          "type": "int256"
        },
        {
          "internalType": "uint8",
          "name": "",
          "type": "uint8"
        }
      ],
      "stateMutability": "view",
      "type": "function",
      "constant": true
    },
    {
      "inputs": [
        {
          "internalType": "string",
          "name": "fileName",
          "type": "string"
        },
        {
          "internalType": "string",
          "name": "ipfsHash",
          "type": "string"
        },
        {
          "internalType": "uint256",
          "name": "leaseAgreementId",
          "type": "uint256"
        }
      ],
      "name": "uploadFile",
      "outputs": [],
      "stateMutability": "nonpayable",
      "type": "function"
    },
    {
      "inputs": [
        {
          "internalType": "string",
          "name": "fileName",
          "type": "string"
        }
      ],
      "name": "getIPFSHash",
      "outputs": [
        {
          "internalType": "string",
          "name": "",
          "type": "string"
        }
      ],
      "stateMutability": "view",
      "type": "function",
      "constant": true
    },
    {
      "inputs": [
        {
          "internalType": "string",
          "name": "postalAddress",
          "type": "string"
        },
        {
          "internalType": "string",
          "name": "description",
          "type": "string"
        },
        {
          "internalType": "uint256",
          "name": "price",
          "type": "uint256"
        },
        {
          "internalType": "uint256",
          "name": "securityDeposit",
          "type": "uint256"
        },
        {
          "internalType": "string",
          "name": "landlordName",
          "type": "string"
        },
        {
          "internalType": "string",
          "name": "landlordPhone",
          "type": "string"
        },
        {
          "internalType": "string",
          "name": "landlordEmail",
          "type": "string"
        }
      ],
      "name": "registerProperty",
      "outputs": [],
      "stateMutability": "nonpayable",
      "type": "function"
    },
    {
      "inputs": [
        {
          "components": [
            {
              "internalType": "address payable",
              "name": "id",
              "type": "address"
            },
            {
              "internalType": "string",
              "name": "name",
              "type": "string"
            },
            {
              "internalType": "string",
              "name": "phoneNumber",
              "type": "string"
            },
            {
              "internalType": "string",
              "name": "email",
              "type": "string"
            }
          ],
          "internalType": "struct HousingRentalSystem.Tenant",
          "name": "tenant",
          "type": "tuple"
        },
        {
          "internalType": "uint256",
          "name": "propertyId",
          "type": "uint256"
        },
        {
          "internalType": "uint256",
          "name": "duration",
          "type": "uint256"
        },
        {
          "internalType": "uint256",
          "name": "deposit",
          "type": "uint256"
        }
      ],
      "name": "rentProperty",
      "outputs": [],
      "stateMutability": "payable",
      "type": "function",
      "payable": true
    },
    {
      "inputs": [
        {
          "internalType": "uint256",
          "name": "propertyId",
          "type": "uint256"
        },
        {
          "internalType": "bool",
          "name": "rented",
          "type": "bool"
        }
      ],
      "name": "setPropertyRented",
      "outputs": [],
      "stateMutability": "nonpayable",
      "type": "function"
    },
    {
      "inputs": [],
      "name": "getRegisteredProperties",
      "outputs": [
        {
          "components": [
            {
              "internalType": "uint256",
              "name": "id",
              "type": "uint256"
            },
            {
              "components": [
                {
                  "internalType": "address payable",
                  "name": "id",
                  "type": "address"
                },
                {
                  "internalType": "string",
                  "name": "name",
                  "type": "string"
                },
                {
                  "internalType": "string",
                  "name": "phoneNumber",
                  "type": "string"
                },
                {
                  "internalType": "string",
                  "name": "email",
                  "type": "string"
                }
              ],
              "internalType": "struct HousingRentalSystem.Landlord",
              "name": "landlord",
              "type": "tuple"
            },
            {
              "internalType": "string",
              "name": "postalAddress",
              "type": "string"
            },
            {
              "internalType": "string",
              "name": "description",
              "type": "string"
            },
            {
              "internalType": "uint256",
              "name": "price",
              "type": "uint256"
            },
            {
              "internalType": "uint256",
              "name": "securityDeposit",
              "type": "uint256"
            },
            {
              "internalType": "bool",
              "name": "isRented",
              "type": "bool"
            }
          ],
          "internalType": "struct HousingRentalSystem.Property[]",
          "name": "",
          "type": "tuple[]"
        }
      ],
      "stateMutability": "view",
      "type": "function",
      "constant": true
    },
    {
      "inputs": [],
      "name": "getRegisteredLeaseAgreement",
      "outputs": [
        {
          "components": [
            {
              "internalType": "uint256",
              "name": "id",
              "type": "uint256"
            },
            {
              "components": [
                {
                  "internalType": "address payable",
                  "name": "id",
                  "type": "address"
                },
                {
                  "internalType": "string",
                  "name": "name",
                  "type": "string"
                },
                {
                  "internalType": "string",
                  "name": "phoneNumber",
                  "type": "string"
                },
                {
                  "internalType": "string",
                  "name": "email",
                  "type": "string"
                }
              ],
              "internalType": "struct HousingRentalSystem.Tenant",
              "name": "tenant",
              "type": "tuple"
            },
            {
              "components": [
                {
                  "internalType": "uint256",
                  "name": "id",
                  "type": "uint256"
                },
                {
                  "components": [
                    {
                      "internalType": "address payable",
                      "name": "id",
                      "type": "address"
                    },
                    {
                      "internalType": "string",
                      "name": "name",
                      "type": "string"
                    },
                    {
                      "internalType": "string",
                      "name": "phoneNumber",
                      "type": "string"
                    },
                    {
                      "internalType": "string",
                      "name": "email",
                      "type": "string"
                    }
                  ],
                  "internalType": "struct HousingRentalSystem.Landlord",
                  "name": "landlord",
                  "type": "tuple"
                },
                {
                  "internalType": "string",
                  "name": "postalAddress",
                  "type": "string"
                },
                {
                  "internalType": "string",
                  "name": "description",
                  "type": "string"
                },
                {
                  "internalType": "uint256",
                  "name": "price",
                  "type": "uint256"
                },
                {
                  "internalType": "uint256",
                  "name": "securityDeposit",
                  "type": "uint256"
                },
                {
                  "internalType": "bool",
                  "name": "isRented",
                  "type": "bool"
                }
              ],
              "internalType": "struct HousingRentalSystem.Property",
              "name": "property",
              "type": "tuple"
            },
            {
              "internalType": "uint256",
              "name": "leaseStart",
              "type": "uint256"
            },
            {
              "internalType": "uint256",
              "name": "leaseDuration",
              "type": "uint256"
            },
            {
              "internalType": "uint256",
              "name": "totalRentPaid",
              "type": "uint256"
            },
            {
              "internalType": "enum HousingRentalSystem.State",
              "name": "state",
              "type": "uint8"
            },
            {
              "components": [
                {
                  "internalType": "string",
                  "name": "fileName",
                  "type": "string"
                },
                {
                  "internalType": "string",
                  "name": "ipfsHash",
                  "type": "string"
                },
                {
                  "internalType": "uint256",
                  "name": "uploadDate",
                  "type": "uint256"
                },
                {
                  "internalType": "uint256",
                  "name": "leaseAgreementId",
                  "type": "uint256"
                }
              ],
              "internalType": "struct HousingRentalSystem.ContractFile",
              "name": "file",
              "type": "tuple"
            }
          ],
          "internalType": "struct HousingRentalSystem.LeaseAgreement[]",
          "name": "",
          "type": "tuple[]"
        }
      ],
      "stateMutability": "view",
      "type": "function",
      "constant": true
    },
    {
      "inputs": [
        {
          "internalType": "uint256",
          "name": "_id",
          "type": "uint256"
        }
      ],
      "name": "getLeaseAgreementById",
      "outputs": [
        {
          "components": [
            {
              "internalType": "uint256",
              "name": "id",
              "type": "uint256"
            },
            {
              "components": [
                {
                  "internalType": "address payable",
                  "name": "id",
                  "type": "address"
                },
                {
                  "internalType": "string",
                  "name": "name",
                  "type": "string"
                },
                {
                  "internalType": "string",
                  "name": "phoneNumber",
                  "type": "string"
                },
                {
                  "internalType": "string",
                  "name": "email",
                  "type": "string"
                }
              ],
              "internalType": "struct HousingRentalSystem.Tenant",
              "name": "tenant",
              "type": "tuple"
            },
            {
              "components": [
                {
                  "internalType": "uint256",
                  "name": "id",
                  "type": "uint256"
                },
                {
                  "components": [
                    {
                      "internalType": "address payable",
                      "name": "id",
                      "type": "address"
                    },
                    {
                      "internalType": "string",
                      "name": "name",
                      "type": "string"
                    },
                    {
                      "internalType": "string",
                      "name": "phoneNumber",
                      "type": "string"
                    },
                    {
                      "internalType": "string",
                      "name": "email",
                      "type": "string"
                    }
                  ],
                  "internalType": "struct HousingRentalSystem.Landlord",
                  "name": "landlord",
                  "type": "tuple"
                },
                {
                  "internalType": "string",
                  "name": "postalAddress",
                  "type": "string"
                },
                {
                  "internalType": "string",
                  "name": "description",
                  "type": "string"
                },
                {
                  "internalType": "uint256",
                  "name": "price",
                  "type": "uint256"
                },
                {
                  "internalType": "uint256",
                  "name": "securityDeposit",
                  "type": "uint256"
                },
                {
                  "internalType": "bool",
                  "name": "isRented",
                  "type": "bool"
                }
              ],
              "internalType": "struct HousingRentalSystem.Property",
              "name": "property",
              "type": "tuple"
            },
            {
              "internalType": "uint256",
              "name": "leaseStart",
              "type": "uint256"
            },
            {
              "internalType": "uint256",
              "name": "leaseDuration",
              "type": "uint256"
            },
            {
              "internalType": "uint256",
              "name": "totalRentPaid",
              "type": "uint256"
            },
            {
              "internalType": "enum HousingRentalSystem.State",
              "name": "state",
              "type": "uint8"
            },
            {
              "components": [
                {
                  "internalType": "string",
                  "name": "fileName",
                  "type": "string"
                },
                {
                  "internalType": "string",
                  "name": "ipfsHash",
                  "type": "string"
                },
                {
                  "internalType": "uint256",
                  "name": "uploadDate",
                  "type": "uint256"
                },
                {
                  "internalType": "uint256",
                  "name": "leaseAgreementId",
                  "type": "uint256"
                }
              ],
              "internalType": "struct HousingRentalSystem.ContractFile",
              "name": "file",
              "type": "tuple"
            }
          ],
          "internalType": "struct HousingRentalSystem.LeaseAgreement",
          "name": "",
          "type": "tuple"
        }
      ],
      "stateMutability": "view",
      "type": "function",
      "constant": true
    },
    {
      "inputs": [
        {
          "internalType": "uint256",
          "name": "agreementId",
          "type": "uint256"
        }
      ],
      "name": "acceptLeaseAgreement",
      "outputs": [],
      "stateMutability": "nonpayable",
      "type": "function"
    },
    {
      "inputs": [],
      "name": "getBalance",
      "outputs": [
        {
          "internalType": "uint256",
          "name": "",
          "type": "uint256"
        }
      ],
      "stateMutability": "view",
      "type": "function",
      "constant": true
    },
    {
      "inputs": [
        {
          "internalType": "uint256",
          "name": "agreementId",
          "type": "uint256"
        }
      ],
      "name": "payRent",
      "outputs": [],
      "stateMutability": "payable",
      "type": "function",
      "payable": true
    },
    {
      "inputs": [
        {
          "internalType": "uint256",
          "name": "agreementId",
          "type": "uint256"
        }
      ],
      "name": "returnProperty",
      "outputs": [],
      "stateMutability": "payable",
      "type": "function",
      "payable": true
    }
  ],
  "bytecode": "0x608060405234801561001057600080fd5b5060006001819055506000600481905550730567f2323251f0aab15c8dfb1967e4e8a7d42aee600760006101000a81548173ffffffffffffffffffffffffffffffffffffffff021916908373ffffffffffffffffffffffffffffffffffffffff160217905550615b4080620000866000396000f3fe6080604052600436106101145760003560e01c8063831b455d116100a0578063d9e8843f11610064578063d9e8843f146103ac578063db1271cd146103c8578063e4bc6a8714610405578063e810b5e114610421578063f7b108081461044c57610114565b8063831b455d146102975780638e15f473146102db578063909409ba14610307578063932353a2146103445780639f81311d1461036f57610114565b80632419c0db116100e75780632419c0db146101c15780634a5f66c1146101ea5780634d1f0a4e14610227578063749f0427146102505780637db9f7a51461026c57610114565b806311447e87146101195780631187b9361461014457806312065fe01461016d5780631f29b2ae14610198575b600080fd5b34801561012557600080fd5b5061012e61048f565b60405161013b9190613eb0565b60405180910390f35b34801561015057600080fd5b5061016b60048036038101906101669190613f43565b610495565b005b34801561017957600080fd5b50610182610509565b60405161018f9190613eb0565b60405180910390f35b3480156101a457600080fd5b506101bf60048036038101906101ba91906140c9565b610511565b005b3480156101cd57600080fd5b506101e860048036038101906101e391906141f7565b610783565b005b3480156101f657600080fd5b50610211600480360381019061020c9190614282565b610888565b60405161021e9190614353565b60405180910390f35b34801561023357600080fd5b5061024e60048036038101906102499190614375565b610b12565b005b61026a60048036038101906102659190614375565b610d86565b005b34801561027857600080fd5b50610281611083565b60405161028e9190613eb0565b60405180910390f35b3480156102a357600080fd5b506102be60048036038101906102b99190614375565b611089565b6040516102d29897969594939291906146b8565b60405180910390f35b3480156102e757600080fd5b506102f06117bd565b6040516102fe929190614780565b60405180910390f35b34801561031357600080fd5b5061032e60048036038101906103299190614375565b6118fa565b60405161033b9190613eb0565b60405180910390f35b34801561035057600080fd5b5061035961191e565b6040516103669190614abd565b60405180910390f35b34801561037b57600080fd5b5061039660048036038101906103919190614375565b612163565b6040516103a39190613eb0565b60405180910390f35b6103c660048036038101906103c19190614375565b612187565b005b3480156103d457600080fd5b506103ef60048036038101906103ea9190614375565b61239a565b6040516103fc9190614b9d565b60405180910390f35b61041f600480360381019061041a9190614cc1565b612bc1565b005b34801561042d57600080fd5b506104366134cd565b6040516104439190614e06565b60405180910390f35b34801561045857600080fd5b50610473600480360381019061046e9190614375565b61392d565b6040516104869796959493929190614ea8565b60405180910390f35b60015481565b600082116104d8576040517f08c379a00000000000000000000000000000000000000000000000000000000081526004016104cf90614f78565b60405180910390fd5b8060008084815260200190815260200160002060090160006101000a81548160ff0219169083151502179055505050565b600047905090565b60008511610554576040517f08c379a000000000000000000000000000000000000000000000000000000000815260040161054b90614fe4565b60405180910390fd5b6001600081548092919061056790615033565b91905055506040518060e00160405280600154815260200160405180608001604052803373ffffffffffffffffffffffffffffffffffffffff1681526020018681526020018581526020018481525081526020018881526020018781526020018681526020018581526020016000151581525060008060015481526020019081526020016000206000820151816000015560208201518160010160008201518160000160006101000a81548173ffffffffffffffffffffffffffffffffffffffff021916908373ffffffffffffffffffffffffffffffffffffffff1602179055506020820151816001019080519060200190610664929190613ca2565b506040820151816002019080519060200190610681929190613ca2565b50606082015181600301908051906020019061069e929190613ca2565b50505060408201518160050190805190602001906106bd929190613ca2565b5060608201518160060190805190602001906106da929190613ca2565b506080820151816007015560a0820151816008015560c08201518160090160006101000a81548160ff021916908315150217905550905050600260015490806001815401808255809150506001900390600052602060002001600090919091909150557fb6d8be5059e64702e2c7be877d9f278d0a00e059451566f3d548556ce6e2ec5e60015433876040516107729392919061508b565b60405180910390a150505050505050565b600060068460405161079591906150fe565b908152602001604051809103902060010180546107b190615144565b9050146107f3576040517f08c379a00000000000000000000000000000000000000000000000000000000081526004016107ea906151c2565b60405180910390fd5b60405180608001604052808481526020018381526020014281526020018281525060068460405161082491906150fe565b9081526020016040518091039020600082015181600001908051906020019061084e929190613ca2565b50602082015181600101908051906020019061086b929190613ca2565b506040820151816002015560608201518160030155905050505050565b6060600060068360405161089c91906150fe565b908152602001604051809103902060010180546108b890615144565b9050116108fa576040517f08c379a00000000000000000000000000000000000000000000000000000000081526004016108f19061522e565b60405180910390fd5b60006003600060068560405161091091906150fe565b9081526020016040518091039020600301548152602001908152602001600020600501600101905060006003600060068660405161094e91906150fe565b908152602001604051809103902060030154815260200190815260200160002060010190503373ffffffffffffffffffffffffffffffffffffffff168260000160009054906101000a900473ffffffffffffffffffffffffffffffffffffffff1673ffffffffffffffffffffffffffffffffffffffff161480610a2057503373ffffffffffffffffffffffffffffffffffffffff168160000160009054906101000a900473ffffffffffffffffffffffffffffffffffffffff1673ffffffffffffffffffffffffffffffffffffffff16145b610a5f576040517f08c379a0000000000000000000000000000000000000000000000000000000008152600401610a56906152c0565b60405180910390fd5b600684604051610a6f91906150fe565b90815260200160405180910390206001018054610a8b90615144565b80601f0160208091040260200160405190810160405280929190818152602001828054610ab790615144565b8015610b045780601f10610ad957610100808354040283529160200191610b04565b820191906000526020600020905b815481529060010190602001808311610ae757829003601f168201915b505050505092505050919050565b806003600082815260200190815260200160002060010160000160009054906101000a900473ffffffffffffffffffffffffffffffffffffffff1673ffffffffffffffffffffffffffffffffffffffff163373ffffffffffffffffffffffffffffffffffffffff1614610bba576040517f08c379a0000000000000000000000000000000000000000000000000000000008152600401610bb190615352565b60405180910390fd5b6004548211158015610bcc5750600082115b610c0b576040517f08c379a0000000000000000000000000000000000000000000000000000000008152600401610c02906153be565b60405180910390fd5b60006002811115610c1f57610c1e6145d7565b5b6003600084815260200190815260200160002060120160009054906101000a900460ff166002811115610c5557610c546145d7565b5b14610c95576040517f08c379a0000000000000000000000000000000000000000000000000000000008152600401610c8c90615450565b60405180910390fd5b3373ffffffffffffffffffffffffffffffffffffffff166003600084815260200190815260200160002060010160000160009054906101000a900473ffffffffffffffffffffffffffffffffffffffff1673ffffffffffffffffffffffffffffffffffffffff161415610d3d576040517f08c379a0000000000000000000000000000000000000000000000000000000008152600401610d34906154e2565b60405180910390fd5b600060036000848152602001908152602001600020905060018160120160006101000a81548160ff02191690836002811115610d7c57610d7b6145d7565b5b0217905550505050565b806003600082815260200190815260200160002060010160000160009054906101000a900473ffffffffffffffffffffffffffffffffffffffff1673ffffffffffffffffffffffffffffffffffffffff163373ffffffffffffffffffffffffffffffffffffffff1614610e2e576040517f08c379a0000000000000000000000000000000000000000000000000000000008152600401610e2590615352565b60405180910390fd5b6004548211158015610e405750600082115b610e7f576040517f08c379a0000000000000000000000000000000000000000000000000000000008152600401610e76906153be565b60405180910390fd5b600060036000848152602001908152602001600020905060016002811115610eaa57610ea96145d7565b5b8160120160009054906101000a900460ff166002811115610ece57610ecd6145d7565b5b14610f0e576040517f08c379a0000000000000000000000000000000000000000000000000000000008152600401610f0590615450565b60405180910390fd5b806011015481600501600701548260100154610f2a9190615502565b14610f6a576040517f08c379a0000000000000000000000000000000000000000000000000000000008152600401610f61906155ce565b60405180910390fd5b60028160120160006101000a81548160ff02191690836002811115610f9257610f916145d7565b5b021790555060008060008360050160000154815260200190815260200160002060090160006101000a81548160ff0219169083151502179055506000816011015490508160050160010160000160009054906101000a900473ffffffffffffffffffffffffffffffffffffffff1673ffffffffffffffffffffffffffffffffffffffff166108fc829081150290604051600060405180830381858888f19350505050158015611045573d6000803e3d6000fd5b507f9335f8fc7f600a68311f5461d958a3d6ef7d362b5e7874423ab90cc39ca0c9f2846040516110759190613eb0565b60405180910390a150505050565b60045481565b6003602052806000526040600020600091509050806000015490806001016040518060800160405290816000820160009054906101000a900473ffffffffffffffffffffffffffffffffffffffff1673ffffffffffffffffffffffffffffffffffffffff1673ffffffffffffffffffffffffffffffffffffffff16815260200160018201805461111890615144565b80601f016020809104026020016040519081016040528092919081815260200182805461114490615144565b80156111915780601f1061116657610100808354040283529160200191611191565b820191906000526020600020905b81548152906001019060200180831161117457829003601f168201915b505050505081526020016002820180546111aa90615144565b80601f01602080910402602001604051908101604052809291908181526020018280546111d690615144565b80156112235780601f106111f857610100808354040283529160200191611223565b820191906000526020600020905b81548152906001019060200180831161120657829003601f168201915b5050505050815260200160038201805461123c90615144565b80601f016020809104026020016040519081016040528092919081815260200182805461126890615144565b80156112b55780601f1061128a576101008083540402835291602001916112b5565b820191906000526020600020905b81548152906001019060200180831161129857829003601f168201915b50505050508152505090806005016040518060e001604052908160008201548152602001600182016040518060800160405290816000820160009054906101000a900473ffffffffffffffffffffffffffffffffffffffff1673ffffffffffffffffffffffffffffffffffffffff1673ffffffffffffffffffffffffffffffffffffffff16815260200160018201805461134e90615144565b80601f016020809104026020016040519081016040528092919081815260200182805461137a90615144565b80156113c75780601f1061139c576101008083540402835291602001916113c7565b820191906000526020600020905b8154815290600101906020018083116113aa57829003601f168201915b505050505081526020016002820180546113e090615144565b80601f016020809104026020016040519081016040528092919081815260200182805461140c90615144565b80156114595780601f1061142e57610100808354040283529160200191611459565b820191906000526020600020905b81548152906001019060200180831161143c57829003601f168201915b5050505050815260200160038201805461147290615144565b80601f016020809104026020016040519081016040528092919081815260200182805461149e90615144565b80156114eb5780601f106114c0576101008083540402835291602001916114eb565b820191906000526020600020905b8154815290600101906020018083116114ce57829003601f168201915b505050505081525050815260200160058201805461150890615144565b80601f016020809104026020016040519081016040528092919081815260200182805461153490615144565b80156115815780601f1061155657610100808354040283529160200191611581565b820191906000526020600020905b81548152906001019060200180831161156457829003601f168201915b5050505050815260200160068201805461159a90615144565b80601f01602080910402602001604051908101604052809291908181526020018280546115c690615144565b80156116135780601f106115e857610100808354040283529160200191611613565b820191906000526020600020905b8154815290600101906020018083116115f657829003601f168201915b5050505050815260200160078201548152602001600882015481526020016009820160009054906101000a900460ff1615151515815250509080600f0154908060100154908060110154908060120160009054906101000a900460ff16908060130160405180608001604052908160008201805461169090615144565b80601f01602080910402602001604051908101604052809291908181526020018280546116bc90615144565b80156117095780601f106116de57610100808354040283529160200191611709565b820191906000526020600020905b8154815290600101906020018083116116ec57829003601f168201915b5050505050815260200160018201805461172290615144565b80601f016020809104026020016040519081016040528092919081815260200182805461174e90615144565b801561179b5780601f106117705761010080835404028352916020019161179b565b820191906000526020600020905b81548152906001019060200180831161177e57829003601f168201915b5050505050815260200160028201548152602001600382015481525050905088565b6000806000600760009054906101000a900473ffffffffffffffffffffffffffffffffffffffff1673ffffffffffffffffffffffffffffffffffffffff1663feaf968c6040518163ffffffff1660e01b815260040160a060405180830381865afa15801561182f573d6000803e3d6000fd5b505050506040513d601f19601f820116820180604052508101906118539190615671565b5050509150506000600760009054906101000a900473ffffffffffffffffffffffffffffffffffffffff1673ffffffffffffffffffffffffffffffffffffffff1663313ce5676040518163ffffffff1660e01b8152600401602060405180830381865afa1580156118c8573d6000803e3d6000fd5b505050506040513d601f19601f820116820180604052508101906118ec9190615718565b905081819350935050509091565b6002818154811061190a57600080fd5b906000526020600020016000915090505481565b6060600060058054905067ffffffffffffffff81111561194157611940613f9e565b5b60405190808252806020026020018201604052801561197a57816020015b611967613d28565b81526020019060019003908161195f5790505b50905060005b60058054905081101561215b5760036000600583815481106119a5576119a4615745565b5b906000526020600020015481526020019081526020016000206040518061010001604052908160008201548152602001600182016040518060800160405290816000820160009054906101000a900473ffffffffffffffffffffffffffffffffffffffff1673ffffffffffffffffffffffffffffffffffffffff1673ffffffffffffffffffffffffffffffffffffffff168152602001600182018054611a4a90615144565b80601f0160208091040260200160405190810160405280929190818152602001828054611a7690615144565b8015611ac35780601f10611a9857610100808354040283529160200191611ac3565b820191906000526020600020905b815481529060010190602001808311611aa657829003601f168201915b50505050508152602001600282018054611adc90615144565b80601f0160208091040260200160405190810160405280929190818152602001828054611b0890615144565b8015611b555780601f10611b2a57610100808354040283529160200191611b55565b820191906000526020600020905b815481529060010190602001808311611b3857829003601f168201915b50505050508152602001600382018054611b6e90615144565b80601f0160208091040260200160405190810160405280929190818152602001828054611b9a90615144565b8015611be75780601f10611bbc57610100808354040283529160200191611be7565b820191906000526020600020905b815481529060010190602001808311611bca57829003601f168201915b5050505050815250508152602001600582016040518060e001604052908160008201548152602001600182016040518060800160405290816000820160009054906101000a900473ffffffffffffffffffffffffffffffffffffffff1673ffffffffffffffffffffffffffffffffffffffff1673ffffffffffffffffffffffffffffffffffffffff168152602001600182018054611c8490615144565b80601f0160208091040260200160405190810160405280929190818152602001828054611cb090615144565b8015611cfd5780601f10611cd257610100808354040283529160200191611cfd565b820191906000526020600020905b815481529060010190602001808311611ce057829003601f168201915b50505050508152602001600282018054611d1690615144565b80601f0160208091040260200160405190810160405280929190818152602001828054611d4290615144565b8015611d8f5780601f10611d6457610100808354040283529160200191611d8f565b820191906000526020600020905b815481529060010190602001808311611d7257829003601f168201915b50505050508152602001600382018054611da890615144565b80601f0160208091040260200160405190810160405280929190818152602001828054611dd490615144565b8015611e215780601f10611df657610100808354040283529160200191611e21565b820191906000526020600020905b815481529060010190602001808311611e0457829003601f168201915b5050505050815250508152602001600582018054611e3e90615144565b80601f0160208091040260200160405190810160405280929190818152602001828054611e6a90615144565b8015611eb75780601f10611e8c57610100808354040283529160200191611eb7565b820191906000526020600020905b815481529060010190602001808311611e9a57829003601f168201915b50505050508152602001600682018054611ed090615144565b80601f0160208091040260200160405190810160405280929190818152602001828054611efc90615144565b8015611f495780601f10611f1e57610100808354040283529160200191611f49565b820191906000526020600020905b815481529060010190602001808311611f2c57829003601f168201915b5050505050815260200160078201548152602001600882015481526020016009820160009054906101000a900460ff1615151515815250508152602001600f820154815260200160108201548152602001601182015481526020016012820160009054906101000a900460ff166002811115611fc857611fc76145d7565b5b6002811115611fda57611fd96145d7565b5b815260200160138201604051806080016040529081600082018054611ffe90615144565b80601f016020809104026020016040519081016040528092919081815260200182805461202a90615144565b80156120775780601f1061204c57610100808354040283529160200191612077565b820191906000526020600020905b81548152906001019060200180831161205a57829003601f168201915b5050505050815260200160018201805461209090615144565b80601f01602080910402602001604051908101604052809291908181526020018280546120bc90615144565b80156121095780601f106120de57610100808354040283529160200191612109565b820191906000526020600020905b8154815290600101906020018083116120ec57829003601f168201915b50505050508152602001600282015481526020016003820154815250508152505082828151811061213d5761213c615745565b5b6020026020010181905250808061215390615033565b915050611980565b508091505090565b6005818154811061217357600080fd5b906000526020600020016000915090505481565b806003600082815260200190815260200160002060010160000160009054906101000a900473ffffffffffffffffffffffffffffffffffffffff1673ffffffffffffffffffffffffffffffffffffffff163373ffffffffffffffffffffffffffffffffffffffff161461222f576040517f08c379a000000000000000000000000000000000000000000000000000000000815260040161222690615352565b60405180910390fd5b60045482111580156122415750600082115b612280576040517f08c379a0000000000000000000000000000000000000000000000000000000008152600401612277906153be565b60405180910390fd5b6000600360008481526020019081526020016000209050600160028111156122ab576122aa6145d7565b5b8160120160009054906101000a900460ff1660028111156122cf576122ce6145d7565b5b1461230f576040517f08c379a000000000000000000000000000000000000000000000000000000000815260040161230690615450565b60405180910390fd5b806010015460008083600001548152602001908152602001600020600701546123389190615502565b34111561237a576040517f08c379a0000000000000000000000000000000000000000000000000000000008152600401612371906157c0565b60405180910390fd5b3481601101600082825461238e91906157e0565b92505081905550505050565b6123a2613d28565b6000600580549050116123ea576040517f08c379a00000000000000000000000000000000000000000000000000000000081526004016123e190615882565b60405180910390fd5b6000821180156123fc57506004548211155b61243b576040517f08c379a0000000000000000000000000000000000000000000000000000000008152600401612432906158ee565b60405180910390fd5b600360008381526020019081526020016000206040518061010001604052908160008201548152602001600182016040518060800160405290816000820160009054906101000a900473ffffffffffffffffffffffffffffffffffffffff1673ffffffffffffffffffffffffffffffffffffffff1673ffffffffffffffffffffffffffffffffffffffff1681526020016001820180546124da90615144565b80601f016020809104026020016040519081016040528092919081815260200182805461250690615144565b80156125535780601f1061252857610100808354040283529160200191612553565b820191906000526020600020905b81548152906001019060200180831161253657829003601f168201915b5050505050815260200160028201805461256c90615144565b80601f016020809104026020016040519081016040528092919081815260200182805461259890615144565b80156125e55780601f106125ba576101008083540402835291602001916125e5565b820191906000526020600020905b8154815290600101906020018083116125c857829003601f168201915b505050505081526020016003820180546125fe90615144565b80601f016020809104026020016040519081016040528092919081815260200182805461262a90615144565b80156126775780601f1061264c57610100808354040283529160200191612677565b820191906000526020600020905b81548152906001019060200180831161265a57829003601f168201915b5050505050815250508152602001600582016040518060e001604052908160008201548152602001600182016040518060800160405290816000820160009054906101000a900473ffffffffffffffffffffffffffffffffffffffff1673ffffffffffffffffffffffffffffffffffffffff1673ffffffffffffffffffffffffffffffffffffffff16815260200160018201805461271490615144565b80601f016020809104026020016040519081016040528092919081815260200182805461274090615144565b801561278d5780601f106127625761010080835404028352916020019161278d565b820191906000526020600020905b81548152906001019060200180831161277057829003601f168201915b505050505081526020016002820180546127a690615144565b80601f01602080910402602001604051908101604052809291908181526020018280546127d290615144565b801561281f5780601f106127f45761010080835404028352916020019161281f565b820191906000526020600020905b81548152906001019060200180831161280257829003601f168201915b5050505050815260200160038201805461283890615144565b80601f016020809104026020016040519081016040528092919081815260200182805461286490615144565b80156128b15780601f10612886576101008083540402835291602001916128b1565b820191906000526020600020905b81548152906001019060200180831161289457829003601f168201915b50505050508152505081526020016005820180546128ce90615144565b80601f01602080910402602001604051908101604052809291908181526020018280546128fa90615144565b80156129475780601f1061291c57610100808354040283529160200191612947565b820191906000526020600020905b81548152906001019060200180831161292a57829003601f168201915b5050505050815260200160068201805461296090615144565b80601f016020809104026020016040519081016040528092919081815260200182805461298c90615144565b80156129d95780601f106129ae576101008083540402835291602001916129d9565b820191906000526020600020905b8154815290600101906020018083116129bc57829003601f168201915b5050505050815260200160078201548152602001600882015481526020016009820160009054906101000a900460ff1615151515815250508152602001600f820154815260200160108201548152602001601182015481526020016012820160009054906101000a900460ff166002811115612a5857612a576145d7565b5b6002811115612a6a57612a696145d7565b5b815260200160138201604051806080016040529081600082018054612a8e90615144565b80601f0160208091040260200160405190810160405280929190818152602001828054612aba90615144565b8015612b075780601f10612adc57610100808354040283529160200191612b07565b820191906000526020600020905b815481529060010190602001808311612aea57829003601f168201915b50505050508152602001600182018054612b2090615144565b80601f0160208091040260200160405190810160405280929190818152602001828054612b4c90615144565b8015612b995780601f10612b6e57610100808354040283529160200191612b99565b820191906000526020600020905b815481529060010190602001808311612b7c57829003601f168201915b5050505050815260200160028201548152602001600382015481525050815250509050919050565b60008060008581526020019081526020016000206040518060e001604052908160008201548152602001600182016040518060800160405290816000820160009054906101000a900473ffffffffffffffffffffffffffffffffffffffff1673ffffffffffffffffffffffffffffffffffffffff1673ffffffffffffffffffffffffffffffffffffffff168152602001600182018054612c6090615144565b80601f0160208091040260200160405190810160405280929190818152602001828054612c8c90615144565b8015612cd95780601f10612cae57610100808354040283529160200191612cd9565b820191906000526020600020905b815481529060010190602001808311612cbc57829003601f168201915b50505050508152602001600282018054612cf290615144565b80601f0160208091040260200160405190810160405280929190818152602001828054612d1e90615144565b8015612d6b5780601f10612d4057610100808354040283529160200191612d6b565b820191906000526020600020905b815481529060010190602001808311612d4e57829003601f168201915b50505050508152602001600382018054612d8490615144565b80601f0160208091040260200160405190810160405280929190818152602001828054612db090615144565b8015612dfd5780601f10612dd257610100808354040283529160200191612dfd565b820191906000526020600020905b815481529060010190602001808311612de057829003601f168201915b5050505050815250508152602001600582018054612e1a90615144565b80601f0160208091040260200160405190810160405280929190818152602001828054612e4690615144565b8015612e935780601f10612e6857610100808354040283529160200191612e93565b820191906000526020600020905b815481529060010190602001808311612e7657829003601f168201915b50505050508152602001600682018054612eac90615144565b80601f0160208091040260200160405190810160405280929190818152602001828054612ed890615144565b8015612f255780601f10612efa57610100808354040283529160200191612f25565b820191906000526020600020905b815481529060010190602001808311612f0857829003601f168201915b5050505050815260200160078201548152602001600882015481526020016009820160009054906101000a900460ff16151515158152505090506001548411158015612f715750600084115b612fb0576040517f08c379a0000000000000000000000000000000000000000000000000000000008152600401612fa790614f78565b60405180910390fd5b8060c0015115612ff5576040517f08c379a0000000000000000000000000000000000000000000000000000000008152600401612fec9061595a565b60405180910390fd5b60008085815260200190815260200160002060070154341461304c576040517f08c379a0000000000000000000000000000000000000000000000000000000008152600401613043906159c6565b60405180910390fd5b8060a001518214613092576040517f08c379a000000000000000000000000000000000000000000000000000000000815260040161308990615a58565b60405180910390fd5b846000015173ffffffffffffffffffffffffffffffffffffffff1681602001516000015173ffffffffffffffffffffffffffffffffffffffff16141561310d576040517f08c379a000000000000000000000000000000000000000000000000000000000815260040161310490615aea565b60405180910390fd5b6004600081548092919061312090615033565b91905055506040518061010001604052806004548152602001868152602001828152602001428152602001848152602001600081526020016000600281111561316c5761316b6145d7565b5b815260200160405180608001604052806040518060200160405280600081525081526020016040518060200160405280600081525081526020014281526020016004548152508152506003600060045481526020019081526020016000206000820151816000015560208201518160010160008201518160000160006101000a81548173ffffffffffffffffffffffffffffffffffffffff021916908373ffffffffffffffffffffffffffffffffffffffff1602179055506020820151816001019080519060200190613240929190613ca2565b50604082015181600201908051906020019061325d929190613ca2565b50606082015181600301908051906020019061327a929190613ca2565b5050506040820151816005016000820151816000015560208201518160010160008201518160000160006101000a81548173ffffffffffffffffffffffffffffffffffffffff021916908373ffffffffffffffffffffffffffffffffffffffff16021790555060208201518160010190805190602001906132fc929190613ca2565b506040820151816002019080519060200190613319929190613ca2565b506060820151816003019080519060200190613336929190613ca2565b5050506040820151816005019080519060200190613355929190613ca2565b506060820151816006019080519060200190613372929190613ca2565b506080820151816007015560a0820151816008015560c08201518160090160006101000a81548160ff0219169083151502179055505050606082015181600f01556080820151816010015560a0820151816011015560c08201518160120160006101000a81548160ff021916908360028111156133f2576133f16145d7565b5b021790555060e082015181601301600082015181600001908051906020019061341c929190613ca2565b506020820151816001019080519060200190613439929190613ca2565b506040820151816002015560608201518160030155505090505061345e846001610495565b600560045490806001815401808255809150506001900390600052602060002001600090919091909150557f1df07aa90d613a91b586481dbd79ac854db474e14e65acf2141897f9577086b660045433866040516134be9392919061508b565b60405180910390a15050505050565b6060600060028054905067ffffffffffffffff8111156134f0576134ef613f9e565b5b60405190808252806020026020018201604052801561352957816020015b613516613d91565b81526020019060019003908161350e5790505b50905060005b600280549050811015613925576000806002838154811061355357613552615745565b5b906000526020600020015481526020019081526020016000206040518060e001604052908160008201548152602001600182016040518060800160405290816000820160009054906101000a900473ffffffffffffffffffffffffffffffffffffffff1673ffffffffffffffffffffffffffffffffffffffff1673ffffffffffffffffffffffffffffffffffffffff1681526020016001820180546135f790615144565b80601f016020809104026020016040519081016040528092919081815260200182805461362390615144565b80156136705780601f1061364557610100808354040283529160200191613670565b820191906000526020600020905b81548152906001019060200180831161365357829003601f168201915b5050505050815260200160028201805461368990615144565b80601f01602080910402602001604051908101604052809291908181526020018280546136b590615144565b80156137025780601f106136d757610100808354040283529160200191613702565b820191906000526020600020905b8154815290600101906020018083116136e557829003601f168201915b5050505050815260200160038201805461371b90615144565b80601f016020809104026020016040519081016040528092919081815260200182805461374790615144565b80156137945780601f1061376957610100808354040283529160200191613794565b820191906000526020600020905b81548152906001019060200180831161377757829003601f168201915b50505050508152505081526020016005820180546137b190615144565b80601f01602080910402602001604051908101604052809291908181526020018280546137dd90615144565b801561382a5780601f106137ff5761010080835404028352916020019161382a565b820191906000526020600020905b81548152906001019060200180831161380d57829003601f168201915b5050505050815260200160068201805461384390615144565b80601f016020809104026020016040519081016040528092919081815260200182805461386f90615144565b80156138bc5780601f10613891576101008083540402835291602001916138bc565b820191906000526020600020905b81548152906001019060200180831161389f57829003601f168201915b5050505050815260200160078201548152602001600882015481526020016009820160009054906101000a900460ff16151515158152505082828151811061390757613906615745565b5b6020026020010181905250808061391d90615033565b91505061352f565b508091505090565b6000602052806000526040600020600091509050806000015490806001016040518060800160405290816000820160009054906101000a900473ffffffffffffffffffffffffffffffffffffffff1673ffffffffffffffffffffffffffffffffffffffff1673ffffffffffffffffffffffffffffffffffffffff1681526020016001820180546139bc90615144565b80601f01602080910402602001604051908101604052809291908181526020018280546139e890615144565b8015613a355780601f10613a0a57610100808354040283529160200191613a35565b820191906000526020600020905b815481529060010190602001808311613a1857829003601f168201915b50505050508152602001600282018054613a4e90615144565b80601f0160208091040260200160405190810160405280929190818152602001828054613a7a90615144565b8015613ac75780601f10613a9c57610100808354040283529160200191613ac7565b820191906000526020600020905b815481529060010190602001808311613aaa57829003601f168201915b50505050508152602001600382018054613ae090615144565b80601f0160208091040260200160405190810160405280929190818152602001828054613b0c90615144565b8015613b595780601f10613b2e57610100808354040283529160200191613b59565b820191906000526020600020905b815481529060010190602001808311613b3c57829003601f168201915b50505050508152505090806005018054613b7290615144565b80601f0160208091040260200160405190810160405280929190818152602001828054613b9e90615144565b8015613beb5780601f10613bc057610100808354040283529160200191613beb565b820191906000526020600020905b815481529060010190602001808311613bce57829003601f168201915b505050505090806006018054613c0090615144565b80601f0160208091040260200160405190810160405280929190818152602001828054613c2c90615144565b8015613c795780601f10613c4e57610100808354040283529160200191613c79565b820191906000526020600020905b815481529060010190602001808311613c5c57829003601f168201915b5050505050908060070154908060080154908060090160009054906101000a900460ff16905087565b828054613cae90615144565b90600052602060002090601f016020900481019282613cd05760008555613d17565b82601f10613ce957805160ff1916838001178555613d17565b82800160010185558215613d17579182015b82811115613d16578251825591602001919060010190613cfb565b5b509050613d249190613dd6565b5090565b60405180610100016040528060008152602001613d43613df3565b8152602001613d50613d91565b815260200160008152602001600081526020016000815260200160006002811115613d7e57613d7d6145d7565b5b8152602001613d8b613e31565b81525090565b6040518060e0016040528060008152602001613dab613e59565b8152602001606081526020016060815260200160008152602001600081526020016000151581525090565b5b80821115613def576000816000905550600101613dd7565b5090565b6040518060800160405280600073ffffffffffffffffffffffffffffffffffffffff1681526020016060815260200160608152602001606081525090565b6040518060800160405280606081526020016060815260200160008152602001600081525090565b6040518060800160405280600073ffffffffffffffffffffffffffffffffffffffff1681526020016060815260200160608152602001606081525090565b6000819050919050565b613eaa81613e97565b82525050565b6000602082019050613ec56000830184613ea1565b92915050565b6000604051905090565b600080fd5b600080fd5b613ee881613e97565b8114613ef357600080fd5b50565b600081359050613f0581613edf565b92915050565b60008115159050919050565b613f2081613f0b565b8114613f2b57600080fd5b50565b600081359050613f3d81613f17565b92915050565b60008060408385031215613f5a57613f59613ed5565b5b6000613f6885828601613ef6565b9250506020613f7985828601613f2e565b9150509250929050565b600080fd5b600080fd5b6000601f19601f8301169050919050565b7f4e487b7100000000000000000000000000000000000000000000000000000000600052604160045260246000fd5b613fd682613f8d565b810181811067ffffffffffffffff82111715613ff557613ff4613f9e565b5b80604052505050565b6000614008613ecb565b90506140148282613fcd565b919050565b600067ffffffffffffffff82111561403457614033613f9e565b5b61403d82613f8d565b9050602081019050919050565b82818337600083830152505050565b600061406c61406784614019565b613ffe565b90508281526020810184848401111561408857614087613f88565b5b61409384828561404a565b509392505050565b600082601f8301126140b0576140af613f83565b5b81356140c0848260208601614059565b91505092915050565b600080600080600080600060e0888a0312156140e8576140e7613ed5565b5b600088013567ffffffffffffffff81111561410657614105613eda565b5b6141128a828b0161409b565b975050602088013567ffffffffffffffff81111561413357614132613eda565b5b61413f8a828b0161409b565b96505060406141508a828b01613ef6565b95505060606141618a828b01613ef6565b945050608088013567ffffffffffffffff81111561418257614181613eda565b5b61418e8a828b0161409b565b93505060a088013567ffffffffffffffff8111156141af576141ae613eda565b5b6141bb8a828b0161409b565b92505060c088013567ffffffffffffffff8111156141dc576141db613eda565b5b6141e88a828b0161409b565b91505092959891949750929550565b6000806000606084860312156142105761420f613ed5565b5b600084013567ffffffffffffffff81111561422e5761422d613eda565b5b61423a8682870161409b565b935050602084013567ffffffffffffffff81111561425b5761425a613eda565b5b6142678682870161409b565b925050604061427886828701613ef6565b9150509250925092565b60006020828403121561429857614297613ed5565b5b600082013567ffffffffffffffff8111156142b6576142b5613eda565b5b6142c28482850161409b565b91505092915050565b600081519050919050565b600082825260208201905092915050565b60005b838110156143055780820151818401526020810190506142ea565b83811115614314576000848401525b50505050565b6000614325826142cb565b61432f81856142d6565b935061433f8185602086016142e7565b61434881613f8d565b840191505092915050565b6000602082019050818103600083015261436d818461431a565b905092915050565b60006020828403121561438b5761438a613ed5565b5b600061439984828501613ef6565b91505092915050565b600073ffffffffffffffffffffffffffffffffffffffff82169050919050565b60006143cd826143a2565b9050919050565b6143dd816143c2565b82525050565b600082825260208201905092915050565b60006143ff826142cb565b61440981856143e3565b93506144198185602086016142e7565b61442281613f8d565b840191505092915050565b600060808301600083015161444560008601826143d4565b506020830151848203602086015261445d82826143f4565b9150506040830151848203604086015261447782826143f4565b9150506060830151848203606086015261449182826143f4565b9150508091505092915050565b6144a781613e97565b82525050565b60006080830160008301516144c560008601826143d4565b50602083015184820360208601526144dd82826143f4565b915050604083015184820360408601526144f782826143f4565b9150506060830151848203606086015261451182826143f4565b9150508091505092915050565b61452781613f0b565b82525050565b600060e083016000830151614545600086018261449e565b506020830151848203602086015261455d82826144ad565b9150506040830151848203604086015261457782826143f4565b9150506060830151848203606086015261459182826143f4565b91505060808301516145a6608086018261449e565b5060a08301516145b960a086018261449e565b5060c08301516145cc60c086018261451e565b508091505092915050565b7f4e487b7100000000000000000000000000000000000000000000000000000000600052602160045260246000fd5b60038110614617576146166145d7565b5b50565b600081905061462882614606565b919050565b60006146388261461a565b9050919050565b6146488161462d565b82525050565b6000608083016000830151848203600086015261466b82826143f4565b9150506020830151848203602086015261468582826143f4565b915050604083015161469a604086018261449e565b5060608301516146ad606086018261449e565b508091505092915050565b6000610100820190506146ce600083018b613ea1565b81810360208301526146e0818a61442d565b905081810360408301526146f4818961452d565b90506147036060830188613ea1565b6147106080830187613ea1565b61471d60a0830186613ea1565b61472a60c083018561463f565b81810360e083015261473c818461464e565b90509998505050505050505050565b6000819050919050565b61475e8161474b565b82525050565b600060ff82169050919050565b61477a81614764565b82525050565b60006040820190506147956000830185614755565b6147a26020830184614771565b9392505050565b600081519050919050565b600082825260208201905092915050565b6000819050602082019050919050565b60006080830160008301516147ed60008601826143d4565b506020830151848203602086015261480582826143f4565b9150506040830151848203604086015261481f82826143f4565b9150506060830151848203606086015261483982826143f4565b9150508091505092915050565b600060e08301600083015161485e600086018261449e565b506020830151848203602086015261487682826144ad565b9150506040830151848203604086015261489082826143f4565b915050606083015184820360608601526148aa82826143f4565b91505060808301516148bf608086018261449e565b5060a08301516148d260a086018261449e565b5060c08301516148e560c086018261451e565b508091505092915050565b6148f98161462d565b82525050565b6000608083016000830151848203600086015261491c82826143f4565b9150506020830151848203602086015261493682826143f4565b915050604083015161494b604086018261449e565b50606083015161495e606086018261449e565b508091505092915050565b600061010083016000830151614982600086018261449e565b506020830151848203602086015261499a82826147d5565b915050604083015184820360408601526149b48282614846565b91505060608301516149c9606086018261449e565b5060808301516149dc608086018261449e565b5060a08301516149ef60a086018261449e565b5060c0830151614a0260c08601826148f0565b5060e083015184820360e0860152614a1a82826148ff565b9150508091505092915050565b6000614a338383614969565b905092915050565b6000602082019050919050565b6000614a53826147a9565b614a5d81856147b4565b935083602082028501614a6f856147c5565b8060005b85811015614aab5784840389528151614a8c8582614a27565b9450614a9783614a3b565b925060208a01995050600181019050614a73565b50829750879550505050505092915050565b60006020820190508181036000830152614ad78184614a48565b905092915050565b600061010083016000830151614af8600086018261449e565b5060208301518482036020860152614b1082826147d5565b91505060408301518482036040860152614b2a8282614846565b9150506060830151614b3f606086018261449e565b506080830151614b52608086018261449e565b5060a0830151614b6560a086018261449e565b5060c0830151614b7860c08601826148f0565b5060e083015184820360e0860152614b9082826148ff565b9150508091505092915050565b60006020820190508181036000830152614bb78184614adf565b905092915050565b600080fd5b600080fd5b614bd2816143c2565b8114614bdd57600080fd5b50565b600081359050614bef81614bc9565b92915050565b600060808284031215614c0b57614c0a614bbf565b5b614c156080613ffe565b90506000614c2584828501614be0565b600083015250602082013567ffffffffffffffff811115614c4957614c48614bc4565b5b614c558482850161409b565b602083015250604082013567ffffffffffffffff811115614c7957614c78614bc4565b5b614c858482850161409b565b604083015250606082013567ffffffffffffffff811115614ca957614ca8614bc4565b5b614cb58482850161409b565b60608301525092915050565b60008060008060808587031215614cdb57614cda613ed5565b5b600085013567ffffffffffffffff811115614cf957614cf8613eda565b5b614d0587828801614bf5565b9450506020614d1687828801613ef6565b9350506040614d2787828801613ef6565b9250506060614d3887828801613ef6565b91505092959194509250565b600081519050919050565b600082825260208201905092915050565b6000819050602082019050919050565b6000614d7c8383614846565b905092915050565b6000602082019050919050565b6000614d9c82614d44565b614da68185614d4f565b935083602082028501614db885614d60565b8060005b85811015614df45784840389528151614dd58582614d70565b9450614de083614d84565b925060208a01995050600181019050614dbc565b50829750879550505050505092915050565b60006020820190508181036000830152614e208184614d91565b905092915050565b6000608083016000830151614e4060008601826143d4565b5060208301518482036020860152614e5882826143f4565b91505060408301518482036040860152614e7282826143f4565b91505060608301518482036060860152614e8c82826143f4565b9150508091505092915050565b614ea281613f0b565b82525050565b600060e082019050614ebd600083018a613ea1565b8181036020830152614ecf8189614e28565b90508181036040830152614ee3818861431a565b90508181036060830152614ef7818761431a565b9050614f066080830186613ea1565b614f1360a0830185613ea1565b614f2060c0830184614e99565b98975050505050505050565b7f496e76616c69642070726f706572747920494400000000000000000000000000600082015250565b6000614f626013836142d6565b9150614f6d82614f2c565b602082019050919050565b60006020820190508181036000830152614f9181614f55565b9050919050565b7f5072696365206d7573742062652067726561746572207468616e203000000000600082015250565b6000614fce601c836142d6565b9150614fd982614f98565b602082019050919050565b60006020820190508181036000830152614ffd81614fc1565b9050919050565b7f4e487b7100000000000000000000000000000000000000000000000000000000600052601160045260246000fd5b600061503e82613e97565b91507fffffffffffffffffffffffffffffffffffffffffffffffffffffffffffffffff82141561507157615070615004565b5b600182019050919050565b615085816143c2565b82525050565b60006060820190506150a06000830186613ea1565b6150ad602083018561507c565b6150ba6040830184613ea1565b949350505050565b600081905092915050565b60006150d8826142cb565b6150e281856150c2565b93506150f28185602086016142e7565b80840191505092915050565b600061510a82846150cd565b915081905092915050565b7f4e487b7100000000000000000000000000000000000000000000000000000000600052602260045260246000fd5b6000600282049050600182168061515c57607f821691505b602082108114156151705761516f615115565b5b50919050565b7f46696c6520616c72656164792065786973747300000000000000000000000000600082015250565b60006151ac6013836142d6565b91506151b782615176565b602082019050919050565b600060208201905081810360008301526151db8161519f565b9050919050565b7f46696c65206e6f7420666f756e64000000000000000000000000000000000000600082015250565b6000615218600e836142d6565b9150615223826151e2565b602082019050919050565b600060208201905081810360008301526152478161520b565b9050919050565b7f596f7520646f6e742068617665207065726d697373696f6e7320746f2076696560008201527f7720746869732066696c65000000000000000000000000000000000000000000602082015250565b60006152aa602b836142d6565b91506152b58261524e565b604082019050919050565b600060208201905081810360008301526152d98161529d565b9050919050565b7f4f6e6c79207468652074656e616e742063616e20706572666f726d207468697360008201527f20616374696f6e00000000000000000000000000000000000000000000000000602082015250565b600061533c6027836142d6565b9150615347826152e0565b604082019050919050565b6000602082019050818103600083015261536b8161532f565b9050919050565b7f496e76616c69642061677265656d656e74204944000000000000000000000000600082015250565b60006153a86014836142d6565b91506153b382615372565b602082019050919050565b600060208201905081810360008301526153d78161539b565b9050919050565b7f4c6561736541677265656d656e7420697320696e20616e20696e76616c69642060008201527f7374617465000000000000000000000000000000000000000000000000000000602082015250565b600061543a6025836142d6565b9150615445826153de565b604082019050919050565b600060208201905081810360008301526154698161542d565b9050919050565b7f596f752063616e6e6f7420616363657074206c656173652061677265656d656e60008201527f742061732061206c616e646c6f72640000000000000000000000000000000000602082015250565b60006154cc602f836142d6565b91506154d782615470565b604082019050919050565b600060208201905081810360008301526154fb816154bf565b9050919050565b600061550d82613e97565b915061551883613e97565b9250817fffffffffffffffffffffffffffffffffffffffffffffffffffffffffffffffff048311821515161561555157615550615004565b5b828202905092915050565b7f4e6f7420616c6c20636f6e74726163742072656e74732068617665206265656e60008201527f2070616964207965740000000000000000000000000000000000000000000000602082015250565b60006155b86029836142d6565b91506155c38261555c565b604082019050919050565b600060208201905081810360008301526155e7816155ab565b9050919050565b600069ffffffffffffffffffff82169050919050565b61560d816155ee565b811461561857600080fd5b50565b60008151905061562a81615604565b92915050565b6156398161474b565b811461564457600080fd5b50565b60008151905061565681615630565b92915050565b60008151905061566b81613edf565b92915050565b600080600080600060a0868803121561568d5761568c613ed5565b5b600061569b8882890161561b565b95505060206156ac88828901615647565b94505060406156bd8882890161565c565b93505060606156ce8882890161565c565b92505060806156df8882890161561b565b9150509295509295909350565b6156f581614764565b811461570057600080fd5b50565b600081519050615712816156ec565b92915050565b60006020828403121561572e5761572d613ed5565b5b600061573c84828501615703565b91505092915050565b7f4e487b7100000000000000000000000000000000000000000000000000000000600052603260045260246000fd5b7f496e636f72726563742052656e7420616d6f756e740000000000000000000000600082015250565b60006157aa6015836142d6565b91506157b582615774565b602082019050919050565b600060208201905081810360008301526157d98161579d565b9050919050565b60006157eb82613e97565b91506157f683613e97565b9250827fffffffffffffffffffffffffffffffffffffffffffffffffffffffffffffffff0382111561582b5761582a615004565b5b828201905092915050565b7f4e6f206c656173652061677265656d656e747320657869737400000000000000600082015250565b600061586c6019836142d6565b915061587782615836565b602082019050919050565b6000602082019050818103600083015261589b8161585f565b9050919050565b7f496e76616c6964206c656173652061677265656d656e74204944000000000000600082015250565b60006158d8601a836142d6565b91506158e3826158a2565b602082019050919050565b60006020820190508181036000830152615907816158cb565b9050919050565b7f50726f706572747920697320616c72656164792072656e746564000000000000600082015250565b6000615944601a836142d6565b915061594f8261590e565b602082019050919050565b6000602082019050818103600083015261597381615937565b9050919050565b7f496e73756666696369656e74207061796d656e74000000000000000000000000600082015250565b60006159b06014836142d6565b91506159bb8261597a565b602082019050919050565b600060208201905081810360008301526159df816159a3565b9050919050565b7f4465706f73697420646f6573206e6f74206d6174636820746f2074686520707260008201527f6f7065727479206465706f736974000000000000000000000000000000000000602082015250565b6000615a42602e836142d6565b9150615a4d826159e6565b604082019050919050565b60006020820190508181036000830152615a7181615a35565b9050919050565b7f5468652070726f70657274792063616e6e6f742062652072656e74656420627960008201527f2074686520706572736f6e2072656e74696e672069742e000000000000000000602082015250565b6000615ad46037836142d6565b9150615adf82615a78565b604082019050919050565b60006020820190508181036000830152615b0381615ac7565b905091905056fea264697066735822122028256303608ec5c2fae8d15c6391c650f46267db6569d29d034260a8d52b191c64736f6c634300080a0033",
  "immutableReferences": {},
  "source": "// SPDX-License-Identifier: GPL-3.0\r\npragma solidity ^0.8.10;\r\nimport \"@chainlink/contracts/src/v0.8/interfaces/AggregatorV3Interface.sol\";\r\n\r\ncontract HousingRentalSystem {\r\n    enum State {\r\n        Created,\r\n        Started,\r\n        Terminated\r\n    }\r\n\r\n    struct Landlord {\r\n        address payable id;\r\n        string name;\r\n        string phoneNumber;\r\n        string email;\r\n    }\r\n\r\n    struct Tenant {\r\n        address payable id;\r\n        string name;\r\n        string phoneNumber;\r\n        string email;\r\n    }\r\n\r\n    struct Property {\r\n        uint256 id;\r\n        Landlord landlord;\r\n        string postalAddress;\r\n        string description;\r\n        uint price;\r\n        uint securityDeposit;\r\n        bool isRented;\r\n    }\r\n\r\n    struct LeaseAgreement {\r\n        uint256 id;\r\n        Tenant tenant;\r\n        Property property;\r\n        uint leaseStart;\r\n        uint leaseDuration;\r\n        uint totalRentPaid;\r\n        State state;\r\n        ContractFile file;\r\n    }\r\n\r\n    struct ContractFile {\r\n        string fileName;\r\n        string ipfsHash;\r\n        uint uploadDate;\r\n        uint256 leaseAgreementId;\r\n    }\r\n\r\n    mapping(uint256 => Property) public properties;\r\n    uint256 public propertiesCount;\r\n    uint256[] public propertiesKeys;\r\n    mapping(uint256 => LeaseAgreement) public leaseAgreements;\r\n    uint256 public leaseAgreementCount;\r\n    uint256[] public leaseAgreementKeys;\r\n    mapping(string => ContractFile) private files;\r\n    AggregatorV3Interface internal priceFeed;\r\n\r\n    event PropertyAdded(\r\n        uint256 propertyId,\r\n        address payable landlord,\r\n        uint256 price\r\n    );\r\n    event PropertyReturned(uint256 agreementId);\r\n    event PropertyProposalRent(\r\n        uint256 agreementId,\r\n        address payable tenant,\r\n        uint256 houseId,\r\n        uint256 duration\r\n    );\r\n    event PropertyPaid(uint256 agreementId, uint256 amount);\r\n    event LeaseAgreementProposal(\r\n        uint256 leaseAgreementCount,\r\n        address payable tenant,\r\n        uint propertyId\r\n    );\r\n\r\n    constructor() {\r\n        propertiesCount = 0;\r\n        leaseAgreementCount = 0;\r\n        priceFeed = AggregatorV3Interface(\r\n            0x0567F2323251f0Aab15c8dFb1967E4e8A7D42aeE\r\n        );\r\n    }\r\n\r\n    function getLatestPrice() public view returns (int256, uint8) {\r\n        (, int256 price, , , ) = priceFeed.latestRoundData();\r\n        uint8 decimals = priceFeed.decimals();\r\n        return (price, decimals);\r\n    }\r\n\r\n    function uploadFile(\r\n        string memory fileName,\r\n        string memory ipfsHash,\r\n        uint256 leaseAgreementId\r\n    ) public {\r\n        require(\r\n            bytes(files[fileName].ipfsHash).length == 0,\r\n            \"File already exists\"\r\n        );\r\n        files[fileName] = ContractFile(\r\n            fileName,\r\n            ipfsHash,\r\n            block.timestamp,\r\n            leaseAgreementId\r\n        );\r\n    }\r\n\r\n    function getIPFSHash(\r\n        string memory fileName\r\n    ) public view returns (string memory) {\r\n        require(bytes(files[fileName].ipfsHash).length > 0, \"File not found\");\r\n        Landlord storage landlord = leaseAgreements[\r\n            files[fileName].leaseAgreementId\r\n        ].property.landlord;\r\n        Tenant storage tenant = leaseAgreements[\r\n            files[fileName].leaseAgreementId\r\n        ].tenant;\r\n        require(\r\n            landlord.id == msg.sender || tenant.id == msg.sender,\r\n            \"You dont have permissions to view this file\"\r\n        );\r\n        return files[fileName].ipfsHash;\r\n    }\r\n\r\n    function registerProperty(\r\n        string memory postalAddress,\r\n        string memory description,\r\n        uint price,\r\n        uint securityDeposit,\r\n        string memory landlordName,\r\n        string memory landlordPhone,\r\n        string memory landlordEmail\r\n    ) external {\r\n        require(price > 0, \"Price must be greater than 0\");\r\n        propertiesCount++;\r\n        properties[propertiesCount] = Property({\r\n            id: propertiesCount,\r\n            landlord: Landlord({\r\n                id: payable(msg.sender),\r\n                name: landlordName,\r\n                phoneNumber: landlordPhone,\r\n                email: landlordEmail\r\n            }),\r\n            description: description,\r\n            postalAddress: postalAddress,\r\n            price: price,\r\n            securityDeposit: securityDeposit,\r\n            isRented: false\r\n        });\r\n        propertiesKeys.push(propertiesCount);\r\n        emit PropertyAdded(propertiesCount, payable(msg.sender), price);\r\n    }\r\n\r\n    function rentProperty(\r\n        Tenant memory tenant,\r\n        uint256 propertyId,\r\n        uint256 duration,\r\n        uint256 deposit\r\n    ) public payable {\r\n        Property memory property = properties[propertyId];\r\n        require(\r\n            propertyId <= propertiesCount && propertyId > 0,\r\n            \"Invalid property ID\"\r\n        );\r\n        require(!property.isRented, \"Property is already rented\");\r\n        require(\r\n            msg.value == properties[propertyId].price,\r\n            \"Insufficient payment\"\r\n        );\r\n        require(\r\n            deposit == property.securityDeposit,\r\n            \"Deposit does not match to the property deposit\"\r\n        );\r\n        require(\r\n            property.landlord.id != tenant.id,\r\n            \"The property cannot be rented by the person renting it.\"\r\n        );\r\n\r\n        leaseAgreementCount++;\r\n        leaseAgreements[leaseAgreementCount] = LeaseAgreement({\r\n            id: leaseAgreementCount,\r\n            tenant: tenant,\r\n            property: property,\r\n            leaseStart: block.timestamp,\r\n            leaseDuration: duration,\r\n            totalRentPaid: 0,\r\n            state: State.Created,\r\n            file: ContractFile(\"\", \"\", block.timestamp, leaseAgreementCount)\r\n        });\r\n        setPropertyRented(propertyId, true);\r\n        leaseAgreementKeys.push(leaseAgreementCount);\r\n        emit LeaseAgreementProposal(\r\n            leaseAgreementCount,\r\n            payable(msg.sender),\r\n            propertyId\r\n        );\r\n    }\r\n\r\n    function setPropertyRented(uint256 propertyId, bool rented) public {\r\n        require(propertyId > 0, \"Invalid property ID\");\r\n        properties[propertyId].isRented = rented;\r\n    }\r\n\r\n    function getRegisteredProperties()\r\n        external\r\n        view\r\n        returns (Property[] memory)\r\n    {\r\n        Property[] memory result = new Property[](propertiesKeys.length);\r\n        for (uint256 i = 0; i < propertiesKeys.length; i++) {\r\n            result[i] = properties[propertiesKeys[i]];\r\n        }\r\n        return result;\r\n    }\r\n\r\n    modifier onlyTenant(uint256 agreementId) {\r\n        require(\r\n            msg.sender == leaseAgreements[agreementId].tenant.id,\r\n            \"Only the tenant can perform this action\"\r\n        );\r\n        _;\r\n    }\r\n\r\n    function getRegisteredLeaseAgreement()\r\n        external\r\n        view\r\n        returns (LeaseAgreement[] memory)\r\n    {\r\n        LeaseAgreement[] memory result = new LeaseAgreement[](\r\n            leaseAgreementKeys.length\r\n        );\r\n        for (uint256 i = 0; i < leaseAgreementKeys.length; i++) {\r\n            result[i] = leaseAgreements[leaseAgreementKeys[i]];\r\n        }\r\n        return result;\r\n    }\r\n\r\n    function getLeaseAgreementById(\r\n        uint256 _id\r\n    ) public view returns (LeaseAgreement memory) {\r\n        require(leaseAgreementKeys.length > 0, \"No lease agreements exist\");\r\n        require(\r\n            _id > 0 && _id <= leaseAgreementCount,\r\n            \"Invalid lease agreement ID\"\r\n        );\r\n        return leaseAgreements[_id];\r\n    }\r\n\r\n    function acceptLeaseAgreement(\r\n        uint256 agreementId\r\n    ) external onlyTenant(agreementId) {\r\n        require(\r\n            agreementId <= leaseAgreementCount && agreementId > 0,\r\n            \"Invalid agreement ID\"\r\n        );\r\n        require(\r\n            leaseAgreements[agreementId].state == State.Created,\r\n            \"LeaseAgreement is in an invalid state\"\r\n        );\r\n        require(\r\n            leaseAgreements[agreementId].tenant.id != msg.sender,\r\n            \"You cannot accept lease agreement as a landlord\"\r\n        );\r\n        LeaseAgreement storage agreement = leaseAgreements[agreementId];\r\n        agreement.state = State.Started;\r\n        //TODO set file to agreement contract\r\n    }\r\n\r\n    function getBalance() external view returns (uint256) {\r\n        return address(this).balance;\r\n    }\r\n\r\n    function payRent(\r\n        uint256 agreementId\r\n    ) external payable onlyTenant(agreementId) {\r\n        require(\r\n            agreementId <= leaseAgreementCount && agreementId > 0,\r\n            \"Invalid agreement ID\"\r\n        );\r\n        LeaseAgreement storage agreement = leaseAgreements[agreementId];\r\n        require(\r\n            agreement.state == State.Started,\r\n            \"LeaseAgreement is in an invalid state\"\r\n        );\r\n        require(\r\n            msg.value <=\r\n                properties[agreement.id].price * agreement.leaseDuration,\r\n            \"Incorrect Rent amount\"\r\n        );\r\n        agreement.totalRentPaid += msg.value;\r\n    }\r\n\r\n    function returnProperty(\r\n        uint256 agreementId\r\n    ) external payable onlyTenant(agreementId) {\r\n        require(\r\n            agreementId <= leaseAgreementCount && agreementId > 0,\r\n            \"Invalid agreement ID\"\r\n        );\r\n        LeaseAgreement storage agreement = leaseAgreements[agreementId];\r\n        require(\r\n            agreement.state == State.Started,\r\n            \"LeaseAgreement is in an invalid state\"\r\n        );\r\n        require(\r\n            agreement.leaseDuration * agreement.property.price ==\r\n                agreement.totalRentPaid,\r\n            \"Not all contract rents have been paid yet\"\r\n        );\r\n        agreement.state = State.Terminated;\r\n        properties[agreement.property.id].isRented = false;\r\n        uint256 rentAmount = agreement.totalRentPaid;\r\n        payable(agreement.property.landlord.id).transfer(rentAmount);\r\n        emit PropertyReturned(agreementId);\r\n    }\r\n}\r\n",
  "sourcePath": "C:\\Users\\UO251408\\Desktop\\TFM\\housing-rental-backend\\contracts\\HousingRentalSystem.sol",
  "compiler": {
    "name": "solc",
    "version": "0.8.10+commit.fc410830.Emscripten.clang"
  },
  "schemaVersion": "3.4.12",
  "updatedAt": "2024-03-27T00:48:21.904Z",
  "networkType": "ethereum",
  "devdoc": {
    "kind": "dev",
    "methods": {},
    "version": 1
  },
  "userdoc": {
    "kind": "user",
    "methods": {},
    "version": 1
  }
}