{
  "contractName": "HousingRentalSystem",
  "abi": [
    {
      "inputs": [],
      "stateMutability": "nonpayable",
      "type": "constructor"
    },
    {
      "inputs": [],
      "name": "LeaseAgreementCount",
      "outputs": [
        {
          "internalType": "uint256",
          "name": "",
          "type": "uint256"
        }
      ],
      "stateMutability": "view",
      "type": "function"
    },
    {
      "inputs": [
        {
          "internalType": "uint256",
          "name": "",
          "type": "uint256"
        }
      ],
      "name": "leaseAgreements",
      "outputs": [
        {
          "internalType": "uint256",
          "name": "id",
          "type": "uint256"
        },
        {
          "components": [
            {
              "internalType": "address",
              "name": "id",
              "type": "address"
            },
            {
              "internalType": "string",
              "name": "name",
              "type": "string"
            },
            {
              "internalType": "string",
              "name": "phoneNumber",
              "type": "string"
            },
            {
              "internalType": "string",
              "name": "email",
              "type": "string"
            }
          ],
          "internalType": "struct HousingRentalSystem.Tenant",
          "name": "tenant",
          "type": "tuple"
        },
        {
          "components": [
            {
              "internalType": "uint256",
              "name": "id",
              "type": "uint256"
            },
            {
              "components": [
                {
                  "internalType": "address",
                  "name": "id",
                  "type": "address"
                },
                {
                  "internalType": "string",
                  "name": "name",
                  "type": "string"
                },
                {
                  "internalType": "string",
                  "name": "phoneNumber",
                  "type": "string"
                },
                {
                  "internalType": "string",
                  "name": "email",
                  "type": "string"
                }
              ],
              "internalType": "struct HousingRentalSystem.Landlord",
              "name": "landlord",
              "type": "tuple"
            },
            {
              "internalType": "string",
              "name": "postalAddress",
              "type": "string"
            },
            {
              "internalType": "string",
              "name": "description",
              "type": "string"
            },
            {
              "internalType": "uint256",
              "name": "price",
              "type": "uint256"
            },
            {
              "internalType": "uint256",
              "name": "securityDeposit",
              "type": "uint256"
            },
            {
              "internalType": "bool",
              "name": "isRented",
              "type": "bool"
            }
          ],
          "internalType": "struct HousingRentalSystem.Property",
          "name": "property",
          "type": "tuple"
        },
        {
          "internalType": "uint256",
          "name": "leaseStart",
          "type": "uint256"
        },
        {
          "internalType": "uint256",
          "name": "leaseDuration",
          "type": "uint256"
        },
        {
          "internalType": "uint256",
          "name": "totalRentPaid",
          "type": "uint256"
        },
        {
          "internalType": "enum HousingRentalSystem.State",
          "name": "state",
          "type": "uint8"
        }
      ],
      "stateMutability": "view",
      "type": "function"
    },
    {
      "inputs": [
        {
          "internalType": "uint256",
          "name": "",
          "type": "uint256"
        }
      ],
      "name": "properties",
      "outputs": [
        {
          "internalType": "uint256",
          "name": "id",
          "type": "uint256"
        },
        {
          "components": [
            {
              "internalType": "address",
              "name": "id",
              "type": "address"
            },
            {
              "internalType": "string",
              "name": "name",
              "type": "string"
            },
            {
              "internalType": "string",
              "name": "phoneNumber",
              "type": "string"
            },
            {
              "internalType": "string",
              "name": "email",
              "type": "string"
            }
          ],
          "internalType": "struct HousingRentalSystem.Landlord",
          "name": "landlord",
          "type": "tuple"
        },
        {
          "internalType": "string",
          "name": "postalAddress",
          "type": "string"
        },
        {
          "internalType": "string",
          "name": "description",
          "type": "string"
        },
        {
          "internalType": "uint256",
          "name": "price",
          "type": "uint256"
        },
        {
          "internalType": "uint256",
          "name": "securityDeposit",
          "type": "uint256"
        },
        {
          "internalType": "bool",
          "name": "isRented",
          "type": "bool"
        }
      ],
      "stateMutability": "view",
      "type": "function"
    },
    {
      "inputs": [],
      "name": "propertiesCount",
      "outputs": [
        {
          "internalType": "uint256",
          "name": "",
          "type": "uint256"
        }
      ],
      "stateMutability": "view",
      "type": "function"
    },
    {
      "inputs": [
        {
          "internalType": "string",
          "name": "postalAddress",
          "type": "string"
        },
        {
          "internalType": "string",
          "name": "description",
          "type": "string"
        },
        {
          "internalType": "uint256",
          "name": "price",
          "type": "uint256"
        },
        {
          "internalType": "uint256",
          "name": "securityDeposit",
          "type": "uint256"
        },
        {
          "internalType": "string",
          "name": "landlordName",
          "type": "string"
        },
        {
          "internalType": "string",
          "name": "landlordPhone",
          "type": "string"
        },
        {
          "internalType": "string",
          "name": "landlordEmail",
          "type": "string"
        }
      ],
      "name": "registerProperty",
      "outputs": [],
      "stateMutability": "nonpayable",
      "type": "function"
    }
  ],
  "bytecode": "0x608060405234801561001057600080fd5b506000600181905550600060038190555061168b806100306000396000f3fe608060405234801561001057600080fd5b50600436106100575760003560e01c806311447e871461005c5780631f29b2ae1461007a5780635c5a854814610096578063831b455d146100b4578063f7b10808146100ea575b600080fd5b610064610120565b6040516100719190610d53565b60405180910390f35b610094600480360381019061008f9190610ef4565b610126565b005b61009e610330565b6040516100ab9190610d53565b60405180910390f35b6100ce60048036038101906100c99190611022565b610336565b6040516100e19796959493929190611345565b60405180910390f35b61010460048036038101906100ff9190611022565b610922565b604051610117979695949392919061148c565b60405180910390f35b60015481565b60008511610169576040517f08c379a00000000000000000000000000000000000000000000000000000000081526004016101609061155c565b60405180910390fd5b6001600081548092919061017c906115ab565b91905055506040518060e00160405280600154815260200160405180608001604052803373ffffffffffffffffffffffffffffffffffffffff1681526020018681526020018581526020018481525081526020018881526020018781526020018681526020018581526020016000151581525060008060015481526020019081526020016000206000820151816000015560208201518160010160008201518160000160006101000a81548173ffffffffffffffffffffffffffffffffffffffff021916908373ffffffffffffffffffffffffffffffffffffffff1602179055506020820151816001019080519060200190610279929190610c97565b506040820151816002019080519060200190610296929190610c97565b5060608201518160030190805190602001906102b3929190610c97565b50505060408201518160050190805190602001906102d2929190610c97565b5060608201518160060190805190602001906102ef929190610c97565b506080820151816007015560a0820151816008015560c08201518160090160006101000a81548160ff02191690831515021790555090505050505050505050565b60035481565b6002602052806000526040600020600091509050806000015490806001016040518060800160405290816000820160009054906101000a900473ffffffffffffffffffffffffffffffffffffffff1673ffffffffffffffffffffffffffffffffffffffff1673ffffffffffffffffffffffffffffffffffffffff1681526020016001820180546103c590611623565b80601f01602080910402602001604051908101604052809291908181526020018280546103f190611623565b801561043e5780601f106104135761010080835404028352916020019161043e565b820191906000526020600020905b81548152906001019060200180831161042157829003601f168201915b5050505050815260200160028201805461045790611623565b80601f016020809104026020016040519081016040528092919081815260200182805461048390611623565b80156104d05780601f106104a5576101008083540402835291602001916104d0565b820191906000526020600020905b8154815290600101906020018083116104b357829003601f168201915b505050505081526020016003820180546104e990611623565b80601f016020809104026020016040519081016040528092919081815260200182805461051590611623565b80156105625780601f1061053757610100808354040283529160200191610562565b820191906000526020600020905b81548152906001019060200180831161054557829003601f168201915b50505050508152505090806005016040518060e001604052908160008201548152602001600182016040518060800160405290816000820160009054906101000a900473ffffffffffffffffffffffffffffffffffffffff1673ffffffffffffffffffffffffffffffffffffffff1673ffffffffffffffffffffffffffffffffffffffff1681526020016001820180546105fb90611623565b80601f016020809104026020016040519081016040528092919081815260200182805461062790611623565b80156106745780601f1061064957610100808354040283529160200191610674565b820191906000526020600020905b81548152906001019060200180831161065757829003601f168201915b5050505050815260200160028201805461068d90611623565b80601f01602080910402602001604051908101604052809291908181526020018280546106b990611623565b80156107065780601f106106db57610100808354040283529160200191610706565b820191906000526020600020905b8154815290600101906020018083116106e957829003601f168201915b5050505050815260200160038201805461071f90611623565b80601f016020809104026020016040519081016040528092919081815260200182805461074b90611623565b80156107985780601f1061076d57610100808354040283529160200191610798565b820191906000526020600020905b81548152906001019060200180831161077b57829003601f168201915b50505050508152505081526020016005820180546107b590611623565b80601f01602080910402602001604051908101604052809291908181526020018280546107e190611623565b801561082e5780601f106108035761010080835404028352916020019161082e565b820191906000526020600020905b81548152906001019060200180831161081157829003601f168201915b5050505050815260200160068201805461084790611623565b80601f016020809104026020016040519081016040528092919081815260200182805461087390611623565b80156108c05780601f10610895576101008083540402835291602001916108c0565b820191906000526020600020905b8154815290600101906020018083116108a357829003601f168201915b5050505050815260200160078201548152602001600882015481526020016009820160009054906101000a900460ff1615151515815250509080600f0154908060100154908060110154908060120160009054906101000a900460ff16905087565b6000602052806000526040600020600091509050806000015490806001016040518060800160405290816000820160009054906101000a900473ffffffffffffffffffffffffffffffffffffffff1673ffffffffffffffffffffffffffffffffffffffff1673ffffffffffffffffffffffffffffffffffffffff1681526020016001820180546109b190611623565b80601f01602080910402602001604051908101604052809291908181526020018280546109dd90611623565b8015610a2a5780601f106109ff57610100808354040283529160200191610a2a565b820191906000526020600020905b815481529060010190602001808311610a0d57829003601f168201915b50505050508152602001600282018054610a4390611623565b80601f0160208091040260200160405190810160405280929190818152602001828054610a6f90611623565b8015610abc5780601f10610a9157610100808354040283529160200191610abc565b820191906000526020600020905b815481529060010190602001808311610a9f57829003601f168201915b50505050508152602001600382018054610ad590611623565b80601f0160208091040260200160405190810160405280929190818152602001828054610b0190611623565b8015610b4e5780601f10610b2357610100808354040283529160200191610b4e565b820191906000526020600020905b815481529060010190602001808311610b3157829003601f168201915b50505050508152505090806005018054610b6790611623565b80601f0160208091040260200160405190810160405280929190818152602001828054610b9390611623565b8015610be05780601f10610bb557610100808354040283529160200191610be0565b820191906000526020600020905b815481529060010190602001808311610bc357829003601f168201915b505050505090806006018054610bf590611623565b80601f0160208091040260200160405190810160405280929190818152602001828054610c2190611623565b8015610c6e5780601f10610c4357610100808354040283529160200191610c6e565b820191906000526020600020905b815481529060010190602001808311610c5157829003601f168201915b5050505050908060070154908060080154908060090160009054906101000a900460ff16905087565b828054610ca390611623565b90600052602060002090601f016020900481019282610cc55760008555610d0c565b82601f10610cde57805160ff1916838001178555610d0c565b82800160010185558215610d0c579182015b82811115610d0b578251825591602001919060010190610cf0565b5b509050610d199190610d1d565b5090565b5b80821115610d36576000816000905550600101610d1e565b5090565b6000819050919050565b610d4d81610d3a565b82525050565b6000602082019050610d686000830184610d44565b92915050565b6000604051905090565b600080fd5b600080fd5b600080fd5b600080fd5b6000601f19601f8301169050919050565b7f4e487b7100000000000000000000000000000000000000000000000000000000600052604160045260246000fd5b610dd582610d8c565b810181811067ffffffffffffffff82111715610df457610df3610d9d565b5b80604052505050565b6000610e07610d6e565b9050610e138282610dcc565b919050565b600067ffffffffffffffff821115610e3357610e32610d9d565b5b610e3c82610d8c565b9050602081019050919050565b82818337600083830152505050565b6000610e6b610e6684610e18565b610dfd565b905082815260208101848484011115610e8757610e86610d87565b5b610e92848285610e49565b509392505050565b600082601f830112610eaf57610eae610d82565b5b8135610ebf848260208601610e58565b91505092915050565b610ed181610d3a565b8114610edc57600080fd5b50565b600081359050610eee81610ec8565b92915050565b600080600080600080600060e0888a031215610f1357610f12610d78565b5b600088013567ffffffffffffffff811115610f3157610f30610d7d565b5b610f3d8a828b01610e9a565b975050602088013567ffffffffffffffff811115610f5e57610f5d610d7d565b5b610f6a8a828b01610e9a565b9650506040610f7b8a828b01610edf565b9550506060610f8c8a828b01610edf565b945050608088013567ffffffffffffffff811115610fad57610fac610d7d565b5b610fb98a828b01610e9a565b93505060a088013567ffffffffffffffff811115610fda57610fd9610d7d565b5b610fe68a828b01610e9a565b92505060c088013567ffffffffffffffff81111561100757611006610d7d565b5b6110138a828b01610e9a565b91505092959891949750929550565b60006020828403121561103857611037610d78565b5b600061104684828501610edf565b91505092915050565b600073ffffffffffffffffffffffffffffffffffffffff82169050919050565b600061107a8261104f565b9050919050565b61108a8161106f565b82525050565b600081519050919050565b600082825260208201905092915050565b60005b838110156110ca5780820151818401526020810190506110af565b838111156110d9576000848401525b50505050565b60006110ea82611090565b6110f4818561109b565b93506111048185602086016110ac565b61110d81610d8c565b840191505092915050565b60006080830160008301516111306000860182611081565b506020830151848203602086015261114882826110df565b9150506040830151848203604086015261116282826110df565b9150506060830151848203606086015261117c82826110df565b9150508091505092915050565b61119281610d3a565b82525050565b60006080830160008301516111b06000860182611081565b50602083015184820360208601526111c882826110df565b915050604083015184820360408601526111e282826110df565b915050606083015184820360608601526111fc82826110df565b9150508091505092915050565b60008115159050919050565b61121e81611209565b82525050565b600060e08301600083015161123c6000860182611189565b50602083015184820360208601526112548282611198565b9150506040830151848203604086015261126e82826110df565b9150506060830151848203606086015261128882826110df565b915050608083015161129d6080860182611189565b5060a08301516112b060a0860182611189565b5060c08301516112c360c0860182611215565b508091505092915050565b7f4e487b7100000000000000000000000000000000000000000000000000000000600052602160045260246000fd5b6003811061130e5761130d6112ce565b5b50565b600081905061131f826112fd565b919050565b600061132f82611311565b9050919050565b61133f81611324565b82525050565b600060e08201905061135a600083018a610d44565b818103602083015261136c8189611118565b905081810360408301526113808188611224565b905061138f6060830187610d44565b61139c6080830186610d44565b6113a960a0830185610d44565b6113b660c0830184611336565b98975050505050505050565b60006080830160008301516113da6000860182611081565b50602083015184820360208601526113f282826110df565b9150506040830151848203604086015261140c82826110df565b9150506060830151848203606086015261142682826110df565b9150508091505092915050565b600082825260208201905092915050565b600061144f82611090565b6114598185611433565b93506114698185602086016110ac565b61147281610d8c565b840191505092915050565b61148681611209565b82525050565b600060e0820190506114a1600083018a610d44565b81810360208301526114b381896113c2565b905081810360408301526114c78188611444565b905081810360608301526114db8187611444565b90506114ea6080830186610d44565b6114f760a0830185610d44565b61150460c083018461147d565b98975050505050505050565b7f5072696365206d7573742062652067726561746572207468616e20302e000000600082015250565b6000611546601d83611433565b915061155182611510565b602082019050919050565b6000602082019050818103600083015261157581611539565b9050919050565b7f4e487b7100000000000000000000000000000000000000000000000000000000600052601160045260246000fd5b60006115b682610d3a565b91507fffffffffffffffffffffffffffffffffffffffffffffffffffffffffffffffff8214156115e9576115e861157c565b5b600182019050919050565b7f4e487b7100000000000000000000000000000000000000000000000000000000600052602260045260246000fd5b6000600282049050600182168061163b57607f821691505b6020821081141561164f5761164e6115f4565b5b5091905056fea264697066735822122097538b1a7fbbc46b2420f0530c132a64d2528532d6d58092a1fb51821f85307b64736f6c634300080a0033",
  "immutableReferences": {},
  "source": "// SPDX-License-Identifier: GPL-3.0\r\npragma solidity ^0.8.10;\r\n\r\ncontract HousingRentalSystem {\r\n    enum State {\r\n        Created,\r\n        Started,\r\n        Terminated\r\n    }\r\n\r\n    struct Landlord {\r\n        address id;\r\n        string name;\r\n        string phoneNumber;\r\n        string email;\r\n    }\r\n\r\n    struct Tenant {\r\n        address id;\r\n        string name;\r\n        string phoneNumber;\r\n        string email;\r\n    }\r\n\r\n    struct Property {\r\n        uint256 id;\r\n        Landlord landlord;\r\n        string postalAddress;\r\n        string description;\r\n        uint price;\r\n        uint securityDeposit;\r\n        bool isRented;\r\n    }\r\n\r\n    struct LeaseAgreement {\r\n        uint256 id;\r\n        Tenant tenant;\r\n        Property property;\r\n        uint leaseStart;\r\n        uint leaseDuration;\r\n        uint totalRentPaid;\r\n        State state;\r\n    }\r\n\r\n    mapping(uint256 => Property) public properties;\r\n    uint256 public propertiesCount;\r\n    mapping(uint256 => LeaseAgreement) public leaseAgreements;\r\n    uint256 public LeaseAgreementCount;\r\n\r\n    constructor() {\r\n        propertiesCount = 0;\r\n        LeaseAgreementCount = 0;\r\n    }\r\n\r\n    function registerProperty(\r\n        string memory postalAddress,\r\n        string memory description,\r\n        uint price,\r\n        uint securityDeposit,\r\n        string memory landlordName,\r\n        string memory landlordPhone,\r\n        string memory landlordEmail\r\n    ) external {\r\n        require(price > 0, \"Price must be greater than 0.\");\r\n        propertiesCount++;\r\n        properties[propertiesCount] = Property({\r\n            id: propertiesCount,\r\n            landlord: Landlord({\r\n                id: msg.sender,\r\n                name: landlordName,\r\n                phoneNumber: landlordPhone,\r\n                email: landlordEmail\r\n            }),\r\n            description: description,\r\n            postalAddress: postalAddress,\r\n            price: price,\r\n            securityDeposit: securityDeposit,\r\n            isRented: false\r\n        });\r\n    }\r\n}\r\n",
  "sourcePath": "C:\\Users\\UO251408\\Desktop\\block_chain\\housing-rental-backend\\contracts\\HousingRentalSystem.sol",
  "compiler": {
    "name": "solc",
    "version": "0.8.10+commit.fc410830.Emscripten.clang"
  },
  "schemaVersion": "3.4.12",
  "updatedAt": "2023-06-04T22:11:51.332Z",
  "devdoc": {
    "kind": "dev",
    "methods": {},
    "version": 1
  },
  "userdoc": {
    "kind": "user",
    "methods": {},
    "version": 1
  }
}