{
  "contractName": "HousingRentalSystem",
  "abi": [
    {
      "inputs": [],
      "stateMutability": "nonpayable",
      "type": "constructor"
    },
    {
      "anonymous": false,
      "inputs": [
        {
          "indexed": false,
          "internalType": "uint256",
          "name": "leaseAgreementCount",
          "type": "uint256"
        },
        {
          "indexed": false,
          "internalType": "address payable",
          "name": "tenant",
          "type": "address"
        },
        {
          "indexed": false,
          "internalType": "uint256",
          "name": "propertyId",
          "type": "uint256"
        }
      ],
      "name": "LeaseAgreementProposal",
      "type": "event"
    },
    {
      "anonymous": false,
      "inputs": [
        {
          "indexed": false,
          "internalType": "uint256",
          "name": "propertyId",
          "type": "uint256"
        },
        {
          "indexed": false,
          "internalType": "address payable",
          "name": "landlord",
          "type": "address"
        },
        {
          "indexed": false,
          "internalType": "uint256",
          "name": "price",
          "type": "uint256"
        }
      ],
      "name": "PropertyAdded",
      "type": "event"
    },
    {
      "anonymous": false,
      "inputs": [
        {
          "indexed": false,
          "internalType": "uint256",
          "name": "agreementId",
          "type": "uint256"
        },
        {
          "indexed": false,
          "internalType": "uint256",
          "name": "amount",
          "type": "uint256"
        }
      ],
      "name": "PropertyPaid",
      "type": "event"
    },
    {
      "anonymous": false,
      "inputs": [
        {
          "indexed": false,
          "internalType": "uint256",
          "name": "agreementId",
          "type": "uint256"
        },
        {
          "indexed": false,
          "internalType": "address payable",
          "name": "tenant",
          "type": "address"
        },
        {
          "indexed": false,
          "internalType": "uint256",
          "name": "houseId",
          "type": "uint256"
        },
        {
          "indexed": false,
          "internalType": "uint256",
          "name": "duration",
          "type": "uint256"
        }
      ],
      "name": "PropertyProposalRent",
      "type": "event"
    },
    {
      "anonymous": false,
      "inputs": [
        {
          "indexed": false,
          "internalType": "uint256",
          "name": "agreementId",
          "type": "uint256"
        }
      ],
      "name": "PropertyReturned",
      "type": "event"
    },
    {
      "inputs": [],
      "name": "leaseAgreementCount",
      "outputs": [
        {
          "internalType": "uint256",
          "name": "",
          "type": "uint256"
        }
      ],
      "stateMutability": "view",
      "type": "function",
      "constant": true
    },
    {
      "inputs": [
        {
          "internalType": "uint256",
          "name": "",
          "type": "uint256"
        }
      ],
      "name": "leaseAgreementKeys",
      "outputs": [
        {
          "internalType": "uint256",
          "name": "",
          "type": "uint256"
        }
      ],
      "stateMutability": "view",
      "type": "function",
      "constant": true
    },
    {
      "inputs": [
        {
          "internalType": "uint256",
          "name": "",
          "type": "uint256"
        }
      ],
      "name": "leaseAgreements",
      "outputs": [
        {
          "internalType": "uint256",
          "name": "id",
          "type": "uint256"
        },
        {
          "components": [
            {
              "internalType": "address payable",
              "name": "id",
              "type": "address"
            },
            {
              "internalType": "string",
              "name": "name",
              "type": "string"
            },
            {
              "internalType": "string",
              "name": "phoneNumber",
              "type": "string"
            },
            {
              "internalType": "string",
              "name": "email",
              "type": "string"
            }
          ],
          "internalType": "struct HousingRentalSystem.Tenant",
          "name": "tenant",
          "type": "tuple"
        },
        {
          "components": [
            {
              "internalType": "uint256",
              "name": "id",
              "type": "uint256"
            },
            {
              "components": [
                {
                  "internalType": "address payable",
                  "name": "id",
                  "type": "address"
                },
                {
                  "internalType": "string",
                  "name": "name",
                  "type": "string"
                },
                {
                  "internalType": "string",
                  "name": "phoneNumber",
                  "type": "string"
                },
                {
                  "internalType": "string",
                  "name": "email",
                  "type": "string"
                }
              ],
              "internalType": "struct HousingRentalSystem.Landlord",
              "name": "landlord",
              "type": "tuple"
            },
            {
              "internalType": "string",
              "name": "postalAddress",
              "type": "string"
            },
            {
              "internalType": "string",
              "name": "description",
              "type": "string"
            },
            {
              "internalType": "uint256",
              "name": "price",
              "type": "uint256"
            },
            {
              "internalType": "uint256",
              "name": "securityDeposit",
              "type": "uint256"
            },
            {
              "internalType": "bool",
              "name": "isRented",
              "type": "bool"
            }
          ],
          "internalType": "struct HousingRentalSystem.Property",
          "name": "property",
          "type": "tuple"
        },
        {
          "internalType": "uint256",
          "name": "leaseStart",
          "type": "uint256"
        },
        {
          "internalType": "uint256",
          "name": "leaseDuration",
          "type": "uint256"
        },
        {
          "internalType": "uint256",
          "name": "totalRentPaid",
          "type": "uint256"
        },
        {
          "internalType": "enum HousingRentalSystem.State",
          "name": "state",
          "type": "uint8"
        }
      ],
      "stateMutability": "view",
      "type": "function",
      "constant": true
    },
    {
      "inputs": [
        {
          "internalType": "uint256",
          "name": "",
          "type": "uint256"
        }
      ],
      "name": "properties",
      "outputs": [
        {
          "internalType": "uint256",
          "name": "id",
          "type": "uint256"
        },
        {
          "components": [
            {
              "internalType": "address payable",
              "name": "id",
              "type": "address"
            },
            {
              "internalType": "string",
              "name": "name",
              "type": "string"
            },
            {
              "internalType": "string",
              "name": "phoneNumber",
              "type": "string"
            },
            {
              "internalType": "string",
              "name": "email",
              "type": "string"
            }
          ],
          "internalType": "struct HousingRentalSystem.Landlord",
          "name": "landlord",
          "type": "tuple"
        },
        {
          "internalType": "string",
          "name": "postalAddress",
          "type": "string"
        },
        {
          "internalType": "string",
          "name": "description",
          "type": "string"
        },
        {
          "internalType": "uint256",
          "name": "price",
          "type": "uint256"
        },
        {
          "internalType": "uint256",
          "name": "securityDeposit",
          "type": "uint256"
        },
        {
          "internalType": "bool",
          "name": "isRented",
          "type": "bool"
        }
      ],
      "stateMutability": "view",
      "type": "function",
      "constant": true
    },
    {
      "inputs": [],
      "name": "propertiesCount",
      "outputs": [
        {
          "internalType": "uint256",
          "name": "",
          "type": "uint256"
        }
      ],
      "stateMutability": "view",
      "type": "function",
      "constant": true
    },
    {
      "inputs": [
        {
          "internalType": "uint256",
          "name": "",
          "type": "uint256"
        }
      ],
      "name": "propertiesKeys",
      "outputs": [
        {
          "internalType": "uint256",
          "name": "",
          "type": "uint256"
        }
      ],
      "stateMutability": "view",
      "type": "function",
      "constant": true
    },
    {
      "inputs": [
        {
          "internalType": "string",
          "name": "postalAddress",
          "type": "string"
        },
        {
          "internalType": "string",
          "name": "description",
          "type": "string"
        },
        {
          "internalType": "uint256",
          "name": "price",
          "type": "uint256"
        },
        {
          "internalType": "uint256",
          "name": "securityDeposit",
          "type": "uint256"
        },
        {
          "internalType": "string",
          "name": "landlordName",
          "type": "string"
        },
        {
          "internalType": "string",
          "name": "landlordPhone",
          "type": "string"
        },
        {
          "internalType": "string",
          "name": "landlordEmail",
          "type": "string"
        }
      ],
      "name": "registerProperty",
      "outputs": [],
      "stateMutability": "nonpayable",
      "type": "function"
    },
    {
      "inputs": [
        {
          "components": [
            {
              "internalType": "address payable",
              "name": "id",
              "type": "address"
            },
            {
              "internalType": "string",
              "name": "name",
              "type": "string"
            },
            {
              "internalType": "string",
              "name": "phoneNumber",
              "type": "string"
            },
            {
              "internalType": "string",
              "name": "email",
              "type": "string"
            }
          ],
          "internalType": "struct HousingRentalSystem.Tenant",
          "name": "tenant",
          "type": "tuple"
        },
        {
          "internalType": "uint256",
          "name": "propertyId",
          "type": "uint256"
        },
        {
          "internalType": "uint256",
          "name": "duration",
          "type": "uint256"
        },
        {
          "internalType": "uint256",
          "name": "deposit",
          "type": "uint256"
        }
      ],
      "name": "rentProperty",
      "outputs": [],
      "stateMutability": "payable",
      "type": "function",
      "payable": true
    },
    {
      "inputs": [],
      "name": "getRegisteredProperties",
      "outputs": [
        {
          "components": [
            {
              "internalType": "uint256",
              "name": "id",
              "type": "uint256"
            },
            {
              "components": [
                {
                  "internalType": "address payable",
                  "name": "id",
                  "type": "address"
                },
                {
                  "internalType": "string",
                  "name": "name",
                  "type": "string"
                },
                {
                  "internalType": "string",
                  "name": "phoneNumber",
                  "type": "string"
                },
                {
                  "internalType": "string",
                  "name": "email",
                  "type": "string"
                }
              ],
              "internalType": "struct HousingRentalSystem.Landlord",
              "name": "landlord",
              "type": "tuple"
            },
            {
              "internalType": "string",
              "name": "postalAddress",
              "type": "string"
            },
            {
              "internalType": "string",
              "name": "description",
              "type": "string"
            },
            {
              "internalType": "uint256",
              "name": "price",
              "type": "uint256"
            },
            {
              "internalType": "uint256",
              "name": "securityDeposit",
              "type": "uint256"
            },
            {
              "internalType": "bool",
              "name": "isRented",
              "type": "bool"
            }
          ],
          "internalType": "struct HousingRentalSystem.Property[]",
          "name": "",
          "type": "tuple[]"
        }
      ],
      "stateMutability": "view",
      "type": "function",
      "constant": true
    },
    {
      "inputs": [],
      "name": "getRegisteredLeaseAgreement",
      "outputs": [
        {
          "components": [
            {
              "internalType": "uint256",
              "name": "id",
              "type": "uint256"
            },
            {
              "components": [
                {
                  "internalType": "address payable",
                  "name": "id",
                  "type": "address"
                },
                {
                  "internalType": "string",
                  "name": "name",
                  "type": "string"
                },
                {
                  "internalType": "string",
                  "name": "phoneNumber",
                  "type": "string"
                },
                {
                  "internalType": "string",
                  "name": "email",
                  "type": "string"
                }
              ],
              "internalType": "struct HousingRentalSystem.Tenant",
              "name": "tenant",
              "type": "tuple"
            },
            {
              "components": [
                {
                  "internalType": "uint256",
                  "name": "id",
                  "type": "uint256"
                },
                {
                  "components": [
                    {
                      "internalType": "address payable",
                      "name": "id",
                      "type": "address"
                    },
                    {
                      "internalType": "string",
                      "name": "name",
                      "type": "string"
                    },
                    {
                      "internalType": "string",
                      "name": "phoneNumber",
                      "type": "string"
                    },
                    {
                      "internalType": "string",
                      "name": "email",
                      "type": "string"
                    }
                  ],
                  "internalType": "struct HousingRentalSystem.Landlord",
                  "name": "landlord",
                  "type": "tuple"
                },
                {
                  "internalType": "string",
                  "name": "postalAddress",
                  "type": "string"
                },
                {
                  "internalType": "string",
                  "name": "description",
                  "type": "string"
                },
                {
                  "internalType": "uint256",
                  "name": "price",
                  "type": "uint256"
                },
                {
                  "internalType": "uint256",
                  "name": "securityDeposit",
                  "type": "uint256"
                },
                {
                  "internalType": "bool",
                  "name": "isRented",
                  "type": "bool"
                }
              ],
              "internalType": "struct HousingRentalSystem.Property",
              "name": "property",
              "type": "tuple"
            },
            {
              "internalType": "uint256",
              "name": "leaseStart",
              "type": "uint256"
            },
            {
              "internalType": "uint256",
              "name": "leaseDuration",
              "type": "uint256"
            },
            {
              "internalType": "uint256",
              "name": "totalRentPaid",
              "type": "uint256"
            },
            {
              "internalType": "enum HousingRentalSystem.State",
              "name": "state",
              "type": "uint8"
            }
          ],
          "internalType": "struct HousingRentalSystem.LeaseAgreement[]",
          "name": "",
          "type": "tuple[]"
        }
      ],
      "stateMutability": "view",
      "type": "function",
      "constant": true
    },
    {
      "inputs": [
        {
          "internalType": "uint256",
          "name": "agreementId",
          "type": "uint256"
        }
      ],
      "name": "acceptLeaseAgreement",
      "outputs": [],
      "stateMutability": "nonpayable",
      "type": "function"
    },
    {
      "inputs": [],
      "name": "getBalance",
      "outputs": [
        {
          "internalType": "uint256",
          "name": "",
          "type": "uint256"
        }
      ],
      "stateMutability": "view",
      "type": "function",
      "constant": true
    },
    {
      "inputs": [
        {
          "internalType": "uint256",
          "name": "agreementId",
          "type": "uint256"
        }
      ],
      "name": "payRent",
      "outputs": [],
      "stateMutability": "payable",
      "type": "function",
      "payable": true
    },
    {
      "inputs": [
        {
          "internalType": "uint256",
          "name": "agreementId",
          "type": "uint256"
        }
      ],
      "name": "returnProperty",
      "outputs": [],
      "stateMutability": "payable",
      "type": "function",
      "payable": true
    }
  ],
  "bytecode": "0x608060405234801561001057600080fd5b5060006001819055506000600481905550613d60806100306000396000f3fe6080604052600436106100dd5760003560e01c8063909409ba1161007f578063d9e8843f11610059578063d9e8843f146102b9578063e4bc6a87146102d5578063e810b5e1146102f1578063f7b108081461031c576100dd565b8063909409ba14610214578063932353a2146102515780639f81311d1461027c576100dd565b80634d1f0a4e116100bb5780634d1f0a4e14610161578063749f04271461018a5780637db9f7a5146101a6578063831b455d146101d1576100dd565b806311447e87146100e257806312065fe01461010d5780631f29b2ae14610138575b600080fd5b3480156100ee57600080fd5b506100f761035f565b6040516101049190612a6d565b60405180910390f35b34801561011957600080fd5b50610122610365565b60405161012f9190612a6d565b60405180910390f35b34801561014457600080fd5b5061015f600480360381019061015a9190612c0e565b61036d565b005b34801561016d57600080fd5b5061018860048036038101906101839190612d3c565b6105df565b005b6101a4600480360381019061019f9190612d3c565b61075a565b005b3480156101b257600080fd5b506101bb6109f5565b6040516101c89190612a6d565b60405180910390f35b3480156101dd57600080fd5b506101f860048036038101906101f39190612d3c565b6109fb565b60405161020b979695949392919061305f565b60405180910390f35b34801561022057600080fd5b5061023b60048036038101906102369190612d3c565b610fe7565b6040516102489190612a6d565b60405180910390f35b34801561025d57600080fd5b5061026661100b565b604051610273919061336b565b60405180910390f35b34801561028857600080fd5b506102a3600480360381019061029e9190612d3c565b611703565b6040516102b09190612a6d565b60405180910390f35b6102d360048036038101906102ce9190612d3c565b611727565b005b6102ef60048036038101906102ea919061348f565b6118be565b005b3480156102fd57600080fd5b506103066120c0565b60405161031391906135d4565b60405180910390f35b34801561032857600080fd5b50610343600480360381019061033e9190612d3c565b612520565b60405161035697969594939291906136c0565b60405180910390f35b60015481565b600047905090565b600085116103b0576040517f08c379a00000000000000000000000000000000000000000000000000000000081526004016103a790613790565b60405180910390fd5b600160008154809291906103c3906137df565b91905055506040518060e00160405280600154815260200160405180608001604052803373ffffffffffffffffffffffffffffffffffffffff1681526020018681526020018581526020018481525081526020018881526020018781526020018681526020018581526020016000151581525060008060015481526020019081526020016000206000820151816000015560208201518160010160008201518160000160006101000a81548173ffffffffffffffffffffffffffffffffffffffff021916908373ffffffffffffffffffffffffffffffffffffffff16021790555060208201518160010190805190602001906104c0929190612895565b5060408201518160020190805190602001906104dd929190612895565b5060608201518160030190805190602001906104fa929190612895565b5050506040820151816005019080519060200190610519929190612895565b506060820151816006019080519060200190610536929190612895565b506080820151816007015560a0820151816008015560c08201518160090160006101000a81548160ff021916908315150217905550905050600260015490806001815401808255809150506001900390600052602060002001600090919091909150557fb6d8be5059e64702e2c7be877d9f278d0a00e059451566f3d548556ce6e2ec5e60015433876040516105ce93929190613837565b60405180910390a150505050505050565b806003600082815260200190815260200160002060010160000160009054906101000a900473ffffffffffffffffffffffffffffffffffffffff1673ffffffffffffffffffffffffffffffffffffffff163373ffffffffffffffffffffffffffffffffffffffff1614610687576040517f08c379a000000000000000000000000000000000000000000000000000000000815260040161067e906138e0565b60405180910390fd5b6000600281111561069b5761069a612fe8565b5b6003600084815260200190815260200160002060120160009054906101000a900460ff1660028111156106d1576106d0612fe8565b5b14610711576040517f08c379a000000000000000000000000000000000000000000000000000000000815260040161070890613972565b60405180910390fd5b600060036000848152602001908152602001600020905060018160120160006101000a81548160ff021916908360028111156107505761074f612fe8565b5b0217905550505050565b806003600082815260200190815260200160002060010160000160009054906101000a900473ffffffffffffffffffffffffffffffffffffffff1673ffffffffffffffffffffffffffffffffffffffff163373ffffffffffffffffffffffffffffffffffffffff1614610802576040517f08c379a00000000000000000000000000000000000000000000000000000000081526004016107f9906138e0565b60405180910390fd5b60045482111580156108145750600082115b610853576040517f08c379a000000000000000000000000000000000000000000000000000000000815260040161084a906139de565b60405180910390fd5b60006003600084815260200190815260200160002090506001600281111561087e5761087d612fe8565b5b8160120160009054906101000a900460ff1660028111156108a2576108a1612fe8565b5b146108e2576040517f08c379a00000000000000000000000000000000000000000000000000000000081526004016108d990613972565b60405180910390fd5b60028160120160006101000a81548160ff0219169083600281111561090a57610909612fe8565b5b021790555060008060008360050160000154815260200190815260200160002060090160006101000a81548160ff02191690831515021790555060008160100154600080846000015481526020019081526020016000206007015461096f91906139fe565b90503373ffffffffffffffffffffffffffffffffffffffff166108fc829081150290604051600060405180830381858888f193505050501580156109b7573d6000803e3d6000fd5b507f9335f8fc7f600a68311f5461d958a3d6ef7d362b5e7874423ab90cc39ca0c9f2846040516109e79190612a6d565b60405180910390a150505050565b60045481565b6003602052806000526040600020600091509050806000015490806001016040518060800160405290816000820160009054906101000a900473ffffffffffffffffffffffffffffffffffffffff1673ffffffffffffffffffffffffffffffffffffffff1673ffffffffffffffffffffffffffffffffffffffff168152602001600182018054610a8a90613a87565b80601f0160208091040260200160405190810160405280929190818152602001828054610ab690613a87565b8015610b035780601f10610ad857610100808354040283529160200191610b03565b820191906000526020600020905b815481529060010190602001808311610ae657829003601f168201915b50505050508152602001600282018054610b1c90613a87565b80601f0160208091040260200160405190810160405280929190818152602001828054610b4890613a87565b8015610b955780601f10610b6a57610100808354040283529160200191610b95565b820191906000526020600020905b815481529060010190602001808311610b7857829003601f168201915b50505050508152602001600382018054610bae90613a87565b80601f0160208091040260200160405190810160405280929190818152602001828054610bda90613a87565b8015610c275780601f10610bfc57610100808354040283529160200191610c27565b820191906000526020600020905b815481529060010190602001808311610c0a57829003601f168201915b50505050508152505090806005016040518060e001604052908160008201548152602001600182016040518060800160405290816000820160009054906101000a900473ffffffffffffffffffffffffffffffffffffffff1673ffffffffffffffffffffffffffffffffffffffff1673ffffffffffffffffffffffffffffffffffffffff168152602001600182018054610cc090613a87565b80601f0160208091040260200160405190810160405280929190818152602001828054610cec90613a87565b8015610d395780601f10610d0e57610100808354040283529160200191610d39565b820191906000526020600020905b815481529060010190602001808311610d1c57829003601f168201915b50505050508152602001600282018054610d5290613a87565b80601f0160208091040260200160405190810160405280929190818152602001828054610d7e90613a87565b8015610dcb5780601f10610da057610100808354040283529160200191610dcb565b820191906000526020600020905b815481529060010190602001808311610dae57829003601f168201915b50505050508152602001600382018054610de490613a87565b80601f0160208091040260200160405190810160405280929190818152602001828054610e1090613a87565b8015610e5d5780601f10610e3257610100808354040283529160200191610e5d565b820191906000526020600020905b815481529060010190602001808311610e4057829003601f168201915b5050505050815250508152602001600582018054610e7a90613a87565b80601f0160208091040260200160405190810160405280929190818152602001828054610ea690613a87565b8015610ef35780601f10610ec857610100808354040283529160200191610ef3565b820191906000526020600020905b815481529060010190602001808311610ed657829003601f168201915b50505050508152602001600682018054610f0c90613a87565b80601f0160208091040260200160405190810160405280929190818152602001828054610f3890613a87565b8015610f855780601f10610f5a57610100808354040283529160200191610f85565b820191906000526020600020905b815481529060010190602001808311610f6857829003601f168201915b5050505050815260200160078201548152602001600882015481526020016009820160009054906101000a900460ff1615151515815250509080600f0154908060100154908060110154908060120160009054906101000a900460ff16905087565b60028181548110610ff757600080fd5b906000526020600020016000915090505481565b6060600060058054905067ffffffffffffffff81111561102e5761102d612ab7565b5b60405190808252806020026020018201604052801561106757816020015b61105461291b565b81526020019060019003908161104c5790505b50905060005b6005805490508110156116fb57600360006005838154811061109257611091613ab9565b5b906000526020600020015481526020019081526020016000206040518060e001604052908160008201548152602001600182016040518060800160405290816000820160009054906101000a900473ffffffffffffffffffffffffffffffffffffffff1673ffffffffffffffffffffffffffffffffffffffff1673ffffffffffffffffffffffffffffffffffffffff16815260200160018201805461113690613a87565b80601f016020809104026020016040519081016040528092919081815260200182805461116290613a87565b80156111af5780601f10611184576101008083540402835291602001916111af565b820191906000526020600020905b81548152906001019060200180831161119257829003601f168201915b505050505081526020016002820180546111c890613a87565b80601f01602080910402602001604051908101604052809291908181526020018280546111f490613a87565b80156112415780601f1061121657610100808354040283529160200191611241565b820191906000526020600020905b81548152906001019060200180831161122457829003601f168201915b5050505050815260200160038201805461125a90613a87565b80601f016020809104026020016040519081016040528092919081815260200182805461128690613a87565b80156112d35780601f106112a8576101008083540402835291602001916112d3565b820191906000526020600020905b8154815290600101906020018083116112b657829003601f168201915b5050505050815250508152602001600582016040518060e001604052908160008201548152602001600182016040518060800160405290816000820160009054906101000a900473ffffffffffffffffffffffffffffffffffffffff1673ffffffffffffffffffffffffffffffffffffffff1673ffffffffffffffffffffffffffffffffffffffff16815260200160018201805461137090613a87565b80601f016020809104026020016040519081016040528092919081815260200182805461139c90613a87565b80156113e95780601f106113be576101008083540402835291602001916113e9565b820191906000526020600020905b8154815290600101906020018083116113cc57829003601f168201915b5050505050815260200160028201805461140290613a87565b80601f016020809104026020016040519081016040528092919081815260200182805461142e90613a87565b801561147b5780601f106114505761010080835404028352916020019161147b565b820191906000526020600020905b81548152906001019060200180831161145e57829003601f168201915b5050505050815260200160038201805461149490613a87565b80601f01602080910402602001604051908101604052809291908181526020018280546114c090613a87565b801561150d5780601f106114e25761010080835404028352916020019161150d565b820191906000526020600020905b8154815290600101906020018083116114f057829003601f168201915b505050505081525050815260200160058201805461152a90613a87565b80601f016020809104026020016040519081016040528092919081815260200182805461155690613a87565b80156115a35780601f10611578576101008083540402835291602001916115a3565b820191906000526020600020905b81548152906001019060200180831161158657829003601f168201915b505050505081526020016006820180546115bc90613a87565b80601f01602080910402602001604051908101604052809291908181526020018280546115e890613a87565b80156116355780601f1061160a57610100808354040283529160200191611635565b820191906000526020600020905b81548152906001019060200180831161161857829003601f168201915b5050505050815260200160078201548152602001600882015481526020016009820160009054906101000a900460ff1615151515815250508152602001600f820154815260200160108201548152602001601182015481526020016012820160009054906101000a900460ff1660028111156116b4576116b3612fe8565b5b60028111156116c6576116c5612fe8565b5b815250508282815181106116dd576116dc613ab9565b5b602002602001018190525080806116f3906137df565b91505061106d565b508091505090565b6005818154811061171357600080fd5b906000526020600020016000915090505481565b806003600082815260200190815260200160002060010160000160009054906101000a900473ffffffffffffffffffffffffffffffffffffffff1673ffffffffffffffffffffffffffffffffffffffff163373ffffffffffffffffffffffffffffffffffffffff16146117cf576040517f08c379a00000000000000000000000000000000000000000000000000000000081526004016117c6906138e0565b60405180910390fd5b6000600360008481526020019081526020016000209050600160028111156117fa576117f9612fe8565b5b8160120160009054906101000a900460ff16600281111561181e5761181d612fe8565b5b1461185e576040517f08c379a000000000000000000000000000000000000000000000000000000000815260040161185590613972565b60405180910390fd5b600080826000015481526020019081526020016000206007015434146118b9576040517f08c379a00000000000000000000000000000000000000000000000000000000081526004016118b090613b34565b60405180910390fd5b505050565b60008060008581526020019081526020016000206040518060e001604052908160008201548152602001600182016040518060800160405290816000820160009054906101000a900473ffffffffffffffffffffffffffffffffffffffff1673ffffffffffffffffffffffffffffffffffffffff1673ffffffffffffffffffffffffffffffffffffffff16815260200160018201805461195d90613a87565b80601f016020809104026020016040519081016040528092919081815260200182805461198990613a87565b80156119d65780601f106119ab576101008083540402835291602001916119d6565b820191906000526020600020905b8154815290600101906020018083116119b957829003601f168201915b505050505081526020016002820180546119ef90613a87565b80601f0160208091040260200160405190810160405280929190818152602001828054611a1b90613a87565b8015611a685780601f10611a3d57610100808354040283529160200191611a68565b820191906000526020600020905b815481529060010190602001808311611a4b57829003601f168201915b50505050508152602001600382018054611a8190613a87565b80601f0160208091040260200160405190810160405280929190818152602001828054611aad90613a87565b8015611afa5780601f10611acf57610100808354040283529160200191611afa565b820191906000526020600020905b815481529060010190602001808311611add57829003601f168201915b5050505050815250508152602001600582018054611b1790613a87565b80601f0160208091040260200160405190810160405280929190818152602001828054611b4390613a87565b8015611b905780601f10611b6557610100808354040283529160200191611b90565b820191906000526020600020905b815481529060010190602001808311611b7357829003601f168201915b50505050508152602001600682018054611ba990613a87565b80601f0160208091040260200160405190810160405280929190818152602001828054611bd590613a87565b8015611c225780601f10611bf757610100808354040283529160200191611c22565b820191906000526020600020905b815481529060010190602001808311611c0557829003601f168201915b5050505050815260200160078201548152602001600882015481526020016009820160009054906101000a900460ff16151515158152505090506001548411158015611c6e5750600084115b611cad576040517f08c379a0000000000000000000000000000000000000000000000000000000008152600401611ca490613ba0565b60405180910390fd5b8060c0015115611cf2576040517f08c379a0000000000000000000000000000000000000000000000000000000008152600401611ce990613c0c565b60405180910390fd5b8260008086815260200190815260200160002060070154611d1391906139fe565b3414611d54576040517f08c379a0000000000000000000000000000000000000000000000000000000008152600401611d4b90613c78565b60405180910390fd5b8060a001518214611d9a576040517f08c379a0000000000000000000000000000000000000000000000000000000008152600401611d9190613d0a565b60405180910390fd5b60018160c001901515908115158152505060046000815480929190611dbe906137df565b91905055506040518060e0016040528060045481526020018681526020018281526020014281526020018481526020016000815260200160006002811115611e0957611e08612fe8565b5b8152506003600060045481526020019081526020016000206000820151816000015560208201518160010160008201518160000160006101000a81548173ffffffffffffffffffffffffffffffffffffffff021916908373ffffffffffffffffffffffffffffffffffffffff1602179055506020820151816001019080519060200190611e97929190612895565b506040820151816002019080519060200190611eb4929190612895565b506060820151816003019080519060200190611ed1929190612895565b5050506040820151816005016000820151816000015560208201518160010160008201518160000160006101000a81548173ffffffffffffffffffffffffffffffffffffffff021916908373ffffffffffffffffffffffffffffffffffffffff1602179055506020820151816001019080519060200190611f53929190612895565b506040820151816002019080519060200190611f70929190612895565b506060820151816003019080519060200190611f8d929190612895565b5050506040820151816005019080519060200190611fac929190612895565b506060820151816006019080519060200190611fc9929190612895565b506080820151816007015560a0820151816008015560c08201518160090160006101000a81548160ff0219169083151502179055505050606082015181600f01556080820151816010015560a0820151816011015560c08201518160120160006101000a81548160ff0219169083600281111561204957612048612fe8565b5b0217905550905050600560045490806001815401808255809150506001900390600052602060002001600090919091909150557f1df07aa90d613a91b586481dbd79ac854db474e14e65acf2141897f9577086b660045433866040516120b193929190613837565b60405180910390a15050505050565b6060600060028054905067ffffffffffffffff8111156120e3576120e2612ab7565b5b60405190808252806020026020018201604052801561211c57816020015b612109612976565b8152602001906001900390816121015790505b50905060005b600280549050811015612518576000806002838154811061214657612145613ab9565b5b906000526020600020015481526020019081526020016000206040518060e001604052908160008201548152602001600182016040518060800160405290816000820160009054906101000a900473ffffffffffffffffffffffffffffffffffffffff1673ffffffffffffffffffffffffffffffffffffffff1673ffffffffffffffffffffffffffffffffffffffff1681526020016001820180546121ea90613a87565b80601f016020809104026020016040519081016040528092919081815260200182805461221690613a87565b80156122635780601f1061223857610100808354040283529160200191612263565b820191906000526020600020905b81548152906001019060200180831161224657829003601f168201915b5050505050815260200160028201805461227c90613a87565b80601f01602080910402602001604051908101604052809291908181526020018280546122a890613a87565b80156122f55780601f106122ca576101008083540402835291602001916122f5565b820191906000526020600020905b8154815290600101906020018083116122d857829003601f168201915b5050505050815260200160038201805461230e90613a87565b80601f016020809104026020016040519081016040528092919081815260200182805461233a90613a87565b80156123875780601f1061235c57610100808354040283529160200191612387565b820191906000526020600020905b81548152906001019060200180831161236a57829003601f168201915b50505050508152505081526020016005820180546123a490613a87565b80601f01602080910402602001604051908101604052809291908181526020018280546123d090613a87565b801561241d5780601f106123f25761010080835404028352916020019161241d565b820191906000526020600020905b81548152906001019060200180831161240057829003601f168201915b5050505050815260200160068201805461243690613a87565b80601f016020809104026020016040519081016040528092919081815260200182805461246290613a87565b80156124af5780601f10612484576101008083540402835291602001916124af565b820191906000526020600020905b81548152906001019060200180831161249257829003601f168201915b5050505050815260200160078201548152602001600882015481526020016009820160009054906101000a900460ff1615151515815250508282815181106124fa576124f9613ab9565b5b60200260200101819052508080612510906137df565b915050612122565b508091505090565b6000602052806000526040600020600091509050806000015490806001016040518060800160405290816000820160009054906101000a900473ffffffffffffffffffffffffffffffffffffffff1673ffffffffffffffffffffffffffffffffffffffff1673ffffffffffffffffffffffffffffffffffffffff1681526020016001820180546125af90613a87565b80601f01602080910402602001604051908101604052809291908181526020018280546125db90613a87565b80156126285780601f106125fd57610100808354040283529160200191612628565b820191906000526020600020905b81548152906001019060200180831161260b57829003601f168201915b5050505050815260200160028201805461264190613a87565b80601f016020809104026020016040519081016040528092919081815260200182805461266d90613a87565b80156126ba5780601f1061268f576101008083540402835291602001916126ba565b820191906000526020600020905b81548152906001019060200180831161269d57829003601f168201915b505050505081526020016003820180546126d390613a87565b80601f01602080910402602001604051908101604052809291908181526020018280546126ff90613a87565b801561274c5780601f106127215761010080835404028352916020019161274c565b820191906000526020600020905b81548152906001019060200180831161272f57829003601f168201915b5050505050815250509080600501805461276590613a87565b80601f016020809104026020016040519081016040528092919081815260200182805461279190613a87565b80156127de5780601f106127b3576101008083540402835291602001916127de565b820191906000526020600020905b8154815290600101906020018083116127c157829003601f168201915b5050505050908060060180546127f390613a87565b80601f016020809104026020016040519081016040528092919081815260200182805461281f90613a87565b801561286c5780601f106128415761010080835404028352916020019161286c565b820191906000526020600020905b81548152906001019060200180831161284f57829003601f168201915b5050505050908060070154908060080154908060090160009054906101000a900460ff16905087565b8280546128a190613a87565b90600052602060002090601f0160209004810192826128c3576000855561290a565b82601f106128dc57805160ff191683800117855561290a565b8280016001018555821561290a579182015b828111156129095782518255916020019190600101906128ee565b5b50905061291791906129bb565b5090565b6040518060e00160405280600081526020016129356129d8565b8152602001612942612976565b8152602001600081526020016000815260200160008152602001600060028111156129705761296f612fe8565b5b81525090565b6040518060e0016040528060008152602001612990612a16565b8152602001606081526020016060815260200160008152602001600081526020016000151581525090565b5b808211156129d45760008160009055506001016129bc565b5090565b6040518060800160405280600073ffffffffffffffffffffffffffffffffffffffff1681526020016060815260200160608152602001606081525090565b6040518060800160405280600073ffffffffffffffffffffffffffffffffffffffff1681526020016060815260200160608152602001606081525090565b6000819050919050565b612a6781612a54565b82525050565b6000602082019050612a826000830184612a5e565b92915050565b6000604051905090565b600080fd5b600080fd5b600080fd5b600080fd5b6000601f19601f8301169050919050565b7f4e487b7100000000000000000000000000000000000000000000000000000000600052604160045260246000fd5b612aef82612aa6565b810181811067ffffffffffffffff82111715612b0e57612b0d612ab7565b5b80604052505050565b6000612b21612a88565b9050612b2d8282612ae6565b919050565b600067ffffffffffffffff821115612b4d57612b4c612ab7565b5b612b5682612aa6565b9050602081019050919050565b82818337600083830152505050565b6000612b85612b8084612b32565b612b17565b905082815260208101848484011115612ba157612ba0612aa1565b5b612bac848285612b63565b509392505050565b600082601f830112612bc957612bc8612a9c565b5b8135612bd9848260208601612b72565b91505092915050565b612beb81612a54565b8114612bf657600080fd5b50565b600081359050612c0881612be2565b92915050565b600080600080600080600060e0888a031215612c2d57612c2c612a92565b5b600088013567ffffffffffffffff811115612c4b57612c4a612a97565b5b612c578a828b01612bb4565b975050602088013567ffffffffffffffff811115612c7857612c77612a97565b5b612c848a828b01612bb4565b9650506040612c958a828b01612bf9565b9550506060612ca68a828b01612bf9565b945050608088013567ffffffffffffffff811115612cc757612cc6612a97565b5b612cd38a828b01612bb4565b93505060a088013567ffffffffffffffff811115612cf457612cf3612a97565b5b612d008a828b01612bb4565b92505060c088013567ffffffffffffffff811115612d2157612d20612a97565b5b612d2d8a828b01612bb4565b91505092959891949750929550565b600060208284031215612d5257612d51612a92565b5b6000612d6084828501612bf9565b91505092915050565b600073ffffffffffffffffffffffffffffffffffffffff82169050919050565b6000612d9482612d69565b9050919050565b612da481612d89565b82525050565b600081519050919050565b600082825260208201905092915050565b60005b83811015612de4578082015181840152602081019050612dc9565b83811115612df3576000848401525b50505050565b6000612e0482612daa565b612e0e8185612db5565b9350612e1e818560208601612dc6565b612e2781612aa6565b840191505092915050565b6000608083016000830151612e4a6000860182612d9b565b5060208301518482036020860152612e628282612df9565b91505060408301518482036040860152612e7c8282612df9565b91505060608301518482036060860152612e968282612df9565b9150508091505092915050565b612eac81612a54565b82525050565b6000608083016000830151612eca6000860182612d9b565b5060208301518482036020860152612ee28282612df9565b91505060408301518482036040860152612efc8282612df9565b91505060608301518482036060860152612f168282612df9565b9150508091505092915050565b60008115159050919050565b612f3881612f23565b82525050565b600060e083016000830151612f566000860182612ea3565b5060208301518482036020860152612f6e8282612eb2565b91505060408301518482036040860152612f888282612df9565b91505060608301518482036060860152612fa28282612df9565b9150506080830151612fb76080860182612ea3565b5060a0830151612fca60a0860182612ea3565b5060c0830151612fdd60c0860182612f2f565b508091505092915050565b7f4e487b7100000000000000000000000000000000000000000000000000000000600052602160045260246000fd5b6003811061302857613027612fe8565b5b50565b600081905061303982613017565b919050565b60006130498261302b565b9050919050565b6130598161303e565b82525050565b600060e082019050613074600083018a612a5e565b81810360208301526130868189612e32565b9050818103604083015261309a8188612f3e565b90506130a96060830187612a5e565b6130b66080830186612a5e565b6130c360a0830185612a5e565b6130d060c0830184613050565b98975050505050505050565b600081519050919050565b600082825260208201905092915050565b6000819050602082019050919050565b60006080830160008301516131206000860182612d9b565b50602083015184820360208601526131388282612df9565b915050604083015184820360408601526131528282612df9565b9150506060830151848203606086015261316c8282612df9565b9150508091505092915050565b600060e0830160008301516131916000860182612ea3565b50602083015184820360208601526131a98282612eb2565b915050604083015184820360408601526131c38282612df9565b915050606083015184820360608601526131dd8282612df9565b91505060808301516131f26080860182612ea3565b5060a083015161320560a0860182612ea3565b5060c083015161321860c0860182612f2f565b508091505092915050565b61322c8161303e565b82525050565b600060e08301600083015161324a6000860182612ea3565b50602083015184820360208601526132628282613108565b9150506040830151848203604086015261327c8282613179565b91505060608301516132916060860182612ea3565b5060808301516132a46080860182612ea3565b5060a08301516132b760a0860182612ea3565b5060c08301516132ca60c0860182613223565b508091505092915050565b60006132e18383613232565b905092915050565b6000602082019050919050565b6000613301826130dc565b61330b81856130e7565b93508360208202850161331d856130f8565b8060005b85811015613359578484038952815161333a85826132d5565b9450613345836132e9565b925060208a01995050600181019050613321565b50829750879550505050505092915050565b6000602082019050818103600083015261338581846132f6565b905092915050565b600080fd5b600080fd5b6133a081612d89565b81146133ab57600080fd5b50565b6000813590506133bd81613397565b92915050565b6000608082840312156133d9576133d861338d565b5b6133e36080612b17565b905060006133f3848285016133ae565b600083015250602082013567ffffffffffffffff81111561341757613416613392565b5b61342384828501612bb4565b602083015250604082013567ffffffffffffffff81111561344757613446613392565b5b61345384828501612bb4565b604083015250606082013567ffffffffffffffff81111561347757613476613392565b5b61348384828501612bb4565b60608301525092915050565b600080600080608085870312156134a9576134a8612a92565b5b600085013567ffffffffffffffff8111156134c7576134c6612a97565b5b6134d3878288016133c3565b94505060206134e487828801612bf9565b93505060406134f587828801612bf9565b925050606061350687828801612bf9565b91505092959194509250565b600081519050919050565b600082825260208201905092915050565b6000819050602082019050919050565b600061354a8383613179565b905092915050565b6000602082019050919050565b600061356a82613512565b613574818561351d565b9350836020820285016135868561352e565b8060005b858110156135c257848403895281516135a3858261353e565b94506135ae83613552565b925060208a0199505060018101905061358a565b50829750879550505050505092915050565b600060208201905081810360008301526135ee818461355f565b905092915050565b600060808301600083015161360e6000860182612d9b565b50602083015184820360208601526136268282612df9565b915050604083015184820360408601526136408282612df9565b9150506060830151848203606086015261365a8282612df9565b9150508091505092915050565b600082825260208201905092915050565b600061368382612daa565b61368d8185613667565b935061369d818560208601612dc6565b6136a681612aa6565b840191505092915050565b6136ba81612f23565b82525050565b600060e0820190506136d5600083018a612a5e565b81810360208301526136e781896135f6565b905081810360408301526136fb8188613678565b9050818103606083015261370f8187613678565b905061371e6080830186612a5e565b61372b60a0830185612a5e565b61373860c08301846136b1565b98975050505050505050565b7f5072696365206d7573742062652067726561746572207468616e203000000000600082015250565b600061377a601c83613667565b915061378582613744565b602082019050919050565b600060208201905081810360008301526137a98161376d565b9050919050565b7f4e487b7100000000000000000000000000000000000000000000000000000000600052601160045260246000fd5b60006137ea82612a54565b91507fffffffffffffffffffffffffffffffffffffffffffffffffffffffffffffffff82141561381d5761381c6137b0565b5b600182019050919050565b61383181612d89565b82525050565b600060608201905061384c6000830186612a5e565b6138596020830185613828565b6138666040830184612a5e565b949350505050565b7f4f6e6c79207468652074656e616e742063616e20706572666f726d207468697360008201527f20616374696f6e00000000000000000000000000000000000000000000000000602082015250565b60006138ca602783613667565b91506138d58261386e565b604082019050919050565b600060208201905081810360008301526138f9816138bd565b9050919050565b7f4c6561736541677265656d656e7420697320696e20616e20696e76616c69642060008201527f7374617465000000000000000000000000000000000000000000000000000000602082015250565b600061395c602583613667565b915061396782613900565b604082019050919050565b6000602082019050818103600083015261398b8161394f565b9050919050565b7f496e76616c69642061677265656d656e74204944000000000000000000000000600082015250565b60006139c8601483613667565b91506139d382613992565b602082019050919050565b600060208201905081810360008301526139f7816139bb565b9050919050565b6000613a0982612a54565b9150613a1483612a54565b9250817fffffffffffffffffffffffffffffffffffffffffffffffffffffffffffffffff0483118215151615613a4d57613a4c6137b0565b5b828202905092915050565b7f4e487b7100000000000000000000000000000000000000000000000000000000600052602260045260246000fd5b60006002820490506001821680613a9f57607f821691505b60208210811415613ab357613ab2613a58565b5b50919050565b7f4e487b7100000000000000000000000000000000000000000000000000000000600052603260045260246000fd5b7f496e636f72726563742052656e7420616d6f756e740000000000000000000000600082015250565b6000613b1e601583613667565b9150613b2982613ae8565b602082019050919050565b60006020820190508181036000830152613b4d81613b11565b9050919050565b7f496e76616c69642070726f706572747920494400000000000000000000000000600082015250565b6000613b8a601383613667565b9150613b9582613b54565b602082019050919050565b60006020820190508181036000830152613bb981613b7d565b9050919050565b7f50726f706572747920697320616c72656164792072656e746564000000000000600082015250565b6000613bf6601a83613667565b9150613c0182613bc0565b602082019050919050565b60006020820190508181036000830152613c2581613be9565b9050919050565b7f496e73756666696369656e74207061796d656e74000000000000000000000000600082015250565b6000613c62601483613667565b9150613c6d82613c2c565b602082019050919050565b60006020820190508181036000830152613c9181613c55565b9050919050565b7f4465706f73697420646f6573206e6f74206d6174636820746f2074686520707260008201527f6f7065727479206465706f736974000000000000000000000000000000000000602082015250565b6000613cf4602e83613667565b9150613cff82613c98565b604082019050919050565b60006020820190508181036000830152613d2381613ce7565b905091905056fea2646970667358221220ea048427eb2c5970729a27ccd76c42241bfdf077395fd7a7b140fe2c59a6cbfd64736f6c634300080a0033",
  "immutableReferences": {},
  "source": "// SPDX-License-Identifier: GPL-3.0\r\npragma solidity ^0.8.10;\r\n\r\ncontract HousingRentalSystem {\r\n  enum State {\r\n    Created,\r\n    Started,\r\n    Terminated\r\n  }\r\n\r\n  struct Landlord {\r\n    address payable id;\r\n    string name;\r\n    string phoneNumber;\r\n    string email;\r\n  }\r\n\r\n  struct Tenant {\r\n    address payable id;\r\n    string name;\r\n    string phoneNumber;\r\n    string email;\r\n  }\r\n\r\n  struct Property {\r\n    uint256 id;\r\n    Landlord landlord;\r\n    string postalAddress;\r\n    string description;\r\n    uint price;\r\n    uint securityDeposit;\r\n    bool isRented;\r\n  }\r\n\r\n  struct LeaseAgreement {\r\n    uint256 id;\r\n    Tenant tenant;\r\n    Property property;\r\n    uint leaseStart;\r\n    uint leaseDuration;\r\n    uint totalRentPaid;\r\n    State state;\r\n  }\r\n\r\n  mapping(uint256 => Property) public properties;\r\n  uint256 public propertiesCount;\r\n  uint256[] public propertiesKeys;\r\n  mapping(uint256 => LeaseAgreement) public leaseAgreements;\r\n  uint256 public leaseAgreementCount;\r\n  uint256[] public leaseAgreementKeys;\r\n\r\n  event PropertyAdded(uint256 propertyId, address payable landlord, uint256 price);\r\n  event PropertyReturned(uint256 agreementId);\r\n  event PropertyProposalRent(uint256 agreementId, address payable tenant, uint256 houseId, uint256 duration);\r\n  event PropertyPaid(uint256 agreementId, uint256 amount);\r\n  event LeaseAgreementProposal(uint256 leaseAgreementCount, address payable tenant, uint propertyId);\r\n\r\n  constructor() {\r\n    propertiesCount = 0;\r\n    leaseAgreementCount = 0;\r\n  }\r\n\r\n  function registerProperty(\r\n    string memory postalAddress,\r\n    string memory description,\r\n    uint price,\r\n    uint securityDeposit,\r\n    string memory landlordName,\r\n    string memory landlordPhone,\r\n    string memory landlordEmail\r\n  ) external {\r\n    require(price > 0, 'Price must be greater than 0');\r\n    propertiesCount++;\r\n    properties[propertiesCount] = Property({\r\n      id: propertiesCount,\r\n      landlord: Landlord({ id: payable(msg.sender), name: landlordName, phoneNumber: landlordPhone, email: landlordEmail }),\r\n      description: description,\r\n      postalAddress: postalAddress,\r\n      price: price,\r\n      securityDeposit: securityDeposit,\r\n      isRented: false\r\n    });\r\n    propertiesKeys.push(propertiesCount);\r\n    emit PropertyAdded(propertiesCount, payable(msg.sender), price);\r\n  }\r\n\r\n  function rentProperty(Tenant memory tenant, uint256 propertyId, uint256 duration, uint256 deposit) external payable {\r\n    Property memory property = properties[propertyId];\r\n    require(propertyId <= propertiesCount && propertyId > 0, 'Invalid property ID');\r\n    require(!property.isRented, 'Property is already rented');\r\n    require(msg.value == properties[propertyId].price * duration, 'Insufficient payment');\r\n    require(deposit == property.securityDeposit, 'Deposit does not match to the property deposit');\r\n    property.isRented = true;\r\n    leaseAgreementCount++;\r\n\r\n    leaseAgreements[leaseAgreementCount] = LeaseAgreement({\r\n      id: leaseAgreementCount,\r\n      tenant: tenant,\r\n      property: property,\r\n      leaseStart: block.timestamp,\r\n      leaseDuration: duration,\r\n      totalRentPaid: 0,\r\n      state: State.Created\r\n    });\r\n    leaseAgreementKeys.push(leaseAgreementCount);\r\n    emit LeaseAgreementProposal(leaseAgreementCount, payable(msg.sender), propertyId);\r\n  }\r\n\r\n  function getRegisteredProperties() external view returns (Property[] memory) {\r\n    Property[] memory result = new Property[](propertiesKeys.length);\r\n    for (uint256 i = 0; i < propertiesKeys.length; i++) {\r\n      result[i] = properties[propertiesKeys[i]];\r\n    }\r\n    return result;\r\n  }\r\n\r\n  modifier onlyTenant(uint256 agreementId) {\r\n    require(msg.sender == leaseAgreements[agreementId].tenant.id, 'Only the tenant can perform this action');\r\n    _;\r\n  }\r\n\r\n  function getRegisteredLeaseAgreement() external view returns (LeaseAgreement[] memory) {\r\n    LeaseAgreement[] memory result = new LeaseAgreement[](leaseAgreementKeys.length);\r\n    for (uint256 i = 0; i < leaseAgreementKeys.length; i++) {\r\n      result[i] = leaseAgreements[leaseAgreementKeys[i]];\r\n    }\r\n    return result;\r\n  }\r\n\r\n  function acceptLeaseAgreement(uint256 agreementId) external onlyTenant(agreementId) {\r\n    require(leaseAgreements[agreementId].state == State.Created, 'LeaseAgreement is in an invalid state');\r\n    LeaseAgreement storage agreement = leaseAgreements[agreementId];\r\n    agreement.state = State.Started;\r\n  }\r\n\r\n  function getBalance() external view returns (uint256) {\r\n    return address(this).balance;\r\n  }\r\n\r\n  function payRent(uint256 agreementId) external payable onlyTenant(agreementId) {\r\n    LeaseAgreement storage agreement = leaseAgreements[agreementId];\r\n    require(agreement.state == State.Started, 'LeaseAgreement is in an invalid state');\r\n    require(msg.value == properties[agreement.id].price, 'Incorrect Rent amount');\r\n  }\r\n\r\n  function returnProperty(uint256 agreementId) external payable onlyTenant(agreementId) {\r\n    require(agreementId <= leaseAgreementCount && agreementId > 0, 'Invalid agreement ID');\r\n    LeaseAgreement storage agreement = leaseAgreements[agreementId];\r\n    require(agreement.state == State.Started, 'LeaseAgreement is in an invalid state');\r\n    agreement.state = State.Terminated;\r\n    properties[agreement.property.id].isRented = false;\r\n    uint256 rentAmount = properties[agreement.id].price * agreement.leaseDuration;\r\n    payable(msg.sender).transfer(rentAmount);\r\n    emit PropertyReturned(agreementId);\r\n  }\r\n}\r\n",
  "sourcePath": "C:\\Users\\UO251408\\Desktop\\block_chain\\housing-rental-backend\\contracts\\HousingRentalSystem.sol",
  "compiler": {
    "name": "solc",
    "version": "0.8.10+commit.fc410830.Emscripten.clang"
  },
  "schemaVersion": "3.4.12",
  "updatedAt": "2023-07-22T12:54:03.817Z",
  "networkType": "ethereum",
  "devdoc": {
    "kind": "dev",
    "methods": {},
    "version": 1
  },
  "userdoc": {
    "kind": "user",
    "methods": {},
    "version": 1
  }
}