{
  "contractName": "HousingRentalSystem",
  "abi": [
    {
      "inputs": [],
      "stateMutability": "nonpayable",
      "type": "constructor"
    },
    {
      "inputs": [],
      "name": "leaseAgreementCount",
      "outputs": [
        {
          "internalType": "uint256",
          "name": "",
          "type": "uint256"
        }
      ],
      "stateMutability": "view",
      "type": "function",
      "constant": true
    },
    {
      "inputs": [
        {
          "internalType": "uint256",
          "name": "",
          "type": "uint256"
        }
      ],
      "name": "leaseAgreements",
      "outputs": [
        {
          "internalType": "uint256",
          "name": "id",
          "type": "uint256"
        },
        {
          "components": [
            {
              "internalType": "address payable",
              "name": "id",
              "type": "address"
            },
            {
              "internalType": "string",
              "name": "name",
              "type": "string"
            },
            {
              "internalType": "string",
              "name": "phoneNumber",
              "type": "string"
            },
            {
              "internalType": "string",
              "name": "email",
              "type": "string"
            }
          ],
          "internalType": "struct HousingRentalSystem.Tenant",
          "name": "tenant",
          "type": "tuple"
        },
        {
          "components": [
            {
              "internalType": "uint256",
              "name": "id",
              "type": "uint256"
            },
            {
              "components": [
                {
                  "internalType": "address payable",
                  "name": "id",
                  "type": "address"
                },
                {
                  "internalType": "string",
                  "name": "name",
                  "type": "string"
                },
                {
                  "internalType": "string",
                  "name": "phoneNumber",
                  "type": "string"
                },
                {
                  "internalType": "string",
                  "name": "email",
                  "type": "string"
                }
              ],
              "internalType": "struct HousingRentalSystem.Landlord",
              "name": "landlord",
              "type": "tuple"
            },
            {
              "internalType": "string",
              "name": "postalAddress",
              "type": "string"
            },
            {
              "internalType": "string",
              "name": "description",
              "type": "string"
            },
            {
              "internalType": "uint256",
              "name": "price",
              "type": "uint256"
            },
            {
              "internalType": "uint256",
              "name": "securityDeposit",
              "type": "uint256"
            },
            {
              "internalType": "bool",
              "name": "isRented",
              "type": "bool"
            }
          ],
          "internalType": "struct HousingRentalSystem.Property",
          "name": "property",
          "type": "tuple"
        },
        {
          "internalType": "uint256",
          "name": "leaseStart",
          "type": "uint256"
        },
        {
          "internalType": "uint256",
          "name": "leaseDuration",
          "type": "uint256"
        },
        {
          "internalType": "uint256",
          "name": "totalRentPaid",
          "type": "uint256"
        },
        {
          "internalType": "enum HousingRentalSystem.State",
          "name": "state",
          "type": "uint8"
        }
      ],
      "stateMutability": "view",
      "type": "function",
      "constant": true
    },
    {
      "inputs": [
        {
          "internalType": "uint256",
          "name": "",
          "type": "uint256"
        }
      ],
      "name": "properties",
      "outputs": [
        {
          "internalType": "uint256",
          "name": "id",
          "type": "uint256"
        },
        {
          "components": [
            {
              "internalType": "address payable",
              "name": "id",
              "type": "address"
            },
            {
              "internalType": "string",
              "name": "name",
              "type": "string"
            },
            {
              "internalType": "string",
              "name": "phoneNumber",
              "type": "string"
            },
            {
              "internalType": "string",
              "name": "email",
              "type": "string"
            }
          ],
          "internalType": "struct HousingRentalSystem.Landlord",
          "name": "landlord",
          "type": "tuple"
        },
        {
          "internalType": "string",
          "name": "postalAddress",
          "type": "string"
        },
        {
          "internalType": "string",
          "name": "description",
          "type": "string"
        },
        {
          "internalType": "uint256",
          "name": "price",
          "type": "uint256"
        },
        {
          "internalType": "uint256",
          "name": "securityDeposit",
          "type": "uint256"
        },
        {
          "internalType": "bool",
          "name": "isRented",
          "type": "bool"
        }
      ],
      "stateMutability": "view",
      "type": "function",
      "constant": true
    },
    {
      "inputs": [],
      "name": "propertiesCount",
      "outputs": [
        {
          "internalType": "uint256",
          "name": "",
          "type": "uint256"
        }
      ],
      "stateMutability": "view",
      "type": "function",
      "constant": true
    },
    {
      "inputs": [
        {
          "internalType": "string",
          "name": "postalAddress",
          "type": "string"
        },
        {
          "internalType": "string",
          "name": "description",
          "type": "string"
        },
        {
          "internalType": "uint256",
          "name": "price",
          "type": "uint256"
        },
        {
          "internalType": "uint256",
          "name": "securityDeposit",
          "type": "uint256"
        },
        {
          "internalType": "string",
          "name": "landlordName",
          "type": "string"
        },
        {
          "internalType": "string",
          "name": "landlordPhone",
          "type": "string"
        },
        {
          "internalType": "string",
          "name": "landlordEmail",
          "type": "string"
        }
      ],
      "name": "registerProperty",
      "outputs": [],
      "stateMutability": "nonpayable",
      "type": "function"
    },
    {
      "inputs": [
        {
          "components": [
            {
              "internalType": "address payable",
              "name": "id",
              "type": "address"
            },
            {
              "internalType": "string",
              "name": "name",
              "type": "string"
            },
            {
              "internalType": "string",
              "name": "phoneNumber",
              "type": "string"
            },
            {
              "internalType": "string",
              "name": "email",
              "type": "string"
            }
          ],
          "internalType": "struct HousingRentalSystem.Tenant",
          "name": "tenant",
          "type": "tuple"
        },
        {
          "internalType": "uint256",
          "name": "propertyId",
          "type": "uint256"
        },
        {
          "internalType": "uint256",
          "name": "duration",
          "type": "uint256"
        },
        {
          "internalType": "uint256",
          "name": "deposit",
          "type": "uint256"
        }
      ],
      "name": "rentProperty",
      "outputs": [],
      "stateMutability": "payable",
      "type": "function",
      "payable": true
    },
    {
      "inputs": [
        {
          "internalType": "uint256",
          "name": "agreementId",
          "type": "uint256"
        }
      ],
      "name": "acceptLeaseAgreement",
      "outputs": [],
      "stateMutability": "nonpayable",
      "type": "function"
    },
    {
      "inputs": [],
      "name": "getBalance",
      "outputs": [
        {
          "internalType": "uint256",
          "name": "",
          "type": "uint256"
        }
      ],
      "stateMutability": "view",
      "type": "function",
      "constant": true
    },
    {
      "inputs": [
        {
          "internalType": "uint256",
          "name": "agreementId",
          "type": "uint256"
        }
      ],
      "name": "payRent",
      "outputs": [],
      "stateMutability": "payable",
      "type": "function",
      "payable": true
    },
    {
      "inputs": [
        {
          "internalType": "uint256",
          "name": "agreementId",
          "type": "uint256"
        }
      ],
      "name": "returnProperty",
      "outputs": [],
      "stateMutability": "payable",
      "type": "function",
      "payable": true
    }
  ],
  "bytecode": "0x608060405234801561001057600080fd5b5060006001819055506000600381905550612a77806100306000396000f3fe6080604052600436106100915760003560e01c80637db9f7a5116100595780637db9f7a51461015a578063831b455d14610185578063d9e8843f146101c8578063e4bc6a87146101e4578063f7b108081461020057610091565b806311447e871461009657806312065fe0146100c15780631f29b2ae146100ec5780634d1f0a4e14610115578063749f04271461013e575b600080fd5b3480156100a257600080fd5b506100ab610243565b6040516100b89190611b8e565b60405180910390f35b3480156100cd57600080fd5b506100d6610249565b6040516100e39190611b8e565b60405180910390f35b3480156100f857600080fd5b50610113600480360381019061010e9190611d2f565b610251565b005b34801561012157600080fd5b5061013c60048036038101906101379190611e5d565b61045b565b005b61015860048036038101906101539190611e5d565b6105d6565b005b34801561016657600080fd5b5061016f61083a565b60405161017c9190611b8e565b60405180910390f35b34801561019157600080fd5b506101ac60048036038101906101a79190611e5d565b610840565b6040516101bf9796959493929190612180565b60405180910390f35b6101e260048036038101906101dd9190611e5d565b610e2c565b005b6101fe60048036038101906101f991906122ff565b610fc3565b005b34801561020c57600080fd5b5061022760048036038101906102229190611e5d565b61175d565b60405161023a979695949392919061244c565b60405180910390f35b60015481565b600047905090565b60008511610294576040517f08c379a000000000000000000000000000000000000000000000000000000000815260040161028b9061251c565b60405180910390fd5b600160008154809291906102a79061256b565b91905055506040518060e00160405280600154815260200160405180608001604052803373ffffffffffffffffffffffffffffffffffffffff1681526020018681526020018581526020018481525081526020018881526020018781526020018681526020018581526020016000151581525060008060015481526020019081526020016000206000820151816000015560208201518160010160008201518160000160006101000a81548173ffffffffffffffffffffffffffffffffffffffff021916908373ffffffffffffffffffffffffffffffffffffffff16021790555060208201518160010190805190602001906103a4929190611ad2565b5060408201518160020190805190602001906103c1929190611ad2565b5060608201518160030190805190602001906103de929190611ad2565b50505060408201518160050190805190602001906103fd929190611ad2565b50606082015181600601908051906020019061041a929190611ad2565b506080820151816007015560a0820151816008015560c08201518160090160006101000a81548160ff02191690831515021790555090505050505050505050565b806002600082815260200190815260200160002060010160000160009054906101000a900473ffffffffffffffffffffffffffffffffffffffff1673ffffffffffffffffffffffffffffffffffffffff163373ffffffffffffffffffffffffffffffffffffffff1614610503576040517f08c379a00000000000000000000000000000000000000000000000000000000081526004016104fa90612626565b60405180910390fd5b6000600281111561051757610516612109565b5b6002600084815260200190815260200160002060120160009054906101000a900460ff16600281111561054d5761054c612109565b5b1461058d576040517f08c379a0000000000000000000000000000000000000000000000000000000008152600401610584906126b8565b60405180910390fd5b600060026000848152602001908152602001600020905060018160120160006101000a81548160ff021916908360028111156105cc576105cb612109565b5b0217905550505050565b806002600082815260200190815260200160002060010160000160009054906101000a900473ffffffffffffffffffffffffffffffffffffffff1673ffffffffffffffffffffffffffffffffffffffff163373ffffffffffffffffffffffffffffffffffffffff161461067e576040517f08c379a000000000000000000000000000000000000000000000000000000000815260040161067590612626565b60405180910390fd5b60035482111580156106905750600082115b6106cf576040517f08c379a00000000000000000000000000000000000000000000000000000000081526004016106c690612724565b60405180910390fd5b6000600260008481526020019081526020016000209050600160028111156106fa576106f9612109565b5b8160120160009054906101000a900460ff16600281111561071e5761071d612109565b5b1461075e576040517f08c379a0000000000000000000000000000000000000000000000000000000008152600401610755906126b8565b60405180910390fd5b60028160120160006101000a81548160ff0219169083600281111561078657610785612109565b5b021790555060008060008360050160000154815260200190815260200160002060090160006101000a81548160ff0219169083151502179055506000816010015460008084600001548152602001908152602001600020600701546107eb9190612744565b90503373ffffffffffffffffffffffffffffffffffffffff166108fc829081150290604051600060405180830381858888f19350505050158015610833573d6000803e3d6000fd5b5050505050565b60035481565b6002602052806000526040600020600091509050806000015490806001016040518060800160405290816000820160009054906101000a900473ffffffffffffffffffffffffffffffffffffffff1673ffffffffffffffffffffffffffffffffffffffff1673ffffffffffffffffffffffffffffffffffffffff1681526020016001820180546108cf906127cd565b80601f01602080910402602001604051908101604052809291908181526020018280546108fb906127cd565b80156109485780601f1061091d57610100808354040283529160200191610948565b820191906000526020600020905b81548152906001019060200180831161092b57829003601f168201915b50505050508152602001600282018054610961906127cd565b80601f016020809104026020016040519081016040528092919081815260200182805461098d906127cd565b80156109da5780601f106109af576101008083540402835291602001916109da565b820191906000526020600020905b8154815290600101906020018083116109bd57829003601f168201915b505050505081526020016003820180546109f3906127cd565b80601f0160208091040260200160405190810160405280929190818152602001828054610a1f906127cd565b8015610a6c5780601f10610a4157610100808354040283529160200191610a6c565b820191906000526020600020905b815481529060010190602001808311610a4f57829003601f168201915b50505050508152505090806005016040518060e001604052908160008201548152602001600182016040518060800160405290816000820160009054906101000a900473ffffffffffffffffffffffffffffffffffffffff1673ffffffffffffffffffffffffffffffffffffffff1673ffffffffffffffffffffffffffffffffffffffff168152602001600182018054610b05906127cd565b80601f0160208091040260200160405190810160405280929190818152602001828054610b31906127cd565b8015610b7e5780601f10610b5357610100808354040283529160200191610b7e565b820191906000526020600020905b815481529060010190602001808311610b6157829003601f168201915b50505050508152602001600282018054610b97906127cd565b80601f0160208091040260200160405190810160405280929190818152602001828054610bc3906127cd565b8015610c105780601f10610be557610100808354040283529160200191610c10565b820191906000526020600020905b815481529060010190602001808311610bf357829003601f168201915b50505050508152602001600382018054610c29906127cd565b80601f0160208091040260200160405190810160405280929190818152602001828054610c55906127cd565b8015610ca25780601f10610c7757610100808354040283529160200191610ca2565b820191906000526020600020905b815481529060010190602001808311610c8557829003601f168201915b5050505050815250508152602001600582018054610cbf906127cd565b80601f0160208091040260200160405190810160405280929190818152602001828054610ceb906127cd565b8015610d385780601f10610d0d57610100808354040283529160200191610d38565b820191906000526020600020905b815481529060010190602001808311610d1b57829003601f168201915b50505050508152602001600682018054610d51906127cd565b80601f0160208091040260200160405190810160405280929190818152602001828054610d7d906127cd565b8015610dca5780601f10610d9f57610100808354040283529160200191610dca565b820191906000526020600020905b815481529060010190602001808311610dad57829003601f168201915b5050505050815260200160078201548152602001600882015481526020016009820160009054906101000a900460ff1615151515815250509080600f0154908060100154908060110154908060120160009054906101000a900460ff16905087565b806002600082815260200190815260200160002060010160000160009054906101000a900473ffffffffffffffffffffffffffffffffffffffff1673ffffffffffffffffffffffffffffffffffffffff163373ffffffffffffffffffffffffffffffffffffffff1614610ed4576040517f08c379a0000000000000000000000000000000000000000000000000000000008152600401610ecb90612626565b60405180910390fd5b600060026000848152602001908152602001600020905060016002811115610eff57610efe612109565b5b8160120160009054906101000a900460ff166002811115610f2357610f22612109565b5b14610f63576040517f08c379a0000000000000000000000000000000000000000000000000000000008152600401610f5a906126b8565b60405180910390fd5b60008082600001548152602001908152602001600020600701543414610fbe576040517f08c379a0000000000000000000000000000000000000000000000000000000008152600401610fb59061284b565b60405180910390fd5b505050565b60008060008581526020019081526020016000206040518060e001604052908160008201548152602001600182016040518060800160405290816000820160009054906101000a900473ffffffffffffffffffffffffffffffffffffffff1673ffffffffffffffffffffffffffffffffffffffff1673ffffffffffffffffffffffffffffffffffffffff168152602001600182018054611062906127cd565b80601f016020809104026020016040519081016040528092919081815260200182805461108e906127cd565b80156110db5780601f106110b0576101008083540402835291602001916110db565b820191906000526020600020905b8154815290600101906020018083116110be57829003601f168201915b505050505081526020016002820180546110f4906127cd565b80601f0160208091040260200160405190810160405280929190818152602001828054611120906127cd565b801561116d5780601f106111425761010080835404028352916020019161116d565b820191906000526020600020905b81548152906001019060200180831161115057829003601f168201915b50505050508152602001600382018054611186906127cd565b80601f01602080910402602001604051908101604052809291908181526020018280546111b2906127cd565b80156111ff5780601f106111d4576101008083540402835291602001916111ff565b820191906000526020600020905b8154815290600101906020018083116111e257829003601f168201915b505050505081525050815260200160058201805461121c906127cd565b80601f0160208091040260200160405190810160405280929190818152602001828054611248906127cd565b80156112955780601f1061126a57610100808354040283529160200191611295565b820191906000526020600020905b81548152906001019060200180831161127857829003601f168201915b505050505081526020016006820180546112ae906127cd565b80601f01602080910402602001604051908101604052809291908181526020018280546112da906127cd565b80156113275780601f106112fc57610100808354040283529160200191611327565b820191906000526020600020905b81548152906001019060200180831161130a57829003601f168201915b5050505050815260200160078201548152602001600882015481526020016009820160009054906101000a900460ff161515151581525050905060015484111580156113735750600084115b6113b2576040517f08c379a00000000000000000000000000000000000000000000000000000000081526004016113a9906128b7565b60405180910390fd5b8060c00151156113f7576040517f08c379a00000000000000000000000000000000000000000000000000000000081526004016113ee90612923565b60405180910390fd5b82600080868152602001908152602001600020600701546114189190612744565b3414611459576040517f08c379a00000000000000000000000000000000000000000000000000000000081526004016114509061298f565b60405180910390fd5b8060a00151821461149f576040517f08c379a000000000000000000000000000000000000000000000000000000000815260040161149690612a21565b60405180910390fd5b60018160c0019015159081151581525050600360008154809291906114c39061256b565b91905055506040518060e001604052806003548152602001868152602001828152602001428152602001848152602001600081526020016000600281111561150e5761150d612109565b5b8152506002600060035481526020019081526020016000206000820151816000015560208201518160010160008201518160000160006101000a81548173ffffffffffffffffffffffffffffffffffffffff021916908373ffffffffffffffffffffffffffffffffffffffff160217905550602082015181600101908051906020019061159c929190611ad2565b5060408201518160020190805190602001906115b9929190611ad2565b5060608201518160030190805190602001906115d6929190611ad2565b5050506040820151816005016000820151816000015560208201518160010160008201518160000160006101000a81548173ffffffffffffffffffffffffffffffffffffffff021916908373ffffffffffffffffffffffffffffffffffffffff1602179055506020820151816001019080519060200190611658929190611ad2565b506040820151816002019080519060200190611675929190611ad2565b506060820151816003019080519060200190611692929190611ad2565b50505060408201518160050190805190602001906116b1929190611ad2565b5060608201518160060190805190602001906116ce929190611ad2565b506080820151816007015560a0820151816008015560c08201518160090160006101000a81548160ff0219169083151502179055505050606082015181600f01556080820151816010015560a0820151816011015560c08201518160120160006101000a81548160ff0219169083600281111561174e5761174d612109565b5b02179055509050505050505050565b6000602052806000526040600020600091509050806000015490806001016040518060800160405290816000820160009054906101000a900473ffffffffffffffffffffffffffffffffffffffff1673ffffffffffffffffffffffffffffffffffffffff1673ffffffffffffffffffffffffffffffffffffffff1681526020016001820180546117ec906127cd565b80601f0160208091040260200160405190810160405280929190818152602001828054611818906127cd565b80156118655780601f1061183a57610100808354040283529160200191611865565b820191906000526020600020905b81548152906001019060200180831161184857829003601f168201915b5050505050815260200160028201805461187e906127cd565b80601f01602080910402602001604051908101604052809291908181526020018280546118aa906127cd565b80156118f75780601f106118cc576101008083540402835291602001916118f7565b820191906000526020600020905b8154815290600101906020018083116118da57829003601f168201915b50505050508152602001600382018054611910906127cd565b80601f016020809104026020016040519081016040528092919081815260200182805461193c906127cd565b80156119895780601f1061195e57610100808354040283529160200191611989565b820191906000526020600020905b81548152906001019060200180831161196c57829003601f168201915b505050505081525050908060050180546119a2906127cd565b80601f01602080910402602001604051908101604052809291908181526020018280546119ce906127cd565b8015611a1b5780601f106119f057610100808354040283529160200191611a1b565b820191906000526020600020905b8154815290600101906020018083116119fe57829003601f168201915b505050505090806006018054611a30906127cd565b80601f0160208091040260200160405190810160405280929190818152602001828054611a5c906127cd565b8015611aa95780601f10611a7e57610100808354040283529160200191611aa9565b820191906000526020600020905b815481529060010190602001808311611a8c57829003601f168201915b5050505050908060070154908060080154908060090160009054906101000a900460ff16905087565b828054611ade906127cd565b90600052602060002090601f016020900481019282611b005760008555611b47565b82601f10611b1957805160ff1916838001178555611b47565b82800160010185558215611b47579182015b82811115611b46578251825591602001919060010190611b2b565b5b509050611b549190611b58565b5090565b5b80821115611b71576000816000905550600101611b59565b5090565b6000819050919050565b611b8881611b75565b82525050565b6000602082019050611ba36000830184611b7f565b92915050565b6000604051905090565b600080fd5b600080fd5b600080fd5b600080fd5b6000601f19601f8301169050919050565b7f4e487b7100000000000000000000000000000000000000000000000000000000600052604160045260246000fd5b611c1082611bc7565b810181811067ffffffffffffffff82111715611c2f57611c2e611bd8565b5b80604052505050565b6000611c42611ba9565b9050611c4e8282611c07565b919050565b600067ffffffffffffffff821115611c6e57611c6d611bd8565b5b611c7782611bc7565b9050602081019050919050565b82818337600083830152505050565b6000611ca6611ca184611c53565b611c38565b905082815260208101848484011115611cc257611cc1611bc2565b5b611ccd848285611c84565b509392505050565b600082601f830112611cea57611ce9611bbd565b5b8135611cfa848260208601611c93565b91505092915050565b611d0c81611b75565b8114611d1757600080fd5b50565b600081359050611d2981611d03565b92915050565b600080600080600080600060e0888a031215611d4e57611d4d611bb3565b5b600088013567ffffffffffffffff811115611d6c57611d6b611bb8565b5b611d788a828b01611cd5565b975050602088013567ffffffffffffffff811115611d9957611d98611bb8565b5b611da58a828b01611cd5565b9650506040611db68a828b01611d1a565b9550506060611dc78a828b01611d1a565b945050608088013567ffffffffffffffff811115611de857611de7611bb8565b5b611df48a828b01611cd5565b93505060a088013567ffffffffffffffff811115611e1557611e14611bb8565b5b611e218a828b01611cd5565b92505060c088013567ffffffffffffffff811115611e4257611e41611bb8565b5b611e4e8a828b01611cd5565b91505092959891949750929550565b600060208284031215611e7357611e72611bb3565b5b6000611e8184828501611d1a565b91505092915050565b600073ffffffffffffffffffffffffffffffffffffffff82169050919050565b6000611eb582611e8a565b9050919050565b611ec581611eaa565b82525050565b600081519050919050565b600082825260208201905092915050565b60005b83811015611f05578082015181840152602081019050611eea565b83811115611f14576000848401525b50505050565b6000611f2582611ecb565b611f2f8185611ed6565b9350611f3f818560208601611ee7565b611f4881611bc7565b840191505092915050565b6000608083016000830151611f6b6000860182611ebc565b5060208301518482036020860152611f838282611f1a565b91505060408301518482036040860152611f9d8282611f1a565b91505060608301518482036060860152611fb78282611f1a565b9150508091505092915050565b611fcd81611b75565b82525050565b6000608083016000830151611feb6000860182611ebc565b50602083015184820360208601526120038282611f1a565b9150506040830151848203604086015261201d8282611f1a565b915050606083015184820360608601526120378282611f1a565b9150508091505092915050565b60008115159050919050565b61205981612044565b82525050565b600060e0830160008301516120776000860182611fc4565b506020830151848203602086015261208f8282611fd3565b915050604083015184820360408601526120a98282611f1a565b915050606083015184820360608601526120c38282611f1a565b91505060808301516120d86080860182611fc4565b5060a08301516120eb60a0860182611fc4565b5060c08301516120fe60c0860182612050565b508091505092915050565b7f4e487b7100000000000000000000000000000000000000000000000000000000600052602160045260246000fd5b6003811061214957612148612109565b5b50565b600081905061215a82612138565b919050565b600061216a8261214c565b9050919050565b61217a8161215f565b82525050565b600060e082019050612195600083018a611b7f565b81810360208301526121a78189611f53565b905081810360408301526121bb818861205f565b90506121ca6060830187611b7f565b6121d76080830186611b7f565b6121e460a0830185611b7f565b6121f160c0830184612171565b98975050505050505050565b600080fd5b600080fd5b61221081611eaa565b811461221b57600080fd5b50565b60008135905061222d81612207565b92915050565b600060808284031215612249576122486121fd565b5b6122536080611c38565b905060006122638482850161221e565b600083015250602082013567ffffffffffffffff81111561228757612286612202565b5b61229384828501611cd5565b602083015250604082013567ffffffffffffffff8111156122b7576122b6612202565b5b6122c384828501611cd5565b604083015250606082013567ffffffffffffffff8111156122e7576122e6612202565b5b6122f384828501611cd5565b60608301525092915050565b6000806000806080858703121561231957612318611bb3565b5b600085013567ffffffffffffffff81111561233757612336611bb8565b5b61234387828801612233565b945050602061235487828801611d1a565b935050604061236587828801611d1a565b925050606061237687828801611d1a565b91505092959194509250565b600060808301600083015161239a6000860182611ebc565b50602083015184820360208601526123b28282611f1a565b915050604083015184820360408601526123cc8282611f1a565b915050606083015184820360608601526123e68282611f1a565b9150508091505092915050565b600082825260208201905092915050565b600061240f82611ecb565b61241981856123f3565b9350612429818560208601611ee7565b61243281611bc7565b840191505092915050565b61244681612044565b82525050565b600060e082019050612461600083018a611b7f565b81810360208301526124738189612382565b905081810360408301526124878188612404565b9050818103606083015261249b8187612404565b90506124aa6080830186611b7f565b6124b760a0830185611b7f565b6124c460c083018461243d565b98975050505050505050565b7f5072696365206d7573742062652067726561746572207468616e203000000000600082015250565b6000612506601c836123f3565b9150612511826124d0565b602082019050919050565b60006020820190508181036000830152612535816124f9565b9050919050565b7f4e487b7100000000000000000000000000000000000000000000000000000000600052601160045260246000fd5b600061257682611b75565b91507fffffffffffffffffffffffffffffffffffffffffffffffffffffffffffffffff8214156125a9576125a861253c565b5b600182019050919050565b7f4f6e6c79207468652074656e616e742063616e20706572666f726d207468697360008201527f20616374696f6e00000000000000000000000000000000000000000000000000602082015250565b60006126106027836123f3565b915061261b826125b4565b604082019050919050565b6000602082019050818103600083015261263f81612603565b9050919050565b7f4c6561736541677265656d656e7420697320696e20616e20696e76616c69642060008201527f7374617465000000000000000000000000000000000000000000000000000000602082015250565b60006126a26025836123f3565b91506126ad82612646565b604082019050919050565b600060208201905081810360008301526126d181612695565b9050919050565b7f496e76616c69642061677265656d656e74204944000000000000000000000000600082015250565b600061270e6014836123f3565b9150612719826126d8565b602082019050919050565b6000602082019050818103600083015261273d81612701565b9050919050565b600061274f82611b75565b915061275a83611b75565b9250817fffffffffffffffffffffffffffffffffffffffffffffffffffffffffffffffff04831182151516156127935761279261253c565b5b828202905092915050565b7f4e487b7100000000000000000000000000000000000000000000000000000000600052602260045260246000fd5b600060028204905060018216806127e557607f821691505b602082108114156127f9576127f861279e565b5b50919050565b7f496e636f72726563742052656e7420616d6f756e740000000000000000000000600082015250565b60006128356015836123f3565b9150612840826127ff565b602082019050919050565b6000602082019050818103600083015261286481612828565b9050919050565b7f496e76616c69642070726f706572747920494400000000000000000000000000600082015250565b60006128a16013836123f3565b91506128ac8261286b565b602082019050919050565b600060208201905081810360008301526128d081612894565b9050919050565b7f50726f706572747920697320616c72656164792072656e746564000000000000600082015250565b600061290d601a836123f3565b9150612918826128d7565b602082019050919050565b6000602082019050818103600083015261293c81612900565b9050919050565b7f496e73756666696369656e74207061796d656e74000000000000000000000000600082015250565b60006129796014836123f3565b915061298482612943565b602082019050919050565b600060208201905081810360008301526129a88161296c565b9050919050565b7f4465706f73697420646f6573206e6f74206d6174636820746f2074686520707260008201527f6f7065727479206465706f736974000000000000000000000000000000000000602082015250565b6000612a0b602e836123f3565b9150612a16826129af565b604082019050919050565b60006020820190508181036000830152612a3a816129fe565b905091905056fea26469706673582212204d335693361ee2ddda364f7dc5d534ccfff7441d1f221e7b741c332c20c6bc8d64736f6c634300080a0033",
  "immutableReferences": {},
  "source": "// SPDX-License-Identifier: GPL-3.0\r\npragma solidity ^0.8.10;\r\n\r\ncontract HousingRentalSystem {\r\n  enum State {\r\n    Created,\r\n    Started,\r\n    Terminated\r\n  }\r\n\r\n  struct Landlord {\r\n    address payable id;\r\n    string name;\r\n    string phoneNumber;\r\n    string email;\r\n  }\r\n\r\n  struct Tenant {\r\n    address payable id;\r\n    string name;\r\n    string phoneNumber;\r\n    string email;\r\n  }\r\n\r\n  struct Property {\r\n    uint256 id;\r\n    Landlord landlord;\r\n    string postalAddress;\r\n    string description;\r\n    uint price;\r\n    uint securityDeposit;\r\n    bool isRented;\r\n  }\r\n\r\n  struct LeaseAgreement {\r\n    uint256 id;\r\n    Tenant tenant;\r\n    Property property;\r\n    uint leaseStart;\r\n    uint leaseDuration;\r\n    uint totalRentPaid;\r\n    State state;\r\n  }\r\n\r\n  mapping(uint256 => Property) public properties;\r\n  uint256 public propertiesCount;\r\n  mapping(uint256 => LeaseAgreement) public leaseAgreements;\r\n  uint256 public leaseAgreementCount;\r\n\r\n  constructor() {\r\n    propertiesCount = 0;\r\n    leaseAgreementCount = 0;\r\n  }\r\n\r\n  function registerProperty(\r\n    string memory postalAddress,\r\n    string memory description,\r\n    uint price,\r\n    uint securityDeposit,\r\n    string memory landlordName,\r\n    string memory landlordPhone,\r\n    string memory landlordEmail\r\n  ) external {\r\n    require(price > 0, 'Price must be greater than 0');\r\n    propertiesCount++;\r\n    properties[propertiesCount] = Property({\r\n      id: propertiesCount,\r\n      landlord: Landlord({ id: payable(msg.sender), name: landlordName, phoneNumber: landlordPhone, email: landlordEmail }),\r\n      description: description,\r\n      postalAddress: postalAddress,\r\n      price: price,\r\n      securityDeposit: securityDeposit,\r\n      isRented: false\r\n    });\r\n  }\r\n\r\n  function rentProperty(Tenant memory tenant, uint256 propertyId, uint256 duration, uint256 deposit) external payable {\r\n    Property memory property = properties[propertyId];\r\n    require(propertyId <= propertiesCount && propertyId > 0, 'Invalid property ID');\r\n    require(!property.isRented, 'Property is already rented');\r\n    require(msg.value == properties[propertyId].price * duration, 'Insufficient payment');\r\n    require(deposit == property.securityDeposit, 'Deposit does not match to the property deposit');\r\n    property.isRented = true;\r\n    leaseAgreementCount++;\r\n\r\n    leaseAgreements[leaseAgreementCount] = LeaseAgreement({\r\n      id: leaseAgreementCount,\r\n      tenant: tenant,\r\n      property: property,\r\n      leaseStart: block.timestamp,\r\n      leaseDuration: duration,\r\n      totalRentPaid: 0,\r\n      state: State.Created\r\n    });\r\n  }\r\n\r\n  modifier onlyTenant(uint256 agreementId) {\r\n    require(msg.sender == leaseAgreements[agreementId].tenant.id, 'Only the tenant can perform this action');\r\n    _;\r\n  }\r\n\r\n  function acceptLeaseAgreement(uint256 agreementId) external onlyTenant(agreementId) {\r\n    require(leaseAgreements[agreementId].state == State.Created, 'LeaseAgreement is in an invalid state');\r\n    LeaseAgreement storage agreement = leaseAgreements[agreementId];\r\n    agreement.state = State.Started;\r\n  }\r\n\r\n  function getBalance() external view returns (uint256) {\r\n    return address(this).balance;\r\n  }\r\n\r\n  function payRent(uint256 agreementId) external payable onlyTenant(agreementId) {\r\n    LeaseAgreement storage agreement = leaseAgreements[agreementId];\r\n    require(agreement.state == State.Started, 'LeaseAgreement is in an invalid state');\r\n    require(msg.value == properties[agreement.id].price, 'Incorrect Rent amount');\r\n  }\r\n\r\n  function returnProperty(uint256 agreementId) external payable onlyTenant(agreementId) {\r\n    require(agreementId <= leaseAgreementCount && agreementId > 0, 'Invalid agreement ID');\r\n    LeaseAgreement storage agreement = leaseAgreements[agreementId];\r\n    require(agreement.state == State.Started, 'LeaseAgreement is in an invalid state');\r\n    agreement.state = State.Terminated;\r\n    properties[agreement.property.id].isRented = false;\r\n    uint256 rentAmount = properties[agreement.id].price * agreement.leaseDuration;\r\n    payable(msg.sender).transfer(rentAmount);\r\n  }\r\n}\r\n",
  "sourcePath": "C:\\Users\\UO251408\\Desktop\\block_chain\\housing-rental-backend\\contracts\\HousingRentalSystem.sol",
  "compiler": {
    "name": "solc",
    "version": "0.8.10+commit.fc410830.Emscripten.clang"
  },
  "schemaVersion": "3.4.12",
  "updatedAt": "2023-06-27T00:57:17.285Z",
  "networkType": "ethereum",
  "devdoc": {
    "kind": "dev",
    "methods": {},
    "version": 1
  },
  "userdoc": {
    "kind": "user",
    "methods": {},
    "version": 1
  }
}