{
  "contractName": "HousingRentalSystem",
  "abi": [
    {
      "inputs": [],
      "stateMutability": "nonpayable",
      "type": "constructor"
    },
    {
      "anonymous": false,
      "inputs": [
        {
          "indexed": false,
          "internalType": "uint256",
          "name": "leaseAgreementCount",
          "type": "uint256"
        },
        {
          "indexed": false,
          "internalType": "address payable",
          "name": "tenant",
          "type": "address"
        },
        {
          "indexed": false,
          "internalType": "uint256",
          "name": "propertyId",
          "type": "uint256"
        }
      ],
      "name": "LeaseAgreementProposal",
      "type": "event"
    },
    {
      "anonymous": false,
      "inputs": [
        {
          "indexed": false,
          "internalType": "uint256",
          "name": "propertyId",
          "type": "uint256"
        },
        {
          "indexed": false,
          "internalType": "address payable",
          "name": "landlord",
          "type": "address"
        },
        {
          "indexed": false,
          "internalType": "uint256",
          "name": "price",
          "type": "uint256"
        }
      ],
      "name": "PropertyAdded",
      "type": "event"
    },
    {
      "anonymous": false,
      "inputs": [
        {
          "indexed": false,
          "internalType": "uint256",
          "name": "agreementId",
          "type": "uint256"
        },
        {
          "indexed": false,
          "internalType": "uint256",
          "name": "amount",
          "type": "uint256"
        }
      ],
      "name": "PropertyPaid",
      "type": "event"
    },
    {
      "anonymous": false,
      "inputs": [
        {
          "indexed": false,
          "internalType": "uint256",
          "name": "agreementId",
          "type": "uint256"
        },
        {
          "indexed": false,
          "internalType": "address payable",
          "name": "tenant",
          "type": "address"
        },
        {
          "indexed": false,
          "internalType": "uint256",
          "name": "houseId",
          "type": "uint256"
        },
        {
          "indexed": false,
          "internalType": "uint256",
          "name": "duration",
          "type": "uint256"
        }
      ],
      "name": "PropertyProposalRent",
      "type": "event"
    },
    {
      "anonymous": false,
      "inputs": [
        {
          "indexed": false,
          "internalType": "uint256",
          "name": "agreementId",
          "type": "uint256"
        }
      ],
      "name": "PropertyReturned",
      "type": "event"
    },
    {
      "inputs": [],
      "name": "leaseAgreementCount",
      "outputs": [
        {
          "internalType": "uint256",
          "name": "",
          "type": "uint256"
        }
      ],
      "stateMutability": "view",
      "type": "function",
      "constant": true
    },
    {
      "inputs": [
        {
          "internalType": "uint256",
          "name": "",
          "type": "uint256"
        }
      ],
      "name": "leaseAgreementKeys",
      "outputs": [
        {
          "internalType": "uint256",
          "name": "",
          "type": "uint256"
        }
      ],
      "stateMutability": "view",
      "type": "function",
      "constant": true
    },
    {
      "inputs": [
        {
          "internalType": "uint256",
          "name": "",
          "type": "uint256"
        }
      ],
      "name": "leaseAgreements",
      "outputs": [
        {
          "internalType": "uint256",
          "name": "id",
          "type": "uint256"
        },
        {
          "components": [
            {
              "internalType": "address payable",
              "name": "id",
              "type": "address"
            },
            {
              "internalType": "string",
              "name": "name",
              "type": "string"
            },
            {
              "internalType": "string",
              "name": "phoneNumber",
              "type": "string"
            },
            {
              "internalType": "string",
              "name": "email",
              "type": "string"
            }
          ],
          "internalType": "struct HousingRentalSystem.Tenant",
          "name": "tenant",
          "type": "tuple"
        },
        {
          "components": [
            {
              "internalType": "uint256",
              "name": "id",
              "type": "uint256"
            },
            {
              "components": [
                {
                  "internalType": "address payable",
                  "name": "id",
                  "type": "address"
                },
                {
                  "internalType": "string",
                  "name": "name",
                  "type": "string"
                },
                {
                  "internalType": "string",
                  "name": "phoneNumber",
                  "type": "string"
                },
                {
                  "internalType": "string",
                  "name": "email",
                  "type": "string"
                }
              ],
              "internalType": "struct HousingRentalSystem.Landlord",
              "name": "landlord",
              "type": "tuple"
            },
            {
              "internalType": "string",
              "name": "postalAddress",
              "type": "string"
            },
            {
              "internalType": "string",
              "name": "description",
              "type": "string"
            },
            {
              "internalType": "uint256",
              "name": "price",
              "type": "uint256"
            },
            {
              "internalType": "uint256",
              "name": "securityDeposit",
              "type": "uint256"
            },
            {
              "internalType": "bool",
              "name": "isRented",
              "type": "bool"
            }
          ],
          "internalType": "struct HousingRentalSystem.Property",
          "name": "property",
          "type": "tuple"
        },
        {
          "internalType": "uint256",
          "name": "leaseStart",
          "type": "uint256"
        },
        {
          "internalType": "uint256",
          "name": "leaseDuration",
          "type": "uint256"
        },
        {
          "internalType": "uint256",
          "name": "totalRentPaid",
          "type": "uint256"
        },
        {
          "internalType": "enum HousingRentalSystem.State",
          "name": "state",
          "type": "uint8"
        }
      ],
      "stateMutability": "view",
      "type": "function",
      "constant": true
    },
    {
      "inputs": [
        {
          "internalType": "uint256",
          "name": "",
          "type": "uint256"
        }
      ],
      "name": "properties",
      "outputs": [
        {
          "internalType": "uint256",
          "name": "id",
          "type": "uint256"
        },
        {
          "components": [
            {
              "internalType": "address payable",
              "name": "id",
              "type": "address"
            },
            {
              "internalType": "string",
              "name": "name",
              "type": "string"
            },
            {
              "internalType": "string",
              "name": "phoneNumber",
              "type": "string"
            },
            {
              "internalType": "string",
              "name": "email",
              "type": "string"
            }
          ],
          "internalType": "struct HousingRentalSystem.Landlord",
          "name": "landlord",
          "type": "tuple"
        },
        {
          "internalType": "string",
          "name": "postalAddress",
          "type": "string"
        },
        {
          "internalType": "string",
          "name": "description",
          "type": "string"
        },
        {
          "internalType": "uint256",
          "name": "price",
          "type": "uint256"
        },
        {
          "internalType": "uint256",
          "name": "securityDeposit",
          "type": "uint256"
        },
        {
          "internalType": "bool",
          "name": "isRented",
          "type": "bool"
        }
      ],
      "stateMutability": "view",
      "type": "function",
      "constant": true
    },
    {
      "inputs": [],
      "name": "propertiesCount",
      "outputs": [
        {
          "internalType": "uint256",
          "name": "",
          "type": "uint256"
        }
      ],
      "stateMutability": "view",
      "type": "function",
      "constant": true
    },
    {
      "inputs": [
        {
          "internalType": "uint256",
          "name": "",
          "type": "uint256"
        }
      ],
      "name": "propertiesKeys",
      "outputs": [
        {
          "internalType": "uint256",
          "name": "",
          "type": "uint256"
        }
      ],
      "stateMutability": "view",
      "type": "function",
      "constant": true
    },
    {
      "inputs": [
        {
          "internalType": "string",
          "name": "postalAddress",
          "type": "string"
        },
        {
          "internalType": "string",
          "name": "description",
          "type": "string"
        },
        {
          "internalType": "uint256",
          "name": "price",
          "type": "uint256"
        },
        {
          "internalType": "uint256",
          "name": "securityDeposit",
          "type": "uint256"
        },
        {
          "internalType": "string",
          "name": "landlordName",
          "type": "string"
        },
        {
          "internalType": "string",
          "name": "landlordPhone",
          "type": "string"
        },
        {
          "internalType": "string",
          "name": "landlordEmail",
          "type": "string"
        }
      ],
      "name": "registerProperty",
      "outputs": [],
      "stateMutability": "nonpayable",
      "type": "function"
    },
    {
      "inputs": [
        {
          "components": [
            {
              "internalType": "address payable",
              "name": "id",
              "type": "address"
            },
            {
              "internalType": "string",
              "name": "name",
              "type": "string"
            },
            {
              "internalType": "string",
              "name": "phoneNumber",
              "type": "string"
            },
            {
              "internalType": "string",
              "name": "email",
              "type": "string"
            }
          ],
          "internalType": "struct HousingRentalSystem.Tenant",
          "name": "tenant",
          "type": "tuple"
        },
        {
          "internalType": "uint256",
          "name": "propertyId",
          "type": "uint256"
        },
        {
          "internalType": "uint256",
          "name": "duration",
          "type": "uint256"
        },
        {
          "internalType": "uint256",
          "name": "deposit",
          "type": "uint256"
        }
      ],
      "name": "rentProperty",
      "outputs": [],
      "stateMutability": "payable",
      "type": "function",
      "payable": true
    },
    {
      "inputs": [
        {
          "internalType": "uint256",
          "name": "propertyId",
          "type": "uint256"
        },
        {
          "internalType": "bool",
          "name": "rented",
          "type": "bool"
        }
      ],
      "name": "setPropertyRented",
      "outputs": [],
      "stateMutability": "nonpayable",
      "type": "function"
    },
    {
      "inputs": [],
      "name": "getRegisteredProperties",
      "outputs": [
        {
          "components": [
            {
              "internalType": "uint256",
              "name": "id",
              "type": "uint256"
            },
            {
              "components": [
                {
                  "internalType": "address payable",
                  "name": "id",
                  "type": "address"
                },
                {
                  "internalType": "string",
                  "name": "name",
                  "type": "string"
                },
                {
                  "internalType": "string",
                  "name": "phoneNumber",
                  "type": "string"
                },
                {
                  "internalType": "string",
                  "name": "email",
                  "type": "string"
                }
              ],
              "internalType": "struct HousingRentalSystem.Landlord",
              "name": "landlord",
              "type": "tuple"
            },
            {
              "internalType": "string",
              "name": "postalAddress",
              "type": "string"
            },
            {
              "internalType": "string",
              "name": "description",
              "type": "string"
            },
            {
              "internalType": "uint256",
              "name": "price",
              "type": "uint256"
            },
            {
              "internalType": "uint256",
              "name": "securityDeposit",
              "type": "uint256"
            },
            {
              "internalType": "bool",
              "name": "isRented",
              "type": "bool"
            }
          ],
          "internalType": "struct HousingRentalSystem.Property[]",
          "name": "",
          "type": "tuple[]"
        }
      ],
      "stateMutability": "view",
      "type": "function",
      "constant": true
    },
    {
      "inputs": [],
      "name": "getRegisteredLeaseAgreement",
      "outputs": [
        {
          "components": [
            {
              "internalType": "uint256",
              "name": "id",
              "type": "uint256"
            },
            {
              "components": [
                {
                  "internalType": "address payable",
                  "name": "id",
                  "type": "address"
                },
                {
                  "internalType": "string",
                  "name": "name",
                  "type": "string"
                },
                {
                  "internalType": "string",
                  "name": "phoneNumber",
                  "type": "string"
                },
                {
                  "internalType": "string",
                  "name": "email",
                  "type": "string"
                }
              ],
              "internalType": "struct HousingRentalSystem.Tenant",
              "name": "tenant",
              "type": "tuple"
            },
            {
              "components": [
                {
                  "internalType": "uint256",
                  "name": "id",
                  "type": "uint256"
                },
                {
                  "components": [
                    {
                      "internalType": "address payable",
                      "name": "id",
                      "type": "address"
                    },
                    {
                      "internalType": "string",
                      "name": "name",
                      "type": "string"
                    },
                    {
                      "internalType": "string",
                      "name": "phoneNumber",
                      "type": "string"
                    },
                    {
                      "internalType": "string",
                      "name": "email",
                      "type": "string"
                    }
                  ],
                  "internalType": "struct HousingRentalSystem.Landlord",
                  "name": "landlord",
                  "type": "tuple"
                },
                {
                  "internalType": "string",
                  "name": "postalAddress",
                  "type": "string"
                },
                {
                  "internalType": "string",
                  "name": "description",
                  "type": "string"
                },
                {
                  "internalType": "uint256",
                  "name": "price",
                  "type": "uint256"
                },
                {
                  "internalType": "uint256",
                  "name": "securityDeposit",
                  "type": "uint256"
                },
                {
                  "internalType": "bool",
                  "name": "isRented",
                  "type": "bool"
                }
              ],
              "internalType": "struct HousingRentalSystem.Property",
              "name": "property",
              "type": "tuple"
            },
            {
              "internalType": "uint256",
              "name": "leaseStart",
              "type": "uint256"
            },
            {
              "internalType": "uint256",
              "name": "leaseDuration",
              "type": "uint256"
            },
            {
              "internalType": "uint256",
              "name": "totalRentPaid",
              "type": "uint256"
            },
            {
              "internalType": "enum HousingRentalSystem.State",
              "name": "state",
              "type": "uint8"
            }
          ],
          "internalType": "struct HousingRentalSystem.LeaseAgreement[]",
          "name": "",
          "type": "tuple[]"
        }
      ],
      "stateMutability": "view",
      "type": "function",
      "constant": true
    },
    {
      "inputs": [
        {
          "internalType": "uint256",
          "name": "agreementId",
          "type": "uint256"
        }
      ],
      "name": "acceptLeaseAgreement",
      "outputs": [],
      "stateMutability": "nonpayable",
      "type": "function"
    },
    {
      "inputs": [],
      "name": "getBalance",
      "outputs": [
        {
          "internalType": "uint256",
          "name": "",
          "type": "uint256"
        }
      ],
      "stateMutability": "view",
      "type": "function",
      "constant": true
    },
    {
      "inputs": [
        {
          "internalType": "uint256",
          "name": "agreementId",
          "type": "uint256"
        }
      ],
      "name": "payRent",
      "outputs": [],
      "stateMutability": "payable",
      "type": "function",
      "payable": true
    },
    {
      "inputs": [
        {
          "internalType": "uint256",
          "name": "agreementId",
          "type": "uint256"
        }
      ],
      "name": "returnProperty",
      "outputs": [],
      "stateMutability": "payable",
      "type": "function",
      "payable": true
    }
  ],
  "bytecode": "0x608060405234801561001057600080fd5b506000600181905550600060048190555061407a806100306000396000f3fe6080604052600436106100e85760003560e01c8063831b455d1161008a578063d9e8843f11610059578063d9e8843f146102ed578063e4bc6a8714610309578063e810b5e114610325578063f7b1080814610350576100e8565b8063831b455d14610205578063909409ba14610248578063932353a2146102855780639f81311d146102b0576100e8565b80631f29b2ae116100c65780631f29b2ae1461016c5780634d1f0a4e14610195578063749f0427146101be5780637db9f7a5146101da576100e8565b806311447e87146100ed5780631187b9361461011857806312065fe014610141575b600080fd5b3480156100f957600080fd5b50610102610393565b60405161010f9190612c33565b60405180910390f35b34801561012457600080fd5b5061013f600480360381019061013a9190612cc6565b610399565b005b34801561014d57600080fd5b5061015661040d565b6040516101639190612c33565b60405180910390f35b34801561017857600080fd5b50610193600480360381019061018e9190612e4c565b610415565b005b3480156101a157600080fd5b506101bc60048036038101906101b79190612f7a565b610687565b005b6101d860048036038101906101d39190612f7a565b610853565b005b3480156101e657600080fd5b506101ef610b50565b6040516101fc9190612c33565b60405180910390f35b34801561021157600080fd5b5061022c60048036038101906102279190612f7a565b610b56565b60405161023f9796959493929190613291565b60405180910390f35b34801561025457600080fd5b5061026f600480360381019061026a9190612f7a565b611142565b60405161027c9190612c33565b60405180910390f35b34801561029157600080fd5b5061029a611166565b6040516102a7919061359d565b60405180910390f35b3480156102bc57600080fd5b506102d760048036038101906102d29190612f7a565b61185e565b6040516102e49190612c33565b60405180910390f35b61030760048036038101906103029190612f7a565b611882565b005b610323600480360381019061031e91906136c1565b611a95565b005b34801561033157600080fd5b5061033a612286565b6040516103479190613806565b60405180910390f35b34801561035c57600080fd5b5061037760048036038101906103729190612f7a565b6126e6565b60405161038a97969594939291906138f2565b60405180910390f35b60015481565b600082116103dc576040517f08c379a00000000000000000000000000000000000000000000000000000000081526004016103d3906139c2565b60405180910390fd5b8060008084815260200190815260200160002060090160006101000a81548160ff0219169083151502179055505050565b600047905090565b60008511610458576040517f08c379a000000000000000000000000000000000000000000000000000000000815260040161044f90613a2e565b60405180910390fd5b6001600081548092919061046b90613a7d565b91905055506040518060e00160405280600154815260200160405180608001604052803373ffffffffffffffffffffffffffffffffffffffff1681526020018681526020018581526020018481525081526020018881526020018781526020018681526020018581526020016000151581525060008060015481526020019081526020016000206000820151816000015560208201518160010160008201518160000160006101000a81548173ffffffffffffffffffffffffffffffffffffffff021916908373ffffffffffffffffffffffffffffffffffffffff1602179055506020820151816001019080519060200190610568929190612a5b565b506040820151816002019080519060200190610585929190612a5b565b5060608201518160030190805190602001906105a2929190612a5b565b50505060408201518160050190805190602001906105c1929190612a5b565b5060608201518160060190805190602001906105de929190612a5b565b506080820151816007015560a0820151816008015560c08201518160090160006101000a81548160ff021916908315150217905550905050600260015490806001815401808255809150506001900390600052602060002001600090919091909150557fb6d8be5059e64702e2c7be877d9f278d0a00e059451566f3d548556ce6e2ec5e600154338760405161067693929190613ad5565b60405180910390a150505050505050565b806003600082815260200190815260200160002060010160000160009054906101000a900473ffffffffffffffffffffffffffffffffffffffff1673ffffffffffffffffffffffffffffffffffffffff163373ffffffffffffffffffffffffffffffffffffffff161461072f576040517f08c379a000000000000000000000000000000000000000000000000000000000815260040161072690613b7e565b60405180910390fd5b60045482111580156107415750600082115b610780576040517f08c379a000000000000000000000000000000000000000000000000000000000815260040161077790613bea565b60405180910390fd5b600060028111156107945761079361321a565b5b6003600084815260200190815260200160002060120160009054906101000a900460ff1660028111156107ca576107c961321a565b5b1461080a576040517f08c379a000000000000000000000000000000000000000000000000000000000815260040161080190613c7c565b60405180910390fd5b600060036000848152602001908152602001600020905060018160120160006101000a81548160ff021916908360028111156108495761084861321a565b5b0217905550505050565b806003600082815260200190815260200160002060010160000160009054906101000a900473ffffffffffffffffffffffffffffffffffffffff1673ffffffffffffffffffffffffffffffffffffffff163373ffffffffffffffffffffffffffffffffffffffff16146108fb576040517f08c379a00000000000000000000000000000000000000000000000000000000081526004016108f290613b7e565b60405180910390fd5b600454821115801561090d5750600082115b61094c576040517f08c379a000000000000000000000000000000000000000000000000000000000815260040161094390613bea565b60405180910390fd5b6000600360008481526020019081526020016000209050600160028111156109775761097661321a565b5b8160120160009054906101000a900460ff16600281111561099b5761099a61321a565b5b146109db576040517f08c379a00000000000000000000000000000000000000000000000000000000081526004016109d290613c7c565b60405180910390fd5b8060110154816005016007015482601001546109f79190613c9c565b14610a37576040517f08c379a0000000000000000000000000000000000000000000000000000000008152600401610a2e90613d68565b60405180910390fd5b60028160120160006101000a81548160ff02191690836002811115610a5f57610a5e61321a565b5b021790555060008060008360050160000154815260200190815260200160002060090160006101000a81548160ff0219169083151502179055506000816011015490508160050160010160000160009054906101000a900473ffffffffffffffffffffffffffffffffffffffff1673ffffffffffffffffffffffffffffffffffffffff166108fc829081150290604051600060405180830381858888f19350505050158015610b12573d6000803e3d6000fd5b507f9335f8fc7f600a68311f5461d958a3d6ef7d362b5e7874423ab90cc39ca0c9f284604051610b429190612c33565b60405180910390a150505050565b60045481565b6003602052806000526040600020600091509050806000015490806001016040518060800160405290816000820160009054906101000a900473ffffffffffffffffffffffffffffffffffffffff1673ffffffffffffffffffffffffffffffffffffffff1673ffffffffffffffffffffffffffffffffffffffff168152602001600182018054610be590613db7565b80601f0160208091040260200160405190810160405280929190818152602001828054610c1190613db7565b8015610c5e5780601f10610c3357610100808354040283529160200191610c5e565b820191906000526020600020905b815481529060010190602001808311610c4157829003601f168201915b50505050508152602001600282018054610c7790613db7565b80601f0160208091040260200160405190810160405280929190818152602001828054610ca390613db7565b8015610cf05780601f10610cc557610100808354040283529160200191610cf0565b820191906000526020600020905b815481529060010190602001808311610cd357829003601f168201915b50505050508152602001600382018054610d0990613db7565b80601f0160208091040260200160405190810160405280929190818152602001828054610d3590613db7565b8015610d825780601f10610d5757610100808354040283529160200191610d82565b820191906000526020600020905b815481529060010190602001808311610d6557829003601f168201915b50505050508152505090806005016040518060e001604052908160008201548152602001600182016040518060800160405290816000820160009054906101000a900473ffffffffffffffffffffffffffffffffffffffff1673ffffffffffffffffffffffffffffffffffffffff1673ffffffffffffffffffffffffffffffffffffffff168152602001600182018054610e1b90613db7565b80601f0160208091040260200160405190810160405280929190818152602001828054610e4790613db7565b8015610e945780601f10610e6957610100808354040283529160200191610e94565b820191906000526020600020905b815481529060010190602001808311610e7757829003601f168201915b50505050508152602001600282018054610ead90613db7565b80601f0160208091040260200160405190810160405280929190818152602001828054610ed990613db7565b8015610f265780601f10610efb57610100808354040283529160200191610f26565b820191906000526020600020905b815481529060010190602001808311610f0957829003601f168201915b50505050508152602001600382018054610f3f90613db7565b80601f0160208091040260200160405190810160405280929190818152602001828054610f6b90613db7565b8015610fb85780601f10610f8d57610100808354040283529160200191610fb8565b820191906000526020600020905b815481529060010190602001808311610f9b57829003601f168201915b5050505050815250508152602001600582018054610fd590613db7565b80601f016020809104026020016040519081016040528092919081815260200182805461100190613db7565b801561104e5780601f106110235761010080835404028352916020019161104e565b820191906000526020600020905b81548152906001019060200180831161103157829003601f168201915b5050505050815260200160068201805461106790613db7565b80601f016020809104026020016040519081016040528092919081815260200182805461109390613db7565b80156110e05780601f106110b5576101008083540402835291602001916110e0565b820191906000526020600020905b8154815290600101906020018083116110c357829003601f168201915b5050505050815260200160078201548152602001600882015481526020016009820160009054906101000a900460ff1615151515815250509080600f0154908060100154908060110154908060120160009054906101000a900460ff16905087565b6002818154811061115257600080fd5b906000526020600020016000915090505481565b6060600060058054905067ffffffffffffffff81111561118957611188612d21565b5b6040519080825280602002602001820160405280156111c257816020015b6111af612ae1565b8152602001906001900390816111a75790505b50905060005b6005805490508110156118565760036000600583815481106111ed576111ec613de9565b5b906000526020600020015481526020019081526020016000206040518060e001604052908160008201548152602001600182016040518060800160405290816000820160009054906101000a900473ffffffffffffffffffffffffffffffffffffffff1673ffffffffffffffffffffffffffffffffffffffff1673ffffffffffffffffffffffffffffffffffffffff16815260200160018201805461129190613db7565b80601f01602080910402602001604051908101604052809291908181526020018280546112bd90613db7565b801561130a5780601f106112df5761010080835404028352916020019161130a565b820191906000526020600020905b8154815290600101906020018083116112ed57829003601f168201915b5050505050815260200160028201805461132390613db7565b80601f016020809104026020016040519081016040528092919081815260200182805461134f90613db7565b801561139c5780601f106113715761010080835404028352916020019161139c565b820191906000526020600020905b81548152906001019060200180831161137f57829003601f168201915b505050505081526020016003820180546113b590613db7565b80601f01602080910402602001604051908101604052809291908181526020018280546113e190613db7565b801561142e5780601f106114035761010080835404028352916020019161142e565b820191906000526020600020905b81548152906001019060200180831161141157829003601f168201915b5050505050815250508152602001600582016040518060e001604052908160008201548152602001600182016040518060800160405290816000820160009054906101000a900473ffffffffffffffffffffffffffffffffffffffff1673ffffffffffffffffffffffffffffffffffffffff1673ffffffffffffffffffffffffffffffffffffffff1681526020016001820180546114cb90613db7565b80601f01602080910402602001604051908101604052809291908181526020018280546114f790613db7565b80156115445780601f1061151957610100808354040283529160200191611544565b820191906000526020600020905b81548152906001019060200180831161152757829003601f168201915b5050505050815260200160028201805461155d90613db7565b80601f016020809104026020016040519081016040528092919081815260200182805461158990613db7565b80156115d65780601f106115ab576101008083540402835291602001916115d6565b820191906000526020600020905b8154815290600101906020018083116115b957829003601f168201915b505050505081526020016003820180546115ef90613db7565b80601f016020809104026020016040519081016040528092919081815260200182805461161b90613db7565b80156116685780601f1061163d57610100808354040283529160200191611668565b820191906000526020600020905b81548152906001019060200180831161164b57829003601f168201915b505050505081525050815260200160058201805461168590613db7565b80601f01602080910402602001604051908101604052809291908181526020018280546116b190613db7565b80156116fe5780601f106116d3576101008083540402835291602001916116fe565b820191906000526020600020905b8154815290600101906020018083116116e157829003601f168201915b5050505050815260200160068201805461171790613db7565b80601f016020809104026020016040519081016040528092919081815260200182805461174390613db7565b80156117905780601f1061176557610100808354040283529160200191611790565b820191906000526020600020905b81548152906001019060200180831161177357829003601f168201915b5050505050815260200160078201548152602001600882015481526020016009820160009054906101000a900460ff1615151515815250508152602001600f820154815260200160108201548152602001601182015481526020016012820160009054906101000a900460ff16600281111561180f5761180e61321a565b5b60028111156118215761182061321a565b5b8152505082828151811061183857611837613de9565b5b6020026020010181905250808061184e90613a7d565b9150506111c8565b508091505090565b6005818154811061186e57600080fd5b906000526020600020016000915090505481565b806003600082815260200190815260200160002060010160000160009054906101000a900473ffffffffffffffffffffffffffffffffffffffff1673ffffffffffffffffffffffffffffffffffffffff163373ffffffffffffffffffffffffffffffffffffffff161461192a576040517f08c379a000000000000000000000000000000000000000000000000000000000815260040161192190613b7e565b60405180910390fd5b600454821115801561193c5750600082115b61197b576040517f08c379a000000000000000000000000000000000000000000000000000000000815260040161197290613bea565b60405180910390fd5b6000600360008481526020019081526020016000209050600160028111156119a6576119a561321a565b5b8160120160009054906101000a900460ff1660028111156119ca576119c961321a565b5b14611a0a576040517f08c379a0000000000000000000000000000000000000000000000000000000008152600401611a0190613c7c565b60405180910390fd5b80601001546000808360000154815260200190815260200160002060070154611a339190613c9c565b341115611a75576040517f08c379a0000000000000000000000000000000000000000000000000000000008152600401611a6c90613e64565b60405180910390fd5b34816011016000828254611a899190613e84565b92505081905550505050565b60008060008581526020019081526020016000206040518060e001604052908160008201548152602001600182016040518060800160405290816000820160009054906101000a900473ffffffffffffffffffffffffffffffffffffffff1673ffffffffffffffffffffffffffffffffffffffff1673ffffffffffffffffffffffffffffffffffffffff168152602001600182018054611b3490613db7565b80601f0160208091040260200160405190810160405280929190818152602001828054611b6090613db7565b8015611bad5780601f10611b8257610100808354040283529160200191611bad565b820191906000526020600020905b815481529060010190602001808311611b9057829003601f168201915b50505050508152602001600282018054611bc690613db7565b80601f0160208091040260200160405190810160405280929190818152602001828054611bf290613db7565b8015611c3f5780601f10611c1457610100808354040283529160200191611c3f565b820191906000526020600020905b815481529060010190602001808311611c2257829003601f168201915b50505050508152602001600382018054611c5890613db7565b80601f0160208091040260200160405190810160405280929190818152602001828054611c8490613db7565b8015611cd15780601f10611ca657610100808354040283529160200191611cd1565b820191906000526020600020905b815481529060010190602001808311611cb457829003601f168201915b5050505050815250508152602001600582018054611cee90613db7565b80601f0160208091040260200160405190810160405280929190818152602001828054611d1a90613db7565b8015611d675780601f10611d3c57610100808354040283529160200191611d67565b820191906000526020600020905b815481529060010190602001808311611d4a57829003601f168201915b50505050508152602001600682018054611d8090613db7565b80601f0160208091040260200160405190810160405280929190818152602001828054611dac90613db7565b8015611df95780601f10611dce57610100808354040283529160200191611df9565b820191906000526020600020905b815481529060010190602001808311611ddc57829003601f168201915b5050505050815260200160078201548152602001600882015481526020016009820160009054906101000a900460ff16151515158152505090506001548411158015611e455750600084115b611e84576040517f08c379a0000000000000000000000000000000000000000000000000000000008152600401611e7b906139c2565b60405180910390fd5b8060c0015115611ec9576040517f08c379a0000000000000000000000000000000000000000000000000000000008152600401611ec090613f26565b60405180910390fd5b600080858152602001908152602001600020600701543414611f20576040517f08c379a0000000000000000000000000000000000000000000000000000000008152600401611f1790613f92565b60405180910390fd5b8060a001518214611f66576040517f08c379a0000000000000000000000000000000000000000000000000000000008152600401611f5d90614024565b60405180910390fd5b60046000815480929190611f7990613a7d565b91905055506040518060e0016040528060045481526020018681526020018281526020014281526020018481526020016000815260200160006002811115611fc457611fc361321a565b5b8152506003600060045481526020019081526020016000206000820151816000015560208201518160010160008201518160000160006101000a81548173ffffffffffffffffffffffffffffffffffffffff021916908373ffffffffffffffffffffffffffffffffffffffff1602179055506020820151816001019080519060200190612052929190612a5b565b50604082015181600201908051906020019061206f929190612a5b565b50606082015181600301908051906020019061208c929190612a5b565b5050506040820151816005016000820151816000015560208201518160010160008201518160000160006101000a81548173ffffffffffffffffffffffffffffffffffffffff021916908373ffffffffffffffffffffffffffffffffffffffff160217905550602082015181600101908051906020019061210e929190612a5b565b50604082015181600201908051906020019061212b929190612a5b565b506060820151816003019080519060200190612148929190612a5b565b5050506040820151816005019080519060200190612167929190612a5b565b506060820151816006019080519060200190612184929190612a5b565b506080820151816007015560a0820151816008015560c08201518160090160006101000a81548160ff0219169083151502179055505050606082015181600f01556080820151816010015560a0820151816011015560c08201518160120160006101000a81548160ff021916908360028111156122045761220361321a565b5b0217905550905050612217846001610399565b600560045490806001815401808255809150506001900390600052602060002001600090919091909150557f1df07aa90d613a91b586481dbd79ac854db474e14e65acf2141897f9577086b6600454338660405161227793929190613ad5565b60405180910390a15050505050565b6060600060028054905067ffffffffffffffff8111156122a9576122a8612d21565b5b6040519080825280602002602001820160405280156122e257816020015b6122cf612b3c565b8152602001906001900390816122c75790505b50905060005b6002805490508110156126de576000806002838154811061230c5761230b613de9565b5b906000526020600020015481526020019081526020016000206040518060e001604052908160008201548152602001600182016040518060800160405290816000820160009054906101000a900473ffffffffffffffffffffffffffffffffffffffff1673ffffffffffffffffffffffffffffffffffffffff1673ffffffffffffffffffffffffffffffffffffffff1681526020016001820180546123b090613db7565b80601f01602080910402602001604051908101604052809291908181526020018280546123dc90613db7565b80156124295780601f106123fe57610100808354040283529160200191612429565b820191906000526020600020905b81548152906001019060200180831161240c57829003601f168201915b5050505050815260200160028201805461244290613db7565b80601f016020809104026020016040519081016040528092919081815260200182805461246e90613db7565b80156124bb5780601f10612490576101008083540402835291602001916124bb565b820191906000526020600020905b81548152906001019060200180831161249e57829003601f168201915b505050505081526020016003820180546124d490613db7565b80601f016020809104026020016040519081016040528092919081815260200182805461250090613db7565b801561254d5780601f106125225761010080835404028352916020019161254d565b820191906000526020600020905b81548152906001019060200180831161253057829003601f168201915b505050505081525050815260200160058201805461256a90613db7565b80601f016020809104026020016040519081016040528092919081815260200182805461259690613db7565b80156125e35780601f106125b8576101008083540402835291602001916125e3565b820191906000526020600020905b8154815290600101906020018083116125c657829003601f168201915b505050505081526020016006820180546125fc90613db7565b80601f016020809104026020016040519081016040528092919081815260200182805461262890613db7565b80156126755780601f1061264a57610100808354040283529160200191612675565b820191906000526020600020905b81548152906001019060200180831161265857829003601f168201915b5050505050815260200160078201548152602001600882015481526020016009820160009054906101000a900460ff1615151515815250508282815181106126c0576126bf613de9565b5b602002602001018190525080806126d690613a7d565b9150506122e8565b508091505090565b6000602052806000526040600020600091509050806000015490806001016040518060800160405290816000820160009054906101000a900473ffffffffffffffffffffffffffffffffffffffff1673ffffffffffffffffffffffffffffffffffffffff1673ffffffffffffffffffffffffffffffffffffffff16815260200160018201805461277590613db7565b80601f01602080910402602001604051908101604052809291908181526020018280546127a190613db7565b80156127ee5780601f106127c3576101008083540402835291602001916127ee565b820191906000526020600020905b8154815290600101906020018083116127d157829003601f168201915b5050505050815260200160028201805461280790613db7565b80601f016020809104026020016040519081016040528092919081815260200182805461283390613db7565b80156128805780601f1061285557610100808354040283529160200191612880565b820191906000526020600020905b81548152906001019060200180831161286357829003601f168201915b5050505050815260200160038201805461289990613db7565b80601f01602080910402602001604051908101604052809291908181526020018280546128c590613db7565b80156129125780601f106128e757610100808354040283529160200191612912565b820191906000526020600020905b8154815290600101906020018083116128f557829003601f168201915b5050505050815250509080600501805461292b90613db7565b80601f016020809104026020016040519081016040528092919081815260200182805461295790613db7565b80156129a45780601f10612979576101008083540402835291602001916129a4565b820191906000526020600020905b81548152906001019060200180831161298757829003601f168201915b5050505050908060060180546129b990613db7565b80601f01602080910402602001604051908101604052809291908181526020018280546129e590613db7565b8015612a325780601f10612a0757610100808354040283529160200191612a32565b820191906000526020600020905b815481529060010190602001808311612a1557829003601f168201915b5050505050908060070154908060080154908060090160009054906101000a900460ff16905087565b828054612a6790613db7565b90600052602060002090601f016020900481019282612a895760008555612ad0565b82601f10612aa257805160ff1916838001178555612ad0565b82800160010185558215612ad0579182015b82811115612acf578251825591602001919060010190612ab4565b5b509050612add9190612b81565b5090565b6040518060e0016040528060008152602001612afb612b9e565b8152602001612b08612b3c565b815260200160008152602001600081526020016000815260200160006002811115612b3657612b3561321a565b5b81525090565b6040518060e0016040528060008152602001612b56612bdc565b8152602001606081526020016060815260200160008152602001600081526020016000151581525090565b5b80821115612b9a576000816000905550600101612b82565b5090565b6040518060800160405280600073ffffffffffffffffffffffffffffffffffffffff1681526020016060815260200160608152602001606081525090565b6040518060800160405280600073ffffffffffffffffffffffffffffffffffffffff1681526020016060815260200160608152602001606081525090565b6000819050919050565b612c2d81612c1a565b82525050565b6000602082019050612c486000830184612c24565b92915050565b6000604051905090565b600080fd5b600080fd5b612c6b81612c1a565b8114612c7657600080fd5b50565b600081359050612c8881612c62565b92915050565b60008115159050919050565b612ca381612c8e565b8114612cae57600080fd5b50565b600081359050612cc081612c9a565b92915050565b60008060408385031215612cdd57612cdc612c58565b5b6000612ceb85828601612c79565b9250506020612cfc85828601612cb1565b9150509250929050565b600080fd5b600080fd5b6000601f19601f8301169050919050565b7f4e487b7100000000000000000000000000000000000000000000000000000000600052604160045260246000fd5b612d5982612d10565b810181811067ffffffffffffffff82111715612d7857612d77612d21565b5b80604052505050565b6000612d8b612c4e565b9050612d978282612d50565b919050565b600067ffffffffffffffff821115612db757612db6612d21565b5b612dc082612d10565b9050602081019050919050565b82818337600083830152505050565b6000612def612dea84612d9c565b612d81565b905082815260208101848484011115612e0b57612e0a612d0b565b5b612e16848285612dcd565b509392505050565b600082601f830112612e3357612e32612d06565b5b8135612e43848260208601612ddc565b91505092915050565b600080600080600080600060e0888a031215612e6b57612e6a612c58565b5b600088013567ffffffffffffffff811115612e8957612e88612c5d565b5b612e958a828b01612e1e565b975050602088013567ffffffffffffffff811115612eb657612eb5612c5d565b5b612ec28a828b01612e1e565b9650506040612ed38a828b01612c79565b9550506060612ee48a828b01612c79565b945050608088013567ffffffffffffffff811115612f0557612f04612c5d565b5b612f118a828b01612e1e565b93505060a088013567ffffffffffffffff811115612f3257612f31612c5d565b5b612f3e8a828b01612e1e565b92505060c088013567ffffffffffffffff811115612f5f57612f5e612c5d565b5b612f6b8a828b01612e1e565b91505092959891949750929550565b600060208284031215612f9057612f8f612c58565b5b6000612f9e84828501612c79565b91505092915050565b600073ffffffffffffffffffffffffffffffffffffffff82169050919050565b6000612fd282612fa7565b9050919050565b612fe281612fc7565b82525050565b600081519050919050565b600082825260208201905092915050565b60005b83811015613022578082015181840152602081019050613007565b83811115613031576000848401525b50505050565b600061304282612fe8565b61304c8185612ff3565b935061305c818560208601613004565b61306581612d10565b840191505092915050565b60006080830160008301516130886000860182612fd9565b50602083015184820360208601526130a08282613037565b915050604083015184820360408601526130ba8282613037565b915050606083015184820360608601526130d48282613037565b9150508091505092915050565b6130ea81612c1a565b82525050565b60006080830160008301516131086000860182612fd9565b50602083015184820360208601526131208282613037565b9150506040830151848203604086015261313a8282613037565b915050606083015184820360608601526131548282613037565b9150508091505092915050565b61316a81612c8e565b82525050565b600060e08301600083015161318860008601826130e1565b50602083015184820360208601526131a082826130f0565b915050604083015184820360408601526131ba8282613037565b915050606083015184820360608601526131d48282613037565b91505060808301516131e960808601826130e1565b5060a08301516131fc60a08601826130e1565b5060c083015161320f60c0860182613161565b508091505092915050565b7f4e487b7100000000000000000000000000000000000000000000000000000000600052602160045260246000fd5b6003811061325a5761325961321a565b5b50565b600081905061326b82613249565b919050565b600061327b8261325d565b9050919050565b61328b81613270565b82525050565b600060e0820190506132a6600083018a612c24565b81810360208301526132b88189613070565b905081810360408301526132cc8188613170565b90506132db6060830187612c24565b6132e86080830186612c24565b6132f560a0830185612c24565b61330260c0830184613282565b98975050505050505050565b600081519050919050565b600082825260208201905092915050565b6000819050602082019050919050565b60006080830160008301516133526000860182612fd9565b506020830151848203602086015261336a8282613037565b915050604083015184820360408601526133848282613037565b9150506060830151848203606086015261339e8282613037565b9150508091505092915050565b600060e0830160008301516133c360008601826130e1565b50602083015184820360208601526133db82826130f0565b915050604083015184820360408601526133f58282613037565b9150506060830151848203606086015261340f8282613037565b915050608083015161342460808601826130e1565b5060a083015161343760a08601826130e1565b5060c083015161344a60c0860182613161565b508091505092915050565b61345e81613270565b82525050565b600060e08301600083015161347c60008601826130e1565b5060208301518482036020860152613494828261333a565b915050604083015184820360408601526134ae82826133ab565b91505060608301516134c360608601826130e1565b5060808301516134d660808601826130e1565b5060a08301516134e960a08601826130e1565b5060c08301516134fc60c0860182613455565b508091505092915050565b60006135138383613464565b905092915050565b6000602082019050919050565b60006135338261330e565b61353d8185613319565b93508360208202850161354f8561332a565b8060005b8581101561358b578484038952815161356c8582613507565b94506135778361351b565b925060208a01995050600181019050613553565b50829750879550505050505092915050565b600060208201905081810360008301526135b78184613528565b905092915050565b600080fd5b600080fd5b6135d281612fc7565b81146135dd57600080fd5b50565b6000813590506135ef816135c9565b92915050565b60006080828403121561360b5761360a6135bf565b5b6136156080612d81565b90506000613625848285016135e0565b600083015250602082013567ffffffffffffffff811115613649576136486135c4565b5b61365584828501612e1e565b602083015250604082013567ffffffffffffffff811115613679576136786135c4565b5b61368584828501612e1e565b604083015250606082013567ffffffffffffffff8111156136a9576136a86135c4565b5b6136b584828501612e1e565b60608301525092915050565b600080600080608085870312156136db576136da612c58565b5b600085013567ffffffffffffffff8111156136f9576136f8612c5d565b5b613705878288016135f5565b945050602061371687828801612c79565b935050604061372787828801612c79565b925050606061373887828801612c79565b91505092959194509250565b600081519050919050565b600082825260208201905092915050565b6000819050602082019050919050565b600061377c83836133ab565b905092915050565b6000602082019050919050565b600061379c82613744565b6137a6818561374f565b9350836020820285016137b885613760565b8060005b858110156137f457848403895281516137d58582613770565b94506137e083613784565b925060208a019950506001810190506137bc565b50829750879550505050505092915050565b600060208201905081810360008301526138208184613791565b905092915050565b60006080830160008301516138406000860182612fd9565b50602083015184820360208601526138588282613037565b915050604083015184820360408601526138728282613037565b9150506060830151848203606086015261388c8282613037565b9150508091505092915050565b600082825260208201905092915050565b60006138b582612fe8565b6138bf8185613899565b93506138cf818560208601613004565b6138d881612d10565b840191505092915050565b6138ec81612c8e565b82525050565b600060e082019050613907600083018a612c24565b81810360208301526139198189613828565b9050818103604083015261392d81886138aa565b9050818103606083015261394181876138aa565b90506139506080830186612c24565b61395d60a0830185612c24565b61396a60c08301846138e3565b98975050505050505050565b7f496e76616c69642070726f706572747920494400000000000000000000000000600082015250565b60006139ac601383613899565b91506139b782613976565b602082019050919050565b600060208201905081810360008301526139db8161399f565b9050919050565b7f5072696365206d7573742062652067726561746572207468616e203000000000600082015250565b6000613a18601c83613899565b9150613a23826139e2565b602082019050919050565b60006020820190508181036000830152613a4781613a0b565b9050919050565b7f4e487b7100000000000000000000000000000000000000000000000000000000600052601160045260246000fd5b6000613a8882612c1a565b91507fffffffffffffffffffffffffffffffffffffffffffffffffffffffffffffffff821415613abb57613aba613a4e565b5b600182019050919050565b613acf81612fc7565b82525050565b6000606082019050613aea6000830186612c24565b613af76020830185613ac6565b613b046040830184612c24565b949350505050565b7f4f6e6c79207468652074656e616e742063616e20706572666f726d207468697360008201527f20616374696f6e00000000000000000000000000000000000000000000000000602082015250565b6000613b68602783613899565b9150613b7382613b0c565b604082019050919050565b60006020820190508181036000830152613b9781613b5b565b9050919050565b7f496e76616c69642061677265656d656e74204944000000000000000000000000600082015250565b6000613bd4601483613899565b9150613bdf82613b9e565b602082019050919050565b60006020820190508181036000830152613c0381613bc7565b9050919050565b7f4c6561736541677265656d656e7420697320696e20616e20696e76616c69642060008201527f7374617465000000000000000000000000000000000000000000000000000000602082015250565b6000613c66602583613899565b9150613c7182613c0a565b604082019050919050565b60006020820190508181036000830152613c9581613c59565b9050919050565b6000613ca782612c1a565b9150613cb283612c1a565b9250817fffffffffffffffffffffffffffffffffffffffffffffffffffffffffffffffff0483118215151615613ceb57613cea613a4e565b5b828202905092915050565b7f4e6f7420616c6c20636f6e74726163742072656e74732068617665206265656e60008201527f2070616964207965740000000000000000000000000000000000000000000000602082015250565b6000613d52602983613899565b9150613d5d82613cf6565b604082019050919050565b60006020820190508181036000830152613d8181613d45565b9050919050565b7f4e487b7100000000000000000000000000000000000000000000000000000000600052602260045260246000fd5b60006002820490506001821680613dcf57607f821691505b60208210811415613de357613de2613d88565b5b50919050565b7f4e487b7100000000000000000000000000000000000000000000000000000000600052603260045260246000fd5b7f496e636f72726563742052656e7420616d6f756e740000000000000000000000600082015250565b6000613e4e601583613899565b9150613e5982613e18565b602082019050919050565b60006020820190508181036000830152613e7d81613e41565b9050919050565b6000613e8f82612c1a565b9150613e9a83612c1a565b9250827fffffffffffffffffffffffffffffffffffffffffffffffffffffffffffffffff03821115613ecf57613ece613a4e565b5b828201905092915050565b7f50726f706572747920697320616c72656164792072656e746564000000000000600082015250565b6000613f10601a83613899565b9150613f1b82613eda565b602082019050919050565b60006020820190508181036000830152613f3f81613f03565b9050919050565b7f496e73756666696369656e74207061796d656e74000000000000000000000000600082015250565b6000613f7c601483613899565b9150613f8782613f46565b602082019050919050565b60006020820190508181036000830152613fab81613f6f565b9050919050565b7f4465706f73697420646f6573206e6f74206d6174636820746f2074686520707260008201527f6f7065727479206465706f736974000000000000000000000000000000000000602082015250565b600061400e602e83613899565b915061401982613fb2565b604082019050919050565b6000602082019050818103600083015261403d81614001565b905091905056fea26469706673582212207a51c69771807c34f431d800c39d1ecb1344f2ad2a8f433513563ff40511b25b64736f6c634300080a0033",
  "immutableReferences": {},
  "source": "// SPDX-License-Identifier: GPL-3.0\r\npragma solidity ^0.8.10;\r\n\r\ncontract HousingRentalSystem {\r\n    enum State {\r\n        Created,\r\n        Started,\r\n        Terminated\r\n    }\r\n\r\n    struct Landlord {\r\n        address payable id;\r\n        string name;\r\n        string phoneNumber;\r\n        string email;\r\n    }\r\n\r\n    struct Tenant {\r\n        address payable id;\r\n        string name;\r\n        string phoneNumber;\r\n        string email;\r\n    }\r\n\r\n    struct Property {\r\n        uint256 id;\r\n        Landlord landlord;\r\n        string postalAddress;\r\n        string description;\r\n        uint price;\r\n        uint securityDeposit;\r\n        bool isRented;\r\n    }\r\n\r\n    struct LeaseAgreement {\r\n        uint256 id;\r\n        Tenant tenant;\r\n        Property property;\r\n        uint leaseStart;\r\n        uint leaseDuration;\r\n        uint totalRentPaid;\r\n        State state;\r\n    }\r\n\r\n    mapping(uint256 => Property) public properties;\r\n    uint256 public propertiesCount;\r\n    uint256[] public propertiesKeys;\r\n    mapping(uint256 => LeaseAgreement) public leaseAgreements;\r\n    uint256 public leaseAgreementCount;\r\n    uint256[] public leaseAgreementKeys;\r\n\r\n    event PropertyAdded(\r\n        uint256 propertyId,\r\n        address payable landlord,\r\n        uint256 price\r\n    );\r\n    event PropertyReturned(uint256 agreementId);\r\n    event PropertyProposalRent(\r\n        uint256 agreementId,\r\n        address payable tenant,\r\n        uint256 houseId,\r\n        uint256 duration\r\n    );\r\n    event PropertyPaid(uint256 agreementId, uint256 amount);\r\n    event LeaseAgreementProposal(\r\n        uint256 leaseAgreementCount,\r\n        address payable tenant,\r\n        uint propertyId\r\n    );\r\n\r\n    constructor() {\r\n        propertiesCount = 0;\r\n        leaseAgreementCount = 0;\r\n    }\r\n\r\n    function registerProperty(\r\n        string memory postalAddress,\r\n        string memory description,\r\n        uint price,\r\n        uint securityDeposit,\r\n        string memory landlordName,\r\n        string memory landlordPhone,\r\n        string memory landlordEmail\r\n    ) external {\r\n        require(price > 0, \"Price must be greater than 0\");\r\n        propertiesCount++;\r\n        properties[propertiesCount] = Property({\r\n            id: propertiesCount,\r\n            landlord: Landlord({\r\n                id: payable(msg.sender),\r\n                name: landlordName,\r\n                phoneNumber: landlordPhone,\r\n                email: landlordEmail\r\n            }),\r\n            description: description,\r\n            postalAddress: postalAddress,\r\n            price: price,\r\n            securityDeposit: securityDeposit,\r\n            isRented: false\r\n        });\r\n        propertiesKeys.push(propertiesCount);\r\n        emit PropertyAdded(propertiesCount, payable(msg.sender), price);\r\n    }\r\n\r\n    function rentProperty(\r\n        Tenant memory tenant,\r\n        uint256 propertyId,\r\n        uint256 duration,\r\n        uint256 deposit\r\n    ) public payable {\r\n        Property memory property = properties[propertyId];\r\n        require(\r\n            propertyId <= propertiesCount && propertyId > 0,\r\n            \"Invalid property ID\"\r\n        );\r\n        require(!property.isRented, \"Property is already rented\");\r\n        require(\r\n            msg.value == properties[propertyId].price,\r\n            \"Insufficient payment\"\r\n        );\r\n        require(\r\n            deposit == property.securityDeposit,\r\n            \"Deposit does not match to the property deposit\"\r\n        );\r\n\r\n        leaseAgreementCount++;\r\n        leaseAgreements[leaseAgreementCount] = LeaseAgreement({\r\n            id: leaseAgreementCount,\r\n            tenant: tenant,\r\n            property: property,\r\n            leaseStart: block.timestamp,\r\n            leaseDuration: duration,\r\n            totalRentPaid: 0,\r\n            state: State.Created\r\n        });\r\n        setPropertyRented(propertyId, true);\r\n        leaseAgreementKeys.push(leaseAgreementCount);\r\n        emit LeaseAgreementProposal(\r\n            leaseAgreementCount,\r\n            payable(msg.sender),\r\n            propertyId\r\n        );\r\n    }\r\n\r\n    function setPropertyRented(uint256 propertyId, bool rented) public {\r\n        require(propertyId > 0, \"Invalid property ID\");\r\n        properties[propertyId].isRented = rented;\r\n    }\r\n\r\n    function getRegisteredProperties()\r\n        external\r\n        view\r\n        returns (Property[] memory)\r\n    {\r\n        Property[] memory result = new Property[](propertiesKeys.length);\r\n        for (uint256 i = 0; i < propertiesKeys.length; i++) {\r\n            result[i] = properties[propertiesKeys[i]];\r\n        }\r\n        return result;\r\n    }\r\n\r\n    modifier onlyTenant(uint256 agreementId) {\r\n        require(\r\n            msg.sender == leaseAgreements[agreementId].tenant.id,\r\n            \"Only the tenant can perform this action\"\r\n        );\r\n        _;\r\n    }\r\n\r\n    function getRegisteredLeaseAgreement()\r\n        external\r\n        view\r\n        returns (LeaseAgreement[] memory)\r\n    {\r\n        LeaseAgreement[] memory result = new LeaseAgreement[](\r\n            leaseAgreementKeys.length\r\n        );\r\n        for (uint256 i = 0; i < leaseAgreementKeys.length; i++) {\r\n            result[i] = leaseAgreements[leaseAgreementKeys[i]];\r\n        }\r\n        return result;\r\n    }\r\n\r\n    function acceptLeaseAgreement(\r\n        uint256 agreementId\r\n    ) external onlyTenant(agreementId) {\r\n        require(\r\n            agreementId <= leaseAgreementCount && agreementId > 0,\r\n            \"Invalid agreement ID\"\r\n        );\r\n        require(\r\n            leaseAgreements[agreementId].state == State.Created,\r\n            \"LeaseAgreement is in an invalid state\"\r\n        );\r\n        LeaseAgreement storage agreement = leaseAgreements[agreementId];\r\n        agreement.state = State.Started;\r\n    }\r\n\r\n    function getBalance() external view returns (uint256) {\r\n        return address(this).balance;\r\n    }\r\n\r\n    function payRent(\r\n        uint256 agreementId\r\n    ) external payable onlyTenant(agreementId) {\r\n        require(\r\n            agreementId <= leaseAgreementCount && agreementId > 0,\r\n            \"Invalid agreement ID\"\r\n        );\r\n        LeaseAgreement storage agreement = leaseAgreements[agreementId];\r\n        require(\r\n            agreement.state == State.Started,\r\n            \"LeaseAgreement is in an invalid state\"\r\n        );\r\n        require(\r\n            msg.value <=\r\n                properties[agreement.id].price * agreement.leaseDuration,\r\n            \"Incorrect Rent amount\"\r\n        );\r\n        agreement.totalRentPaid += msg.value;\r\n    }\r\n\r\n    function returnProperty(\r\n        uint256 agreementId\r\n    ) external payable onlyTenant(agreementId) {\r\n        require(\r\n            agreementId <= leaseAgreementCount && agreementId > 0,\r\n            \"Invalid agreement ID\"\r\n        );\r\n        LeaseAgreement storage agreement = leaseAgreements[agreementId];\r\n        require(\r\n            agreement.state == State.Started,\r\n            \"LeaseAgreement is in an invalid state\"\r\n        );\r\n        require(\r\n            agreement.leaseDuration * agreement.property.price ==\r\n                agreement.totalRentPaid,\r\n            \"Not all contract rents have been paid yet\"\r\n        );\r\n        agreement.state = State.Terminated;\r\n        properties[agreement.property.id].isRented = false;\r\n        uint256 rentAmount = agreement.totalRentPaid;\r\n        payable(agreement.property.landlord.id).transfer(rentAmount);\r\n        emit PropertyReturned(agreementId);\r\n    }\r\n}\r\n",
  "sourcePath": "C:\\Users\\UO251408\\Desktop\\TFM\\housing-rental-backend\\contracts\\HousingRentalSystem.sol",
  "compiler": {
    "name": "solc",
    "version": "0.8.10+commit.fc410830.Emscripten.clang"
  },
  "schemaVersion": "3.4.12",
  "updatedAt": "2024-02-16T20:06:02.911Z",
  "networkType": "ethereum",
  "devdoc": {
    "kind": "dev",
    "methods": {},
    "version": 1
  },
  "userdoc": {
    "kind": "user",
    "methods": {},
    "version": 1
  }
}